{
  "_format": "hh-sol-artifact-1",
  "contractName": "LPToken",
  "sourceName": "contracts/LPToken.sol",
  "abi": [
    {
      "inputs": [],
      "stateMutability": "nonpayable",
      "type": "constructor"
    },
    {
      "inputs": [],
      "name": "AlreadyInitialized",
      "type": "error"
    },
    {
      "inputs": [],
      "name": "CallerNotPool",
      "type": "error"
    },
    {
      "inputs": [
        {
          "internalType": "address",
          "name": "spender",
          "type": "address"
        },
        {
          "internalType": "uint256",
          "name": "allowance",
          "type": "uint256"
        },
        {
          "internalType": "uint256",
          "name": "needed",
          "type": "uint256"
        }
      ],
      "name": "ERC20InsufficientAllowance",
      "type": "error"
    },
    {
      "inputs": [
        {
          "internalType": "address",
          "name": "sender",
          "type": "address"
        },
        {
          "internalType": "uint256",
          "name": "balance",
          "type": "uint256"
        },
        {
          "internalType": "uint256",
          "name": "needed",
          "type": "uint256"
        }
      ],
      "name": "ERC20InsufficientBalance",
      "type": "error"
    },
    {
      "inputs": [
        {
          "internalType": "address",
          "name": "approver",
          "type": "address"
        }
      ],
      "name": "ERC20InvalidApprover",
      "type": "error"
    },
    {
      "inputs": [
        {
          "internalType": "address",
          "name": "receiver",
          "type": "address"
        }
      ],
      "name": "ERC20InvalidReceiver",
      "type": "error"
    },
    {
      "inputs": [
        {
          "internalType": "address",
          "name": "sender",
          "type": "address"
        }
      ],
      "name": "ERC20InvalidSender",
      "type": "error"
    },
    {
      "inputs": [
        {
          "internalType": "address",
          "name": "spender",
          "type": "address"
        }
      ],
      "name": "ERC20InvalidSpender",
      "type": "error"
    },
    {
      "inputs": [],
      "name": "EnforcedPause",
      "type": "error"
    },
    {
      "inputs": [],
      "name": "ExpectedPause",
      "type": "error"
    },
    {
      "inputs": [],
      "name": "NotInitialized",
      "type": "error"
    },
    {
      "inputs": [
        {
          "internalType": "address",
          "name": "owner",
          "type": "address"
        }
      ],
      "name": "OwnableInvalidOwner",
      "type": "error"
    },
    {
      "inputs": [
        {
          "internalType": "address",
          "name": "account",
          "type": "address"
        }
      ],
      "name": "OwnableUnauthorizedAccount",
      "type": "error"
    },
    {
      "inputs": [],
      "name": "TransferAmountTooLow",
      "type": "error"
    },
    {
      "inputs": [],
      "name": "ZeroAddress",
      "type": "error"
    },
    {
      "anonymous": false,
      "inputs": [
        {
          "indexed": true,
          "internalType": "address",
          "name": "owner",
          "type": "address"
        },
        {
          "indexed": true,
          "internalType": "address",
          "name": "spender",
          "type": "address"
        },
        {
          "indexed": false,
          "internalType": "uint256",
          "name": "value",
          "type": "uint256"
        }
      ],
      "name": "Approval",
      "type": "event"
    },
    {
      "anonymous": false,
      "inputs": [
        {
          "indexed": true,
          "internalType": "address",
          "name": "previousOwner",
          "type": "address"
        },
        {
          "indexed": true,
          "internalType": "address",
          "name": "newOwner",
          "type": "address"
        }
      ],
      "name": "OwnershipTransferred",
      "type": "event"
    },
    {
      "anonymous": false,
      "inputs": [
        {
          "indexed": false,
          "internalType": "address",
          "name": "account",
          "type": "address"
        }
      ],
      "name": "Paused",
      "type": "event"
    },
    {
      "anonymous": false,
      "inputs": [
        {
          "indexed": true,
          "internalType": "address",
          "name": "pool",
          "type": "address"
        }
      ],
      "name": "PoolSet",
      "type": "event"
    },
    {
      "anonymous": false,
      "inputs": [
        {
          "indexed": true,
          "internalType": "address",
          "name": "from",
          "type": "address"
        },
        {
          "indexed": false,
          "internalType": "uint256",
          "name": "amount",
          "type": "uint256"
        }
      ],
      "name": "TokenBurned",
      "type": "event"
    },
    {
      "anonymous": false,
      "inputs": [
        {
          "indexed": true,
          "internalType": "address",
          "name": "to",
          "type": "address"
        },
        {
          "indexed": false,
          "internalType": "uint256",
          "name": "amount",
          "type": "uint256"
        }
      ],
      "name": "TokenMinted",
      "type": "event"
    },
    {
      "anonymous": false,
      "inputs": [
        {
          "indexed": true,
          "internalType": "address",
          "name": "from",
          "type": "address"
        },
        {
          "indexed": true,
          "internalType": "address",
          "name": "to",
          "type": "address"
        },
        {
          "indexed": false,
          "internalType": "uint256",
          "name": "value",
          "type": "uint256"
        }
      ],
      "name": "Transfer",
      "type": "event"
    },
    {
      "anonymous": false,
      "inputs": [
        {
          "indexed": true,
          "internalType": "address",
          "name": "from",
          "type": "address"
        },
        {
          "indexed": true,
          "internalType": "address",
          "name": "to",
          "type": "address"
        },
        {
          "indexed": false,
          "internalType": "uint256",
          "name": "amount",
          "type": "uint256"
        }
      ],
      "name": "TransferRestricted",
      "type": "event"
    },
    {
      "anonymous": false,
      "inputs": [
        {
          "indexed": false,
          "internalType": "address",
          "name": "account",
          "type": "address"
        }
      ],
      "name": "Unpaused",
      "type": "event"
    },
    {
      "inputs": [],
      "name": "MAX_SUPPLY",
      "outputs": [
        {
          "internalType": "uint256",
          "name": "",
          "type": "uint256"
        }
      ],
      "stateMutability": "view",
      "type": "function"
    },
    {
      "inputs": [],
      "name": "MINIMUM_TRANSFER_AMOUNT",
      "outputs": [
        {
          "internalType": "uint256",
          "name": "",
          "type": "uint256"
        }
      ],
      "stateMutability": "view",
      "type": "function"
    },
    {
      "inputs": [
        {
          "internalType": "address",
          "name": "owner",
          "type": "address"
        },
        {
          "internalType": "address",
          "name": "spender",
          "type": "address"
        }
      ],
      "name": "allowance",
      "outputs": [
        {
          "internalType": "uint256",
          "name": "",
          "type": "uint256"
        }
      ],
      "stateMutability": "view",
      "type": "function"
    },
    {
      "inputs": [
        {
          "internalType": "address",
          "name": "spender",
          "type": "address"
        },
        {
          "internalType": "uint256",
          "name": "value",
          "type": "uint256"
        }
      ],
      "name": "approve",
      "outputs": [
        {
          "internalType": "bool",
          "name": "",
          "type": "bool"
        }
      ],
      "stateMutability": "nonpayable",
      "type": "function"
    },
    {
      "inputs": [
        {
          "internalType": "address",
          "name": "account",
          "type": "address"
        }
      ],
      "name": "balanceOf",
      "outputs": [
        {
          "internalType": "uint256",
          "name": "",
          "type": "uint256"
        }
      ],
      "stateMutability": "view",
      "type": "function"
    },
    {
      "inputs": [
        {
          "internalType": "address",
          "name": "from",
          "type": "address"
        },
        {
          "internalType": "uint256",
          "name": "amount",
          "type": "uint256"
        }
      ],
      "name": "burn",
      "outputs": [],
      "stateMutability": "nonpayable",
      "type": "function"
    },
    {
      "inputs": [],
      "name": "decimals",
      "outputs": [
        {
          "internalType": "uint8",
          "name": "",
          "type": "uint8"
        }
      ],
      "stateMutability": "view",
      "type": "function"
    },
    {
      "inputs": [
        {
          "internalType": "address",
          "name": "pool_",
          "type": "address"
        }
      ],
      "name": "initialize",
      "outputs": [],
      "stateMutability": "nonpayable",
      "type": "function"
    },
    {
      "inputs": [],
      "name": "initialized",
      "outputs": [
        {
          "internalType": "bool",
          "name": "",
          "type": "bool"
        }
      ],
      "stateMutability": "view",
      "type": "function"
    },
    {
      "inputs": [],
      "name": "minTransferAmount",
      "outputs": [
        {
          "internalType": "uint256",
          "name": "",
          "type": "uint256"
        }
      ],
      "stateMutability": "pure",
      "type": "function"
    },
    {
      "inputs": [
        {
          "internalType": "address",
          "name": "to",
          "type": "address"
        },
        {
          "internalType": "uint256",
          "name": "amount",
          "type": "uint256"
        }
      ],
      "name": "mint",
      "outputs": [],
      "stateMutability": "nonpayable",
      "type": "function"
    },
    {
      "inputs": [],
      "name": "name",
      "outputs": [
        {
          "internalType": "string",
          "name": "",
          "type": "string"
        }
      ],
      "stateMutability": "view",
      "type": "function"
    },
    {
      "inputs": [],
      "name": "owner",
      "outputs": [
        {
          "internalType": "address",
          "name": "",
          "type": "address"
        }
      ],
      "stateMutability": "view",
      "type": "function"
    },
    {
      "inputs": [],
      "name": "pause",
      "outputs": [],
      "stateMutability": "nonpayable",
      "type": "function"
    },
    {
      "inputs": [],
      "name": "paused",
      "outputs": [
        {
          "internalType": "bool",
          "name": "",
          "type": "bool"
        }
      ],
      "stateMutability": "view",
      "type": "function"
    },
    {
      "inputs": [],
      "name": "pool",
      "outputs": [
        {
          "internalType": "address",
          "name": "",
          "type": "address"
        }
      ],
      "stateMutability": "view",
      "type": "function"
    },
    {
      "inputs": [],
      "name": "renounceOwnership",
      "outputs": [],
      "stateMutability": "nonpayable",
      "type": "function"
    },
    {
      "inputs": [],
      "name": "symbol",
      "outputs": [
        {
          "internalType": "string",
          "name": "",
          "type": "string"
        }
      ],
      "stateMutability": "view",
      "type": "function"
    },
    {
      "inputs": [],
      "name": "totalSupply",
      "outputs": [
        {
          "internalType": "uint256",
          "name": "",
          "type": "uint256"
        }
      ],
      "stateMutability": "view",
      "type": "function"
    },
    {
      "inputs": [
        {
          "internalType": "address",
          "name": "to",
          "type": "address"
        },
        {
          "internalType": "uint256",
          "name": "amount",
          "type": "uint256"
        }
      ],
      "name": "transfer",
      "outputs": [
        {
          "internalType": "bool",
          "name": "",
          "type": "bool"
        }
      ],
      "stateMutability": "nonpayable",
      "type": "function"
    },
    {
      "inputs": [
        {
          "internalType": "address",
          "name": "from",
          "type": "address"
        },
        {
          "internalType": "address",
          "name": "to",
          "type": "address"
        },
        {
          "internalType": "uint256",
          "name": "amount",
          "type": "uint256"
        }
      ],
      "name": "transferFrom",
      "outputs": [
        {
          "internalType": "bool",
          "name": "",
          "type": "bool"
        }
      ],
      "stateMutability": "nonpayable",
      "type": "function"
    },
    {
      "inputs": [
        {
          "internalType": "address",
          "name": "newOwner",
          "type": "address"
        }
      ],
      "name": "transferOwnership",
      "outputs": [],
      "stateMutability": "nonpayable",
      "type": "function"
    },
    {
      "inputs": [],
      "name": "unpause",
      "outputs": [],
      "stateMutability": "nonpayable",
      "type": "function"
    }
  ],
  "bytecode": "0x60806040523480156200001157600080fd5b5033604051806040016040528060088152602001672628102a37b5b2b760c11b8152506040518060400160405280600281526020016104c560f41b8152508160039081620000609190620001c9565b5060046200006f8282620001c9565b50506005805460ff19169055506001600160a01b038116620000ab57604051631e4fbdf760e01b81526000600482015260240160405180910390fd5b620000b681620000ca565b506005805460ff60a81b1916905562000295565b600580546001600160a01b03838116610100818102610100600160a81b031985161790945560405193909204169182907f8be0079c531659141344cd1fd0a4f28419497f9722a3daafe3b4186f6b6457e090600090a35050565b634e487b7160e01b600052604160045260246000fd5b600181811c908216806200014f57607f821691505b6020821081036200017057634e487b7160e01b600052602260045260246000fd5b50919050565b601f821115620001c457600081815260208120601f850160051c810160208610156200019f5750805b601f850160051c820191505b81811015620001c057828155600101620001ab565b5050505b505050565b81516001600160401b03811115620001e557620001e562000124565b620001fd81620001f684546200013a565b8462000176565b602080601f8311600181146200023557600084156200021c5750858301515b600019600386901b1c1916600185901b178555620001c0565b600085815260208120601f198616915b82811015620002665788860151825594840194600190910190840162000245565b5085821015620002855787850151600019600388901b60f8161c191681555b5050505050600190811b01905550565b610f9a80620002a56000396000f3fe608060405234801561001057600080fd5b506004361061014d5760003560e01c806368841431116100c35780639dc29fac1161007c5780639dc29fac1461028d578063a9059cbb146102a0578063abba535d146102b3578063c4d66de8146102bb578063dd62ed3e146102ce578063f2fde38b1461030757600080fd5b8063688414311461022f57806370a0823114610236578063715018a61461025f5780638456cb59146102675780638da5cb5b1461026f57806395d89b411461028557600080fd5b806323b872dd1161011557806323b872dd146101dc578063313ce567146101ef57806332cb6b0c146101fe5780633f4ba83a1461020757806340c10f19146102115780635c975abb1461022457600080fd5b806306fdde0314610152578063095ea7b314610170578063158ef93e1461019357806316f0115b146101a557806318160ddd146101ca575b600080fd5b61015a61031a565b6040516101679190610deb565b60405180910390f35b61018361017e366004610e55565b6103ac565b6040519015158152602001610167565b600554600160a81b900460ff16610183565b6006546001600160a01b03165b6040516001600160a01b039091168152602001610167565b6002545b604051908152602001610167565b6101836101ea366004610e7f565b6103c6565b60405160128152602001610167565b6101ce60001981565b61020f610452565b005b61020f61021f366004610e55565b610464565b60055460ff16610183565b60016101ce565b6101ce610244366004610ebb565b6001600160a01b031660009081526020819052604090205490565b61020f6105f1565b61020f610603565b60055461010090046001600160a01b03166101b2565b61015a610613565b61020f61029b366004610e55565b610622565b6101836102ae366004610e55565b6107a6565b6101ce600181565b61020f6102c9366004610ebb565b610807565b6101ce6102dc366004610ed6565b6001600160a01b03918216600090815260016020908152604080832093909416825291909152205490565b61020f610315366004610ebb565b6108be565b60606003805461032990610f09565b80601f016020809104026020016040519081016040528092919081815260200182805461035590610f09565b80156103a25780601f10610377576101008083540402835291602001916103a2565b820191906000526020600020905b81548152906001019060200180831161038557829003601f168201915b5050505050905090565b6000336103ba8185856108fc565b60019150505b92915050565b60006103d061090e565b600182101561043f57826001600160a01b0316846001600160a01b03167f11fa32abca54cea9e42543564c8e59c2f3a9746185b0ec8862fd61fc7488ee068460405161041e91815260200190565b60405180910390a36040516315834dd160e11b815260040160405180910390fd5b61044a848484610932565b949350505050565b61045a610956565b610462610989565b565b600554600160a81b900460ff1661048e576040516321c4e35760e21b815260040160405180910390fd5b6006546001600160a01b031633146104b95760405163e921159760e01b815260040160405180910390fd5b6001600160a01b0382166105085760405162461bcd60e51b8152602060048201526011602482015270125b9d985b1a59081c9958da5c1a595b9d607a1b60448201526064015b60405180910390fd5b600081116105465760405162461bcd60e51b815260206004820152600b60248201526a16995c9bc8185b5bdd5b9d60aa1b60448201526064016104ff565b6000198161055360025490565b61055d9190610f43565b11156105a05760405162461bcd60e51b815260206004820152601260248201527145786365656473206d617820737570706c7960701b60448201526064016104ff565b6105aa82826109db565b816001600160a01b03167fb9144c96c86541f6fa89c9f2f02495cccf4b08cd6643e26d34ee00aa586558a8826040516105e591815260200190565b60405180910390a25050565b6105f9610956565b6104626000610a15565b61060b610956565b610462610a6f565b60606004805461032990610f09565b600554600160a81b900460ff1661064c576040516321c4e35760e21b815260040160405180910390fd5b6006546001600160a01b031633146106775760405163e921159760e01b815260040160405180910390fd5b6001600160a01b0382166106be5760405162461bcd60e51b815260206004820152600e60248201526d24b73b30b634b21039b2b73232b960911b60448201526064016104ff565b600081116106fc5760405162461bcd60e51b815260206004820152600b60248201526a16995c9bc8185b5bdd5b9d60aa1b60448201526064016104ff565b8061071c836001600160a01b031660009081526020819052604090205490565b10156107615760405162461bcd60e51b8152602060048201526014602482015273496e73756666696369656e742062616c616e636560601b60448201526064016104ff565b61076b8282610aac565b816001600160a01b03167f1af5163f80e79b5e554f61e1d052084d3a3fe1166e42a265798c4e2ddce8ffa2826040516105e591815260200190565b60006107b061090e565b60018210156107f6576040518281526001600160a01b0384169033907f11fa32abca54cea9e42543564c8e59c2f3a9746185b0ec8862fd61fc7488ee069060200161041e565b6108008383610ae2565b9392505050565b61080f610956565b600554600160a81b900460ff16156108395760405162dc149f60e41b815260040160405180910390fd5b6001600160a01b0381166108605760405163d92e233d60e01b815260040160405180910390fd5b600680546001600160a01b0383166001600160a01b031990911681179091556005805460ff60a81b1916600160a81b1790556040517f025f89b99c8ce32af8da7624f4575b920a86ebf07870d85a9fb545fee349ddce90600090a250565b6108c6610956565b6001600160a01b0381166108f057604051631e4fbdf760e01b8152600060048201526024016104ff565b6108f981610a15565b50565b6109098383836001610af0565b505050565b60055460ff16156104625760405163d93c066560e01b815260040160405180910390fd5b600033610940858285610bc6565b61094b858585610c3f565b506001949350505050565b6005546001600160a01b036101009091041633146104625760405163118cdaa760e01b81523360048201526024016104ff565b610991610c9e565b6005805460ff191690557f5db9ee0a495bf2e6ff9c91a7834c1ba4fdd244a5e8aa4e537bd38aeae4b073aa335b6040516001600160a01b03909116815260200160405180910390a1565b6001600160a01b038216610a055760405163ec442f0560e01b8152600060048201526024016104ff565b610a1160008383610cc1565b5050565b600580546001600160a01b03838116610100818102610100600160a81b031985161790945560405193909204169182907f8be0079c531659141344cd1fd0a4f28419497f9722a3daafe3b4186f6b6457e090600090a35050565b610a7761090e565b6005805460ff191660011790557f62e78cea01bee320cd4e420270b5ea74000d11b0c9f74754ebdbfc544b05a2586109be3390565b6001600160a01b038216610ad657604051634b637e8f60e11b8152600060048201526024016104ff565b610a1182600083610cc1565b6000336103ba818585610c3f565b6001600160a01b038416610b1a5760405163e602df0560e01b8152600060048201526024016104ff565b6001600160a01b038316610b4457604051634a1406b160e11b8152600060048201526024016104ff565b6001600160a01b0380851660009081526001602090815260408083209387168352929052208290558015610bc057826001600160a01b0316846001600160a01b03167f8c5be1e5ebec7d5bd14f71427d1e84f3dd0314c0f7b2291e5b200ac8c7c3b92584604051610bb791815260200190565b60405180910390a35b50505050565b6001600160a01b03838116600090815260016020908152604080832093861683529290522054600019811015610bc05781811015610c3057604051637dc7a0d960e11b81526001600160a01b038416600482015260248101829052604481018390526064016104ff565b610bc084848484036000610af0565b6001600160a01b038316610c6957604051634b637e8f60e11b8152600060048201526024016104ff565b6001600160a01b038216610c935760405163ec442f0560e01b8152600060048201526024016104ff565b610909838383610cc1565b60055460ff1661046257604051638dfc202b60e01b815260040160405180910390fd5b6001600160a01b038316610cec578060026000828254610ce19190610f43565b90915550610d5e9050565b6001600160a01b03831660009081526020819052604090205481811015610d3f5760405163391434e360e21b81526001600160a01b038516600482015260248101829052604481018390526064016104ff565b6001600160a01b03841660009081526020819052604090209082900390555b6001600160a01b038216610d7a57600280548290039055610d99565b6001600160a01b03821660009081526020819052604090208054820190555b816001600160a01b0316836001600160a01b03167fddf252ad1be2c89b69c2b068fc378daa952ba7f163c4a11628f55a4df523b3ef83604051610dde91815260200190565b60405180910390a3505050565b600060208083528351808285015260005b81811015610e1857858101830151858201604001528201610dfc565b506000604082860101526040601f19601f8301168501019250505092915050565b80356001600160a01b0381168114610e5057600080fd5b919050565b60008060408385031215610e6857600080fd5b610e7183610e39565b946020939093013593505050565b600080600060608486031215610e9457600080fd5b610e9d84610e39565b9250610eab60208501610e39565b9150604084013590509250925092565b600060208284031215610ecd57600080fd5b61080082610e39565b60008060408385031215610ee957600080fd5b610ef283610e39565b9150610f0060208401610e39565b90509250929050565b600181811c90821680610f1d57607f821691505b602082108103610f3d57634e487b7160e01b600052602260045260246000fd5b50919050565b808201808211156103c057634e487b7160e01b600052601160045260246000fdfea2646970667358221220d40121e732516bf6cbb948cdc5d56a50c699a8e73ff56adfebf356657051ff5a64736f6c63430008140033",
  "linkReferences": {},
  "deployedLinkReferences": {}
}