{
  "_format": "hh-sol-artifact-1",
  "contractName": "Pool",
  "sourceName": "backend/contracts/Pool.sol",
  "abi": [
    {
      "inputs": [
        {
          "internalType": "address",
          "name": "token0",
          "type": "address"
        },
        {
          "internalType": "address",
          "name": "token1",
          "type": "address"
        }
      ],
      "stateMutability": "nonpayable",
      "type": "constructor"
    },
    {
      "inputs": [
        {
          "internalType": "address",
          "name": "spender",
          "type": "address"
        },
        {
          "internalType": "uint256",
          "name": "allowance",
          "type": "uint256"
        },
        {
          "internalType": "uint256",
          "name": "needed",
          "type": "uint256"
        }
      ],
      "name": "ERC20InsufficientAllowance",
      "type": "error"
    },
    {
      "inputs": [
        {
          "internalType": "address",
          "name": "sender",
          "type": "address"
        },
        {
          "internalType": "uint256",
          "name": "balance",
          "type": "uint256"
        },
        {
          "internalType": "uint256",
          "name": "needed",
          "type": "uint256"
        }
      ],
      "name": "ERC20InsufficientBalance",
      "type": "error"
    },
    {
      "inputs": [
        {
          "internalType": "address",
          "name": "approver",
          "type": "address"
        }
      ],
      "name": "ERC20InvalidApprover",
      "type": "error"
    },
    {
      "inputs": [
        {
          "internalType": "address",
          "name": "receiver",
          "type": "address"
        }
      ],
      "name": "ERC20InvalidReceiver",
      "type": "error"
    },
    {
      "inputs": [
        {
          "internalType": "address",
          "name": "sender",
          "type": "address"
        }
      ],
      "name": "ERC20InvalidSender",
      "type": "error"
    },
    {
      "inputs": [
        {
          "internalType": "address",
          "name": "spender",
          "type": "address"
        }
      ],
      "name": "ERC20InvalidSpender",
      "type": "error"
    },
    {
      "inputs": [],
      "name": "ReentrancyGuardReentrantCall",
      "type": "error"
    },
    {
      "anonymous": false,
      "inputs": [
        {
          "indexed": true,
          "internalType": "uint256",
          "name": "lpToken",
          "type": "uint256"
        },
        {
          "indexed": false,
          "internalType": "address",
          "name": "token0",
          "type": "address"
        },
        {
          "indexed": true,
          "internalType": "uint256",
          "name": "amount0",
          "type": "uint256"
        },
        {
          "indexed": false,
          "internalType": "address",
          "name": "token1",
          "type": "address"
        },
        {
          "indexed": true,
          "internalType": "uint256",
          "name": "amount1",
          "type": "uint256"
        }
      ],
      "name": "AddedLiquidity",
      "type": "event"
    },
    {
      "anonymous": false,
      "inputs": [
        {
          "indexed": true,
          "internalType": "address",
          "name": "owner",
          "type": "address"
        },
        {
          "indexed": true,
          "internalType": "address",
          "name": "spender",
          "type": "address"
        },
        {
          "indexed": false,
          "internalType": "uint256",
          "name": "value",
          "type": "uint256"
        }
      ],
      "name": "Approval",
      "type": "event"
    },
    {
      "anonymous": false,
      "inputs": [
        {
          "indexed": true,
          "internalType": "uint256",
          "name": "lpToken",
          "type": "uint256"
        },
        {
          "indexed": false,
          "internalType": "address",
          "name": "token0",
          "type": "address"
        },
        {
          "indexed": true,
          "internalType": "uint256",
          "name": "amount0",
          "type": "uint256"
        },
        {
          "indexed": false,
          "internalType": "address",
          "name": "token1",
          "type": "address"
        },
        {
          "indexed": true,
          "internalType": "uint256",
          "name": "amount1",
          "type": "uint256"
        }
      ],
      "name": "RemovedLiquidity",
      "type": "event"
    },
    {
      "anonymous": false,
      "inputs": [
        {
          "indexed": false,
          "internalType": "address",
          "name": "tokenIn",
          "type": "address"
        },
        {
          "indexed": true,
          "internalType": "uint256",
          "name": "amountIn",
          "type": "uint256"
        },
        {
          "indexed": false,
          "internalType": "address",
          "name": "tokenOut",
          "type": "address"
        },
        {
          "indexed": true,
          "internalType": "uint256",
          "name": "amountOut",
          "type": "uint256"
        }
      ],
      "name": "Swapped",
      "type": "event"
    },
    {
      "anonymous": false,
      "inputs": [
        {
          "indexed": true,
          "internalType": "address",
          "name": "from",
          "type": "address"
        },
        {
          "indexed": true,
          "internalType": "address",
          "name": "to",
          "type": "address"
        },
        {
          "indexed": false,
          "internalType": "uint256",
          "name": "value",
          "type": "uint256"
        }
      ],
      "name": "Transfer",
      "type": "event"
    },
    {
      "inputs": [],
      "name": "FEE_DENOMINATOR",
      "outputs": [
        {
          "internalType": "uint256",
          "name": "",
          "type": "uint256"
        }
      ],
      "stateMutability": "view",
      "type": "function"
    },
    {
      "inputs": [],
      "name": "FEE_PERCENTAGE",
      "outputs": [
        {
          "internalType": "uint256",
          "name": "",
          "type": "uint256"
        }
      ],
      "stateMutability": "view",
      "type": "function"
    },
    {
      "inputs": [
        {
          "internalType": "uint256",
          "name": "amount0",
          "type": "uint256"
        }
      ],
      "name": "addLiquidity",
      "outputs": [],
      "stateMutability": "nonpayable",
      "type": "function"
    },
    {
      "inputs": [
        {
          "internalType": "address",
          "name": "owner",
          "type": "address"
        },
        {
          "internalType": "address",
          "name": "spender",
          "type": "address"
        }
      ],
      "name": "allowance",
      "outputs": [
        {
          "internalType": "uint256",
          "name": "",
          "type": "uint256"
        }
      ],
      "stateMutability": "view",
      "type": "function"
    },
    {
      "inputs": [
        {
          "internalType": "address",
          "name": "spender",
          "type": "address"
        },
        {
          "internalType": "uint256",
          "name": "value",
          "type": "uint256"
        }
      ],
      "name": "approve",
      "outputs": [
        {
          "internalType": "bool",
          "name": "",
          "type": "bool"
        }
      ],
      "stateMutability": "nonpayable",
      "type": "function"
    },
    {
      "inputs": [
        {
          "internalType": "address",
          "name": "account",
          "type": "address"
        }
      ],
      "name": "balanceOf",
      "outputs": [
        {
          "internalType": "uint256",
          "name": "",
          "type": "uint256"
        }
      ],
      "stateMutability": "view",
      "type": "function"
    },
    {
      "inputs": [],
      "name": "claimRewards",
      "outputs": [],
      "stateMutability": "nonpayable",
      "type": "function"
    },
    {
      "inputs": [],
      "name": "decimals",
      "outputs": [
        {
          "internalType": "uint8",
          "name": "",
          "type": "uint8"
        }
      ],
      "stateMutability": "view",
      "type": "function"
    },
    {
      "inputs": [
        {
          "internalType": "address",
          "name": "tokenIn",
          "type": "address"
        },
        {
          "internalType": "uint256",
          "name": "amountIn",
          "type": "uint256"
        },
        {
          "internalType": "address",
          "name": "tokenOut",
          "type": "address"
        }
      ],
      "name": "getAmountOut",
      "outputs": [
        {
          "internalType": "uint256",
          "name": "",
          "type": "uint256"
        }
      ],
      "stateMutability": "view",
      "type": "function"
    },
    {
      "inputs": [
        {
          "internalType": "address",
          "name": "provider",
          "type": "address"
        }
      ],
      "name": "getLiquidityContribution",
      "outputs": [
        {
          "internalType": "uint256",
          "name": "lpBalance",
          "type": "uint256"
        },
        {
          "internalType": "uint256",
          "name": "totalLPSupply",
          "type": "uint256"
        },
        {
          "internalType": "uint256",
          "name": "contribution",
          "type": "uint256"
        }
      ],
      "stateMutability": "view",
      "type": "function"
    },
    {
      "inputs": [
        {
          "internalType": "uint256",
          "name": "amount0",
          "type": "uint256"
        }
      ],
      "name": "getRequiredAmount1",
      "outputs": [
        {
          "internalType": "uint256",
          "name": "",
          "type": "uint256"
        }
      ],
      "stateMutability": "view",
      "type": "function"
    },
    {
      "inputs": [],
      "name": "getReserves",
      "outputs": [
        {
          "internalType": "uint256",
          "name": "",
          "type": "uint256"
        },
        {
          "internalType": "uint256",
          "name": "",
          "type": "uint256"
        }
      ],
      "stateMutability": "view",
      "type": "function"
    },
    {
      "inputs": [
        {
          "internalType": "address",
          "name": "provider",
          "type": "address"
        }
      ],
      "name": "getRewardInfo",
      "outputs": [
        {
          "internalType": "uint256",
          "name": "currentRewards",
          "type": "uint256"
        },
        {
          "internalType": "uint256",
          "name": "lpBalance",
          "type": "uint256"
        },
        {
          "internalType": "uint256",
          "name": "contribution",
          "type": "uint256"
        }
      ],
      "stateMutability": "view",
      "type": "function"
    },
    {
      "inputs": [
        {
          "internalType": "address",
          "name": "account",
          "type": "address"
        }
      ],
      "name": "getRewards",
      "outputs": [
        {
          "internalType": "uint256",
          "name": "",
          "type": "uint256"
        }
      ],
      "stateMutability": "view",
      "type": "function"
    },
    {
      "inputs": [
        {
          "internalType": "address",
          "name": "",
          "type": "address"
        }
      ],
      "name": "isLiquidityProvider",
      "outputs": [
        {
          "internalType": "bool",
          "name": "",
          "type": "bool"
        }
      ],
      "stateMutability": "view",
      "type": "function"
    },
    {
      "inputs": [
        {
          "internalType": "uint256",
          "name": "",
          "type": "uint256"
        }
      ],
      "name": "liquidityProviders",
      "outputs": [
        {
          "internalType": "address",
          "name": "",
          "type": "address"
        }
      ],
      "stateMutability": "view",
      "type": "function"
    },
    {
      "inputs": [],
      "name": "name",
      "outputs": [
        {
          "internalType": "string",
          "name": "",
          "type": "string"
        }
      ],
      "stateMutability": "view",
      "type": "function"
    },
    {
      "inputs": [
        {
          "internalType": "uint256",
          "name": "lpAmount",
          "type": "uint256"
        }
      ],
      "name": "removeLiquidity",
      "outputs": [],
      "stateMutability": "nonpayable",
      "type": "function"
    },
    {
      "inputs": [
        {
          "internalType": "address",
          "name": "",
          "type": "address"
        }
      ],
      "name": "rewards",
      "outputs": [
        {
          "internalType": "uint256",
          "name": "",
          "type": "uint256"
        }
      ],
      "stateMutability": "view",
      "type": "function"
    },
    {
      "inputs": [
        {
          "internalType": "address",
          "name": "tokenIn",
          "type": "address"
        },
        {
          "internalType": "uint256",
          "name": "amountIn",
          "type": "uint256"
        },
        {
          "internalType": "address",
          "name": "tokenOut",
          "type": "address"
        }
      ],
      "name": "swap",
      "outputs": [],
      "stateMutability": "nonpayable",
      "type": "function"
    },
    {
      "inputs": [],
      "name": "symbol",
      "outputs": [
        {
          "internalType": "string",
          "name": "",
          "type": "string"
        }
      ],
      "stateMutability": "view",
      "type": "function"
    },
    {
      "inputs": [],
      "name": "totalSupply",
      "outputs": [
        {
          "internalType": "uint256",
          "name": "",
          "type": "uint256"
        }
      ],
      "stateMutability": "view",
      "type": "function"
    },
    {
      "inputs": [
        {
          "internalType": "address",
          "name": "to",
          "type": "address"
        },
        {
          "internalType": "uint256",
          "name": "value",
          "type": "uint256"
        }
      ],
      "name": "transfer",
      "outputs": [
        {
          "internalType": "bool",
          "name": "",
          "type": "bool"
        }
      ],
      "stateMutability": "nonpayable",
      "type": "function"
    },
    {
      "inputs": [
        {
          "internalType": "address",
          "name": "from",
          "type": "address"
        },
        {
          "internalType": "address",
          "name": "to",
          "type": "address"
        },
        {
          "internalType": "uint256",
          "name": "value",
          "type": "uint256"
        }
      ],
      "name": "transferFrom",
      "outputs": [
        {
          "internalType": "bool",
          "name": "",
          "type": "bool"
        }
      ],
      "stateMutability": "nonpayable",
      "type": "function"
    }
  ],
  "bytecode": "0x6101006040523480156200001257600080fd5b5060405162002081380380620020818339810160408190526200003591620000e0565b6040518060400160405280600781526020016626282a37b5b2b760c91b8152506040518060400160405280600381526020016213141560ea1b81525081818160039081620000849190620001bd565b506004620000938282620001bd565b505060016005555050506001600160a01b039182166080819052911660a081905260c09190915260e05262000289565b80516001600160a01b0381168114620000db57600080fd5b919050565b60008060408385031215620000f457600080fd5b620000ff83620000c3565b91506200010f60208401620000c3565b90509250929050565b634e487b7160e01b600052604160045260246000fd5b600181811c908216806200014357607f821691505b6020821081036200016457634e487b7160e01b600052602260045260246000fd5b50919050565b601f821115620001b857600081815260208120601f850160051c81016020861015620001935750805b601f850160051c820191505b81811015620001b4578281556001016200019f565b5050505b505050565b81516001600160401b03811115620001d957620001d962000118565b620001f181620001ea84546200012e565b846200016a565b602080601f831160018114620002295760008415620002105750858301515b600019600386901b1c1916600185901b178555620001b4565b600085815260208120601f198616915b828110156200025a5788860151825594840194600190910190840162000239565b5085821015620002795787850151600019600388901b60f8161c191681555b5050505050600190811b01905550565b60805160a05160c05160e051611d326200034f6000396000818161022a0152818161094701528181610aa801528181610ba101528181610c4e01528181610f8d01528181611147015281816111f3015261154b0152600081816101f7015281816106130152818161081e0152818161099f01528181610a8301528181610b6601528181610c1301528181610f5a015281816110f4015281816111a60152611526015260008181610883015261132801526000818161075a01526112520152611d326000f3fe608060405234801561001057600080fd5b50600436106101575760003560e01c80636d069a67116100c357806399f7854a1161007c57806399f7854a1461037b5780639c8f9f231461039e578063a9059cbb146103b1578063d73792a9146103c4578063dd62ed3e146103cd578063ff9c8ac61461040657600080fd5b80636d069a67146102d057806370a08231146102e357806379ee54f71461030c578063929f8c751461033557806395d89b4114610348578063962129161461035057600080fd5b8063095ea7b311610115578063095ea7b31461026657806318160ddd1461028957806323b872dd14610291578063313ce567146102a4578063372500ab146102b357806351c6590a146102bd57600080fd5b80620b46f81461015c57806301f3091e1461017757806306032d74146101a557806306fdde03146101b85780630700037d146101cd5780630902f1ac146101ed575b600080fd5b610164606481565b6040519081526020015b60405180910390f35b61018a610185366004611a88565b610419565b6040805193845260208401929092529082015260600161016e565b61018a6101b3366004611a88565b61047b565b6101c06104ab565b60405161016e9190611aaa565b6101646101db366004611a88565b60076020526000908152604090205481565b6001600160a01b037f00000000000000000000000000000000000000000000000000000000000000008116600090815260066020526040808220547f000000000000000000000000000000000000000000000000000000000000000090931682529020546040805192835260208301919091520161016e565b610279610274366004611af8565b61053d565b604051901515815260200161016e565b600254610164565b61027961029f366004611b22565b610557565b6040516012815260200161016e565b6102bb61057b565b005b6102bb6102cb366004611b5e565b6106d2565b6102bb6102de366004611b77565b610b0d565b6101646102f1366004611a88565b6001600160a01b031660009081526020819052604090205490565b61016461031a366004611a88565b6001600160a01b031660009081526007602052604090205490565b610164610343366004611b5e565b610f50565b6101c0610fef565b61036361035e366004611b5e565b610ffe565b6040516001600160a01b03909116815260200161016e565b610279610389366004611a88565b60086020526000908152604090205460ff1681565b6102bb6103ac366004611b5e565b611028565b6102796103bf366004611af8565b6115ae565b61016461271081565b6101646103db366004611bb3565b6001600160a01b03918216600090815260016020908152604080832093909416825291909152205490565b610164610414366004611b77565b6115bc565b600080600061043d846001600160a01b031660009081526020819052604090205490565b925061044860025490565b91508160000361045a57506000610474565b8161046784612710611bfc565b6104719190611c13565b90505b9193909250565b6001600160a01b038116600090815260076020526040812054908061049f84610419565b94969195509092505050565b6060600380546104ba90611c35565b80601f01602080910402602001604051908101604052809291908181526020018280546104e690611c35565b80156105335780601f1061050857610100808354040283529160200191610533565b820191906000526020600020905b81548152906001019060200180831161051657829003601f168201915b5050505050905090565b60003361054b81858561160c565b60019150505b92915050565b600033610565858285611619565b610570858585611698565b506001949350505050565b6105836116f7565b33600090815260076020526040902054806105db5760405162461bcd60e51b81526020600482015260136024820152724e6f207265776172647320746f20636c61696d60681b60448201526064015b60405180910390fd5b33600081815260076020526040808220919091555163a9059cbb60e01b81526004810191909152602481018290526001600160a01b037f0000000000000000000000000000000000000000000000000000000000000000169063a9059cbb906044016020604051808303816000875af115801561065c573d6000803e3d6000fd5b505050506040513d601f19601f820116820180604052508101906106809190611c6f565b6106c55760405162461bcd60e51b815260206004820152601660248201527514995dd85c99081d1c985b9cd9995c8819985a5b195960521b60448201526064016105d2565b506106d06001600555565b565b6106da6116f7565b6000811161072a5760405162461bcd60e51b815260206004820152601d60248201527f416d6f756e74206d7573742062652067726561746572207468616e203000000060448201526064016105d2565b600061073582610f50565b6040516323b872dd60e01b8152336004820152306024820152604481018490529091507f00000000000000000000000000000000000000000000000000000000000000006001600160a01b0316906323b872dd906064016020604051808303816000875af11580156107ab573d6000803e3d6000fd5b505050506040513d601f19601f820116820180604052508101906107cf9190611c6f565b6108145760405162461bcd60e51b8152602060048201526016602482015275151c985b9cd9995c881d1bdad95b8c0819985a5b195960521b60448201526064016105d2565b6001600160a01b037f0000000000000000000000000000000000000000000000000000000000000000166000908152600660205260408120805484929061085c908490611c91565b90915550506040516323b872dd60e01b8152336004820152306024820152604481018290527f00000000000000000000000000000000000000000000000000000000000000006001600160a01b0316906323b872dd906064016020604051808303816000875af11580156108d4573d6000803e3d6000fd5b505050506040513d601f19601f820116820180604052508101906108f89190611c6f565b61093d5760405162461bcd60e51b8152602060048201526016602482015275151c985b9cd9995c881d1bdad95b8c4819985a5b195960521b60448201526064016105d2565b6001600160a01b037f00000000000000000000000000000000000000000000000000000000000000001660009081526006602052604081208054839290610985908490611c91565b90915550829050600061099760025490565b11156109f4577f00000000000000000000000000000000000000000000000000000000000000006001600160a01b03166000908152600660205260409020546002546109e39085611bfc565b6109ed9190611c13565b90506109f7565b50815b610a013382611721565b3360009081526008602052604090205460ff16610a7557336000818152600860205260408120805460ff191660019081179091556009805491820181559091527f6e1540171b6c0c960b71a7020d9f60077f6af931a8bbf590da0223dacf75c7af0180546001600160a01b03191690911790555b604080516001600160a01b037f0000000000000000000000000000000000000000000000000000000000000000811682527f00000000000000000000000000000000000000000000000000000000000000001660208201528391859184917f86c3929a230b573aa47cd83759aed11b800d147abc23e246dfeb5ebbd7a110e3910160405180910390a45050610b0a6001600555565b50565b610b156116f7565b806001600160a01b0316836001600160a01b031603610b645760405162461bcd60e51b815260206004820152600b60248201526a53616d6520746f6b656e7360a81b60448201526064016105d2565b7f00000000000000000000000000000000000000000000000000000000000000006001600160a01b0316836001600160a01b03161480610bd557507f00000000000000000000000000000000000000000000000000000000000000006001600160a01b0316836001600160a01b0316145b610c115760405162461bcd60e51b815260206004820152600d60248201526c24b73b30b634b2103a37b5b2b760991b60448201526064016105d2565b7f00000000000000000000000000000000000000000000000000000000000000006001600160a01b0316816001600160a01b03161480610c8257507f00000000000000000000000000000000000000000000000000000000000000006001600160a01b0316816001600160a01b0316145b610cbe5760405162461bcd60e51b815260206004820152600d60248201526c24b73b30b634b2103a37b5b2b760991b60448201526064016105d2565b60008211610cfc5760405162461bcd60e51b815260206004820152600b60248201526a16995c9bc8185b5bdd5b9d60aa1b60448201526064016105d2565b6000612710610d0c606485611bfc565b610d169190611c13565b90506000610d248285611ca4565b90506000610d338683866115bc565b6040516323b872dd60e01b8152336004820152306024820152604481018790529091506001600160a01b038716906323b872dd906064016020604051808303816000875af1158015610d89573d6000803e3d6000fd5b505050506040513d601f19601f82011682018060405250810190610dad9190611c6f565b610de75760405162461bcd60e51b815260206004820152600b60248201526a14ddd85c0811985a5b195960aa1b60448201526064016105d2565b60405163a9059cbb60e01b8152336004820152602481018290526001600160a01b0385169063a9059cbb906044016020604051808303816000875af1158015610e34573d6000803e3d6000fd5b505050506040513d601f19601f82011682018060405250810190610e589190611c6f565b610e925760405162461bcd60e51b815260206004820152600b60248201526a14ddd85c0811985a5b195960aa1b60448201526064016105d2565b6001600160a01b03861660009081526006602052604081208054849290610eba908490611c91565b90915550506001600160a01b03841660009081526006602052604081208054839290610ee7908490611ca4565b90915550610ef79050868461175b565b604080516001600160a01b03808916825286166020820152829187917fdb587d878116df0bdd4fe154699aa2c5f439da001cc811dfd05d9f589fc5a8ee910160405180910390a3505050610f4b6001600555565b505050565b6001600160a01b037f00000000000000000000000000000000000000000000000000000000000000008116600090815260066020526040808220547f00000000000000000000000000000000000000000000000000000000000000009093168252812054909190811580610fc2575080155b15610fda57610fd2600285611bfc565b949350505050565b81610fe58286611bfc565b610fd29190611c13565b6060600480546104ba90611c35565b6009818154811061100e57600080fd5b6000918252602090912001546001600160a01b0316905081565b6110306116f7565b600081116110805760405162461bcd60e51b815260206004820152601d60248201527f416d6f756e74206d7573742062652067726561746572207468616e203000000060448201526064016105d2565b336000908152602081905260409020548111156110df5760405162461bcd60e51b815260206004820152601d60248201527f496e73756666696369656e74204c5020746f6b656e2062616c616e636500000060448201526064016105d2565b60006110ea60025490565b6001600160a01b037f0000000000000000000000000000000000000000000000000000000000000000166000908152600660205260408120549192509082906111339085611bfc565b61113d9190611c13565b6001600160a01b037f0000000000000000000000000000000000000000000000000000000000000000166000908152600660205260408120549192509083906111869086611bfc565b6111909190611c13565b905061119c3385611837565b6001600160a01b037f000000000000000000000000000000000000000000000000000000000000000016600090815260066020526040812080548492906111e4908490611ca4565b90915550506001600160a01b037f00000000000000000000000000000000000000000000000000000000000000001660009081526006602052604081208054839290611231908490611ca4565b909155505060405163a9059cbb60e01b8152336004820152602481018390527f00000000000000000000000000000000000000000000000000000000000000006001600160a01b03169063a9059cbb906044016020604051808303816000875af11580156112a3573d6000803e3d6000fd5b505050506040513d601f19601f820116820180604052508101906112c79190611c6f565b61130c5760405162461bcd60e51b8152602060048201526016602482015275151c985b9cd9995c881d1bdad95b8c0819985a5b195960521b60448201526064016105d2565b60405163a9059cbb60e01b8152336004820152602481018290527f00000000000000000000000000000000000000000000000000000000000000006001600160a01b03169063a9059cbb906044016020604051808303816000875af1158015611379573d6000803e3d6000fd5b505050506040513d601f19601f8201168201806040525081019061139d9190611c6f565b6113e25760405162461bcd60e51b8152602060048201526016602482015275151c985b9cd9995c881d1bdad95b8c4819985a5b195960521b60448201526064016105d2565b3360009081526020819052604090205460000361151857336000908152600860205260408120805460ff191690555b60095481101561151657336001600160a01b03166009828154811061143857611438611cb7565b6000918252602090912001546001600160a01b031603611504576009805461146290600190611ca4565b8154811061147257611472611cb7565b600091825260209091200154600980546001600160a01b03909216918390811061149e5761149e611cb7565b9060005260206000200160006101000a8154816001600160a01b0302191690836001600160a01b0316021790555060098054806114dd576114dd611ccd565b600082815260209020810160001990810180546001600160a01b0319169055019055611516565b8061150e81611ce3565b915050611411565b505b604080516001600160a01b037f0000000000000000000000000000000000000000000000000000000000000000811682527f00000000000000000000000000000000000000000000000000000000000000001660208201528291849187917f47a132e4e9e9fd057fafaf86c87eac1f1beb455bf20382505e83022d97163379910160405180910390a4505050610b0a6001600555565b60003361054b818585611698565b6001600160a01b03808216600090815260066020526040808220549286168252812054909190826115ed8683611c91565b6115f78785611bfc565b6116019190611c13565b979650505050505050565b610f4b838383600161186d565b6001600160a01b03838116600090815260016020908152604080832093861683529290522054600019811015611692578181101561168357604051637dc7a0d960e11b81526001600160a01b038416600482015260248101829052604481018390526064016105d2565b6116928484848403600061186d565b50505050565b6001600160a01b0383166116c257604051634b637e8f60e11b8152600060048201526024016105d2565b6001600160a01b0382166116ec5760405163ec442f0560e01b8152600060048201526024016105d2565b610f4b838383611942565b60026005540361171a57604051633ee5aeb560e01b815260040160405180910390fd5b6002600555565b6001600160a01b03821661174b5760405163ec442f0560e01b8152600060048201526024016105d2565b61175760008383611942565b5050565b600061176660025490565b90508060000361177557505050565b8160005b6009548110156118305760006009828154811061179857611798611cb7565b60009182526020822001546001600160a01b031691506117cd826001600160a01b031660009081526020819052604090205490565b90506000856117dc8684611bfc565b6117e69190611c13565b6001600160a01b038416600090815260076020526040812080549293508392909190611813908490611c91565b92505081905550505050808061182890611ce3565b915050611779565b5050505050565b6001600160a01b03821661186157604051634b637e8f60e11b8152600060048201526024016105d2565b61175782600083611942565b6001600160a01b0384166118975760405163e602df0560e01b8152600060048201526024016105d2565b6001600160a01b0383166118c157604051634a1406b160e11b8152600060048201526024016105d2565b6001600160a01b038085166000908152600160209081526040808320938716835292905220829055801561169257826001600160a01b0316846001600160a01b03167f8c5be1e5ebec7d5bd14f71427d1e84f3dd0314c0f7b2291e5b200ac8c7c3b9258460405161193491815260200190565b60405180910390a350505050565b6001600160a01b03831661196d5780600260008282546119629190611c91565b909155506119df9050565b6001600160a01b038316600090815260208190526040902054818110156119c05760405163391434e360e21b81526001600160a01b038516600482015260248101829052604481018390526064016105d2565b6001600160a01b03841660009081526020819052604090209082900390555b6001600160a01b0382166119fb57600280548290039055611a1a565b6001600160a01b03821660009081526020819052604090208054820190555b816001600160a01b0316836001600160a01b03167fddf252ad1be2c89b69c2b068fc378daa952ba7f163c4a11628f55a4df523b3ef83604051611a5f91815260200190565b60405180910390a3505050565b80356001600160a01b0381168114611a8357600080fd5b919050565b600060208284031215611a9a57600080fd5b611aa382611a6c565b9392505050565b600060208083528351808285015260005b81811015611ad757858101830151858201604001528201611abb565b506000604082860101526040601f19601f8301168501019250505092915050565b60008060408385031215611b0b57600080fd5b611b1483611a6c565b946020939093013593505050565b600080600060608486031215611b3757600080fd5b611b4084611a6c565b9250611b4e60208501611a6c565b9150604084013590509250925092565b600060208284031215611b7057600080fd5b5035919050565b600080600060608486031215611b8c57600080fd5b611b9584611a6c565b925060208401359150611baa60408501611a6c565b90509250925092565b60008060408385031215611bc657600080fd5b611bcf83611a6c565b9150611bdd60208401611a6c565b90509250929050565b634e487b7160e01b600052601160045260246000fd5b808202811582820484141761055157610551611be6565b600082611c3057634e487b7160e01b600052601260045260246000fd5b500490565b600181811c90821680611c4957607f821691505b602082108103611c6957634e487b7160e01b600052602260045260246000fd5b50919050565b600060208284031215611c8157600080fd5b81518015158114611aa357600080fd5b8082018082111561055157610551611be6565b8181038181111561055157610551611be6565b634e487b7160e01b600052603260045260246000fd5b634e487b7160e01b600052603160045260246000fd5b600060018201611cf557611cf5611be6565b506001019056fea264697066735822122037906d6e2fa45ab897d21998c7693f4e0cef76a354edf804cb195b274e4a016964736f6c63430008140033",
  "linkReferences": {},
  "deployedLinkReferences": {}
}