{
  "_format": "hh-sol-artifact-1",
  "contractName": "Pool",
  "sourceName": "backend/contracts/Pool.sol",
  "abi": [
    {
      "inputs": [
        {
          "internalType": "address",
          "name": "token0",
          "type": "address"
        },
        {
          "internalType": "address",
          "name": "token1",
          "type": "address"
        }
      ],
      "stateMutability": "nonpayable",
      "type": "constructor"
    },
    {
      "inputs": [
        {
          "internalType": "address",
          "name": "spender",
          "type": "address"
        },
        {
          "internalType": "uint256",
          "name": "allowance",
          "type": "uint256"
        },
        {
          "internalType": "uint256",
          "name": "needed",
          "type": "uint256"
        }
      ],
      "name": "ERC20InsufficientAllowance",
      "type": "error"
    },
    {
      "inputs": [
        {
          "internalType": "address",
          "name": "sender",
          "type": "address"
        },
        {
          "internalType": "uint256",
          "name": "balance",
          "type": "uint256"
        },
        {
          "internalType": "uint256",
          "name": "needed",
          "type": "uint256"
        }
      ],
      "name": "ERC20InsufficientBalance",
      "type": "error"
    },
    {
      "inputs": [
        {
          "internalType": "address",
          "name": "approver",
          "type": "address"
        }
      ],
      "name": "ERC20InvalidApprover",
      "type": "error"
    },
    {
      "inputs": [
        {
          "internalType": "address",
          "name": "receiver",
          "type": "address"
        }
      ],
      "name": "ERC20InvalidReceiver",
      "type": "error"
    },
    {
      "inputs": [
        {
          "internalType": "address",
          "name": "sender",
          "type": "address"
        }
      ],
      "name": "ERC20InvalidSender",
      "type": "error"
    },
    {
      "inputs": [
        {
          "internalType": "address",
          "name": "spender",
          "type": "address"
        }
      ],
      "name": "ERC20InvalidSpender",
      "type": "error"
    },
    {
      "inputs": [],
      "name": "ReentrancyGuardReentrantCall",
      "type": "error"
    },
    {
      "anonymous": false,
      "inputs": [
        {
          "indexed": true,
          "internalType": "uint256",
          "name": "lpToken",
          "type": "uint256"
        },
        {
          "indexed": false,
          "internalType": "address",
          "name": "token0",
          "type": "address"
        },
        {
          "indexed": true,
          "internalType": "uint256",
          "name": "amount0",
          "type": "uint256"
        },
        {
          "indexed": false,
          "internalType": "address",
          "name": "token1",
          "type": "address"
        },
        {
          "indexed": true,
          "internalType": "uint256",
          "name": "amount1",
          "type": "uint256"
        }
      ],
      "name": "AddedLiquidity",
      "type": "event"
    },
    {
      "anonymous": false,
      "inputs": [
        {
          "indexed": true,
          "internalType": "address",
          "name": "owner",
          "type": "address"
        },
        {
          "indexed": true,
          "internalType": "address",
          "name": "spender",
          "type": "address"
        },
        {
          "indexed": false,
          "internalType": "uint256",
          "name": "value",
          "type": "uint256"
        }
      ],
      "name": "Approval",
      "type": "event"
    },
    {
      "anonymous": false,
      "inputs": [
        {
          "indexed": true,
          "internalType": "uint256",
          "name": "lpToken",
          "type": "uint256"
        },
        {
          "indexed": false,
          "internalType": "address",
          "name": "token0",
          "type": "address"
        },
        {
          "indexed": true,
          "internalType": "uint256",
          "name": "amount0",
          "type": "uint256"
        },
        {
          "indexed": false,
          "internalType": "address",
          "name": "token1",
          "type": "address"
        },
        {
          "indexed": true,
          "internalType": "uint256",
          "name": "amount1",
          "type": "uint256"
        }
      ],
      "name": "RemovedLiquidity",
      "type": "event"
    },
    {
      "anonymous": false,
      "inputs": [
        {
          "indexed": false,
          "internalType": "address",
          "name": "tokenIn",
          "type": "address"
        },
        {
          "indexed": true,
          "internalType": "uint256",
          "name": "amountIn",
          "type": "uint256"
        },
        {
          "indexed": false,
          "internalType": "address",
          "name": "tokenOut",
          "type": "address"
        },
        {
          "indexed": true,
          "internalType": "uint256",
          "name": "amountOut",
          "type": "uint256"
        }
      ],
      "name": "Swapped",
      "type": "event"
    },
    {
      "anonymous": false,
      "inputs": [
        {
          "indexed": true,
          "internalType": "address",
          "name": "from",
          "type": "address"
        },
        {
          "indexed": true,
          "internalType": "address",
          "name": "to",
          "type": "address"
        },
        {
          "indexed": false,
          "internalType": "uint256",
          "name": "value",
          "type": "uint256"
        }
      ],
      "name": "Transfer",
      "type": "event"
    },
    {
      "inputs": [
        {
          "internalType": "uint256",
          "name": "amount0",
          "type": "uint256"
        }
      ],
      "name": "addLiquidity",
      "outputs": [],
      "stateMutability": "nonpayable",
      "type": "function"
    },
    {
      "inputs": [
        {
          "internalType": "address",
          "name": "owner",
          "type": "address"
        },
        {
          "internalType": "address",
          "name": "spender",
          "type": "address"
        }
      ],
      "name": "allowance",
      "outputs": [
        {
          "internalType": "uint256",
          "name": "",
          "type": "uint256"
        }
      ],
      "stateMutability": "view",
      "type": "function"
    },
    {
      "inputs": [
        {
          "internalType": "address",
          "name": "spender",
          "type": "address"
        },
        {
          "internalType": "uint256",
          "name": "value",
          "type": "uint256"
        }
      ],
      "name": "approve",
      "outputs": [
        {
          "internalType": "bool",
          "name": "",
          "type": "bool"
        }
      ],
      "stateMutability": "nonpayable",
      "type": "function"
    },
    {
      "inputs": [
        {
          "internalType": "address",
          "name": "account",
          "type": "address"
        }
      ],
      "name": "balanceOf",
      "outputs": [
        {
          "internalType": "uint256",
          "name": "",
          "type": "uint256"
        }
      ],
      "stateMutability": "view",
      "type": "function"
    },
    {
      "inputs": [],
      "name": "decimals",
      "outputs": [
        {
          "internalType": "uint8",
          "name": "",
          "type": "uint8"
        }
      ],
      "stateMutability": "view",
      "type": "function"
    },
    {
      "inputs": [
        {
          "internalType": "address",
          "name": "tokenIn",
          "type": "address"
        },
        {
          "internalType": "uint256",
          "name": "amountIn",
          "type": "uint256"
        },
        {
          "internalType": "address",
          "name": "tokenOut",
          "type": "address"
        }
      ],
      "name": "getAmountOut",
      "outputs": [
        {
          "internalType": "uint256",
          "name": "",
          "type": "uint256"
        }
      ],
      "stateMutability": "view",
      "type": "function"
    },
    {
      "inputs": [
        {
          "internalType": "uint256",
          "name": "amount0",
          "type": "uint256"
        }
      ],
      "name": "getRequiredAmount1",
      "outputs": [
        {
          "internalType": "uint256",
          "name": "",
          "type": "uint256"
        }
      ],
      "stateMutability": "view",
      "type": "function"
    },
    {
      "inputs": [],
      "name": "getReserves",
      "outputs": [
        {
          "internalType": "uint256",
          "name": "",
          "type": "uint256"
        },
        {
          "internalType": "uint256",
          "name": "",
          "type": "uint256"
        }
      ],
      "stateMutability": "view",
      "type": "function"
    },
    {
      "inputs": [],
      "name": "name",
      "outputs": [
        {
          "internalType": "string",
          "name": "",
          "type": "string"
        }
      ],
      "stateMutability": "view",
      "type": "function"
    },
    {
      "inputs": [
        {
          "internalType": "uint256",
          "name": "lpAmount",
          "type": "uint256"
        }
      ],
      "name": "removeLiquidity",
      "outputs": [],
      "stateMutability": "nonpayable",
      "type": "function"
    },
    {
      "inputs": [
        {
          "internalType": "address",
          "name": "tokenIn",
          "type": "address"
        },
        {
          "internalType": "uint256",
          "name": "amountIn",
          "type": "uint256"
        },
        {
          "internalType": "address",
          "name": "tokenOut",
          "type": "address"
        }
      ],
      "name": "swap",
      "outputs": [],
      "stateMutability": "nonpayable",
      "type": "function"
    },
    {
      "inputs": [],
      "name": "symbol",
      "outputs": [
        {
          "internalType": "string",
          "name": "",
          "type": "string"
        }
      ],
      "stateMutability": "view",
      "type": "function"
    },
    {
      "inputs": [],
      "name": "totalSupply",
      "outputs": [
        {
          "internalType": "uint256",
          "name": "",
          "type": "uint256"
        }
      ],
      "stateMutability": "view",
      "type": "function"
    },
    {
      "inputs": [
        {
          "internalType": "address",
          "name": "to",
          "type": "address"
        },
        {
          "internalType": "uint256",
          "name": "value",
          "type": "uint256"
        }
      ],
      "name": "transfer",
      "outputs": [
        {
          "internalType": "bool",
          "name": "",
          "type": "bool"
        }
      ],
      "stateMutability": "nonpayable",
      "type": "function"
    },
    {
      "inputs": [
        {
          "internalType": "address",
          "name": "from",
          "type": "address"
        },
        {
          "internalType": "address",
          "name": "to",
          "type": "address"
        },
        {
          "internalType": "uint256",
          "name": "value",
          "type": "uint256"
        }
      ],
      "name": "transferFrom",
      "outputs": [
        {
          "internalType": "bool",
          "name": "",
          "type": "bool"
        }
      ],
      "stateMutability": "nonpayable",
      "type": "function"
    }
  ],
  "bytecode": "0x6101006040523480156200001257600080fd5b5060405162001a1738038062001a178339810160408190526200003591620000e0565b6040518060400160405280600781526020016626282a37b5b2b760c91b8152506040518060400160405280600381526020016213141560ea1b81525081818160039081620000849190620001bd565b506004620000938282620001bd565b505060016005555050506001600160a01b039182166080819052911660a081905260c09190915260e05262000289565b80516001600160a01b0381168114620000db57600080fd5b919050565b60008060408385031215620000f457600080fd5b620000ff83620000c3565b91506200010f60208401620000c3565b90509250929050565b634e487b7160e01b600052604160045260246000fd5b600181811c908216806200014357607f821691505b6020821081036200016457634e487b7160e01b600052602260045260246000fd5b50919050565b601f821115620001b857600081815260208120601f850160051c81016020861015620001935750805b601f850160051c820191505b81811015620001b4578281556001016200019f565b5050505b505050565b81516001600160401b03811115620001d957620001d962000118565b620001f181620001ea84546200012e565b846200016a565b602080601f831160018114620002295760008415620002105750858301515b600019600386901b1c1916600185901b178555620001b4565b600085815260208120601f198616915b828110156200025a5788860151825594840194600190910190840162000239565b5085821015620002795787850151600019600388901b60f8161c191681555b5050505050600190811b01905550565b60805160a05160c05160e0516116cf620003486000396000818161015501528181610610015281816106fd015281816107f6015281816108a301528181610bab01528181610d3b01528181610de70152611009015260008181610122015281816104e701528181610668015281816106d8015281816107bb0152818161086801528181610b7801528181610ce801528181610d9a0152610fe401526000818161054c0152610f1c0152600081816104230152610e4601526116cf6000f3fe608060405234801561001057600080fd5b50600436106100f55760003560e01c80636d069a67116100975780639c8f9f23116100665780639c8f9f2314610254578063a9059cbb14610267578063dd62ed3e1461027a578063ff9c8ac6146102b357600080fd5b80636d069a67146101fd57806370a0823114610210578063929f8c751461023957806395d89b411461024c57600080fd5b806318160ddd116100d357806318160ddd146101b457806323b872dd146101c6578063313ce567146101d957806351c6590a146101e857600080fd5b806306fdde03146100fa5780630902f1ac14610118578063095ea7b314610191575b600080fd5b6101026102c6565b60405161010f919061144e565b60405180910390f35b6001600160a01b037f00000000000000000000000000000000000000000000000000000000000000008116600090815260066020526040808220547f000000000000000000000000000000000000000000000000000000000000000090931682529020546040805192835260208301919091520161010f565b6101a461019f3660046114b8565b610358565b604051901515815260200161010f565b6002545b60405190815260200161010f565b6101a46101d43660046114e2565b610372565b6040516012815260200161010f565b6101fb6101f636600461151e565b610396565b005b6101fb61020b366004611537565b610762565b6101b861021e366004611573565b6001600160a01b031660009081526020819052604090205490565b6101b861024736600461151e565b610b6e565b610102610c0d565b6101fb61026236600461151e565b610c1c565b6101a46102753660046114b8565b61106c565b6101b8610288366004611595565b6001600160a01b03918216600090815260016020908152604080832093909416825291909152205490565b6101b86102c1366004611537565b61107a565b6060600380546102d5906115c8565b80601f0160208091040260200160405190810160405280929190818152602001828054610301906115c8565b801561034e5780601f106103235761010080835404028352916020019161034e565b820191906000526020600020905b81548152906001019060200180831161033157829003601f168201915b5050505050905090565b6000336103668185856110ca565b60019150505b92915050565b6000336103808582856110d7565b61038b858585611156565b506001949350505050565b61039e6111b5565b600081116103f35760405162461bcd60e51b815260206004820152601d60248201527f416d6f756e74206d7573742062652067726561746572207468616e203000000060448201526064015b60405180910390fd5b60006103fe82610b6e565b6040516323b872dd60e01b8152336004820152306024820152604481018490529091507f00000000000000000000000000000000000000000000000000000000000000006001600160a01b0316906323b872dd906064016020604051808303816000875af1158015610474573d6000803e3d6000fd5b505050506040513d601f19601f820116820180604052508101906104989190611602565b6104dd5760405162461bcd60e51b8152602060048201526016602482015275151c985b9cd9995c881d1bdad95b8c0819985a5b195960521b60448201526064016103ea565b6001600160a01b037f0000000000000000000000000000000000000000000000000000000000000000166000908152600660205260408120805484929061052590849061163a565b90915550506040516323b872dd60e01b8152336004820152306024820152604481018290527f00000000000000000000000000000000000000000000000000000000000000006001600160a01b0316906323b872dd906064016020604051808303816000875af115801561059d573d6000803e3d6000fd5b505050506040513d601f19601f820116820180604052508101906105c19190611602565b6106065760405162461bcd60e51b8152602060048201526016602482015275151c985b9cd9995c881d1bdad95b8c4819985a5b195960521b60448201526064016103ea565b6001600160a01b037f0000000000000000000000000000000000000000000000000000000000000000166000908152600660205260408120805483929061064e90849061163a565b90915550829050600061066060025490565b11156106bd577f00000000000000000000000000000000000000000000000000000000000000006001600160a01b03166000908152600660205260409020546002546106ac908561164d565b6106b69190611664565b90506106c0565b50815b6106ca33826111df565b604080516001600160a01b037f0000000000000000000000000000000000000000000000000000000000000000811682527f00000000000000000000000000000000000000000000000000000000000000001660208201528391859184917f86c3929a230b573aa47cd83759aed11b800d147abc23e246dfeb5ebbd7a110e3910160405180910390a4505061075f6001600555565b50565b61076a6111b5565b806001600160a01b0316836001600160a01b0316036107b95760405162461bcd60e51b815260206004820152600b60248201526a53616d6520746f6b656e7360a81b60448201526064016103ea565b7f00000000000000000000000000000000000000000000000000000000000000006001600160a01b0316836001600160a01b0316148061082a57507f00000000000000000000000000000000000000000000000000000000000000006001600160a01b0316836001600160a01b0316145b6108665760405162461bcd60e51b815260206004820152600d60248201526c24b73b30b634b2103a37b5b2b760991b60448201526064016103ea565b7f00000000000000000000000000000000000000000000000000000000000000006001600160a01b0316816001600160a01b031614806108d757507f00000000000000000000000000000000000000000000000000000000000000006001600160a01b0316816001600160a01b0316145b6109135760405162461bcd60e51b815260206004820152600d60248201526c24b73b30b634b2103a37b5b2b760991b60448201526064016103ea565b600082116109515760405162461bcd60e51b815260206004820152600b60248201526a16995c9bc8185b5bdd5b9d60aa1b60448201526064016103ea565b600061095e84848461107a565b6040516323b872dd60e01b8152336004820152306024820152604481018590529091506001600160a01b038516906323b872dd906064016020604051808303816000875af11580156109b4573d6000803e3d6000fd5b505050506040513d601f19601f820116820180604052508101906109d89190611602565b610a125760405162461bcd60e51b815260206004820152600b60248201526a14ddd85c0811985a5b195960aa1b60448201526064016103ea565b60405163a9059cbb60e01b8152336004820152602481018290526001600160a01b0383169063a9059cbb906044016020604051808303816000875af1158015610a5f573d6000803e3d6000fd5b505050506040513d601f19601f82011682018060405250810190610a839190611602565b610abd5760405162461bcd60e51b815260206004820152600b60248201526a14ddd85c0811985a5b195960aa1b60448201526064016103ea565b6001600160a01b03841660009081526006602052604081208054859290610ae590849061163a565b90915550506001600160a01b03821660009081526006602052604081208054839290610b12908490611686565b9091555050604080516001600160a01b03808716825284166020820152829185917fdb587d878116df0bdd4fe154699aa2c5f439da001cc811dfd05d9f589fc5a8ee910160405180910390a350610b696001600555565b505050565b6001600160a01b037f00000000000000000000000000000000000000000000000000000000000000008116600090815260066020526040808220547f00000000000000000000000000000000000000000000000000000000000000009093168252812054909190811580610be0575080155b15610bf857610bf060028561164d565b949350505050565b81610c03828661164d565b610bf09190611664565b6060600480546102d5906115c8565b610c246111b5565b60008111610c745760405162461bcd60e51b815260206004820152601d60248201527f416d6f756e74206d7573742062652067726561746572207468616e203000000060448201526064016103ea565b33600090815260208190526040902054811115610cd35760405162461bcd60e51b815260206004820152601d60248201527f496e73756666696369656e74204c5020746f6b656e2062616c616e636500000060448201526064016103ea565b6000610cde60025490565b6001600160a01b037f000000000000000000000000000000000000000000000000000000000000000016600090815260066020526040812054919250908290610d27908561164d565b610d319190611664565b6001600160a01b037f000000000000000000000000000000000000000000000000000000000000000016600090815260066020526040812054919250908390610d7a908661164d565b610d849190611664565b9050610d903385611219565b6001600160a01b037f00000000000000000000000000000000000000000000000000000000000000001660009081526006602052604081208054849290610dd8908490611686565b90915550506001600160a01b037f00000000000000000000000000000000000000000000000000000000000000001660009081526006602052604081208054839290610e25908490611686565b909155505060405163a9059cbb60e01b8152336004820152602481018390527f00000000000000000000000000000000000000000000000000000000000000006001600160a01b03169063a9059cbb906044016020604051808303816000875af1158015610e97573d6000803e3d6000fd5b505050506040513d601f19601f82011682018060405250810190610ebb9190611602565b610f005760405162461bcd60e51b8152602060048201526016602482015275151c985b9cd9995c881d1bdad95b8c0819985a5b195960521b60448201526064016103ea565b60405163a9059cbb60e01b8152336004820152602481018290527f00000000000000000000000000000000000000000000000000000000000000006001600160a01b03169063a9059cbb906044016020604051808303816000875af1158015610f6d573d6000803e3d6000fd5b505050506040513d601f19601f82011682018060405250810190610f919190611602565b610fd65760405162461bcd60e51b8152602060048201526016602482015275151c985b9cd9995c881d1bdad95b8c4819985a5b195960521b60448201526064016103ea565b604080516001600160a01b037f0000000000000000000000000000000000000000000000000000000000000000811682527f00000000000000000000000000000000000000000000000000000000000000001660208201528291849187917f47a132e4e9e9fd057fafaf86c87eac1f1beb455bf20382505e83022d97163379910160405180910390a450505061075f6001600555565b600033610366818585611156565b6001600160a01b03808216600090815260066020526040808220549286168252812054909190826110ab868361163a565b6110b5878561164d565b6110bf9190611664565b979650505050505050565b610b69838383600161124f565b6001600160a01b03838116600090815260016020908152604080832093861683529290522054600019811015611150578181101561114157604051637dc7a0d960e11b81526001600160a01b038416600482015260248101829052604481018390526064016103ea565b6111508484848403600061124f565b50505050565b6001600160a01b03831661118057604051634b637e8f60e11b8152600060048201526024016103ea565b6001600160a01b0382166111aa5760405163ec442f0560e01b8152600060048201526024016103ea565b610b69838383611324565b6002600554036111d857604051633ee5aeb560e01b815260040160405180910390fd5b6002600555565b6001600160a01b0382166112095760405163ec442f0560e01b8152600060048201526024016103ea565b61121560008383611324565b5050565b6001600160a01b03821661124357604051634b637e8f60e11b8152600060048201526024016103ea565b61121582600083611324565b6001600160a01b0384166112795760405163e602df0560e01b8152600060048201526024016103ea565b6001600160a01b0383166112a357604051634a1406b160e11b8152600060048201526024016103ea565b6001600160a01b038085166000908152600160209081526040808320938716835292905220829055801561115057826001600160a01b0316846001600160a01b03167f8c5be1e5ebec7d5bd14f71427d1e84f3dd0314c0f7b2291e5b200ac8c7c3b9258460405161131691815260200190565b60405180910390a350505050565b6001600160a01b03831661134f578060026000828254611344919061163a565b909155506113c19050565b6001600160a01b038316600090815260208190526040902054818110156113a25760405163391434e360e21b81526001600160a01b038516600482015260248101829052604481018390526064016103ea565b6001600160a01b03841660009081526020819052604090209082900390555b6001600160a01b0382166113dd576002805482900390556113fc565b6001600160a01b03821660009081526020819052604090208054820190555b816001600160a01b0316836001600160a01b03167fddf252ad1be2c89b69c2b068fc378daa952ba7f163c4a11628f55a4df523b3ef8360405161144191815260200190565b60405180910390a3505050565b600060208083528351808285015260005b8181101561147b5785810183015185820160400152820161145f565b506000604082860101526040601f19601f8301168501019250505092915050565b80356001600160a01b03811681146114b357600080fd5b919050565b600080604083850312156114cb57600080fd5b6114d48361149c565b946020939093013593505050565b6000806000606084860312156114f757600080fd5b6115008461149c565b925061150e6020850161149c565b9150604084013590509250925092565b60006020828403121561153057600080fd5b5035919050565b60008060006060848603121561154c57600080fd5b6115558461149c565b92506020840135915061156a6040850161149c565b90509250925092565b60006020828403121561158557600080fd5b61158e8261149c565b9392505050565b600080604083850312156115a857600080fd5b6115b18361149c565b91506115bf6020840161149c565b90509250929050565b600181811c908216806115dc57607f821691505b6020821081036115fc57634e487b7160e01b600052602260045260246000fd5b50919050565b60006020828403121561161457600080fd5b8151801515811461158e57600080fd5b634e487b7160e01b600052601160045260246000fd5b8082018082111561036c5761036c611624565b808202811582820484141761036c5761036c611624565b60008261168157634e487b7160e01b600052601260045260246000fd5b500490565b8181038181111561036c5761036c61162456fea26469706673582212204badeef17d4c2e827bbec68a5088d71741769477115ccb2d688d4ee5cb64acb564736f6c63430008140033",
  "linkReferences": {},
  "deployedLinkReferences": {}
}