{
  "_format": "hh-sol-artifact-1",
  "contractName": "Pool",
  "sourceName": "backend/contracts/Pool.sol",
  "abi": [
    {
      "inputs": [
        {
          "internalType": "address",
          "name": "token0",
          "type": "address"
        },
        {
          "internalType": "address",
          "name": "token1",
          "type": "address"
        }
      ],
      "stateMutability": "nonpayable",
      "type": "constructor"
    },
    {
      "inputs": [
        {
          "internalType": "address",
          "name": "spender",
          "type": "address"
        },
        {
          "internalType": "uint256",
          "name": "allowance",
          "type": "uint256"
        },
        {
          "internalType": "uint256",
          "name": "needed",
          "type": "uint256"
        }
      ],
      "name": "ERC20InsufficientAllowance",
      "type": "error"
    },
    {
      "inputs": [
        {
          "internalType": "address",
          "name": "sender",
          "type": "address"
        },
        {
          "internalType": "uint256",
          "name": "balance",
          "type": "uint256"
        },
        {
          "internalType": "uint256",
          "name": "needed",
          "type": "uint256"
        }
      ],
      "name": "ERC20InsufficientBalance",
      "type": "error"
    },
    {
      "inputs": [
        {
          "internalType": "address",
          "name": "approver",
          "type": "address"
        }
      ],
      "name": "ERC20InvalidApprover",
      "type": "error"
    },
    {
      "inputs": [
        {
          "internalType": "address",
          "name": "receiver",
          "type": "address"
        }
      ],
      "name": "ERC20InvalidReceiver",
      "type": "error"
    },
    {
      "inputs": [
        {
          "internalType": "address",
          "name": "sender",
          "type": "address"
        }
      ],
      "name": "ERC20InvalidSender",
      "type": "error"
    },
    {
      "inputs": [
        {
          "internalType": "address",
          "name": "spender",
          "type": "address"
        }
      ],
      "name": "ERC20InvalidSpender",
      "type": "error"
    },
    {
      "inputs": [],
      "name": "ReentrancyGuardReentrantCall",
      "type": "error"
    },
    {
      "anonymous": false,
      "inputs": [
        {
          "indexed": true,
          "internalType": "uint256",
          "name": "lpToken",
          "type": "uint256"
        },
        {
          "indexed": false,
          "internalType": "address",
          "name": "token0",
          "type": "address"
        },
        {
          "indexed": true,
          "internalType": "uint256",
          "name": "amount0",
          "type": "uint256"
        },
        {
          "indexed": false,
          "internalType": "address",
          "name": "token1",
          "type": "address"
        },
        {
          "indexed": true,
          "internalType": "uint256",
          "name": "amount1",
          "type": "uint256"
        }
      ],
      "name": "AddedLiquidity",
      "type": "event"
    },
    {
      "anonymous": false,
      "inputs": [
        {
          "indexed": true,
          "internalType": "address",
          "name": "owner",
          "type": "address"
        },
        {
          "indexed": true,
          "internalType": "address",
          "name": "spender",
          "type": "address"
        },
        {
          "indexed": false,
          "internalType": "uint256",
          "name": "value",
          "type": "uint256"
        }
      ],
      "name": "Approval",
      "type": "event"
    },
    {
      "anonymous": false,
      "inputs": [
        {
          "indexed": true,
          "internalType": "uint256",
          "name": "lpToken",
          "type": "uint256"
        },
        {
          "indexed": false,
          "internalType": "address",
          "name": "token0",
          "type": "address"
        },
        {
          "indexed": true,
          "internalType": "uint256",
          "name": "amount0",
          "type": "uint256"
        },
        {
          "indexed": false,
          "internalType": "address",
          "name": "token1",
          "type": "address"
        },
        {
          "indexed": true,
          "internalType": "uint256",
          "name": "amount1",
          "type": "uint256"
        }
      ],
      "name": "RemovedLiquidity",
      "type": "event"
    },
    {
      "anonymous": false,
      "inputs": [
        {
          "indexed": false,
          "internalType": "address",
          "name": "tokenIn",
          "type": "address"
        },
        {
          "indexed": true,
          "internalType": "uint256",
          "name": "amountIn",
          "type": "uint256"
        },
        {
          "indexed": false,
          "internalType": "address",
          "name": "tokenOut",
          "type": "address"
        },
        {
          "indexed": true,
          "internalType": "uint256",
          "name": "amountOut",
          "type": "uint256"
        }
      ],
      "name": "Swapped",
      "type": "event"
    },
    {
      "anonymous": false,
      "inputs": [
        {
          "indexed": true,
          "internalType": "address",
          "name": "from",
          "type": "address"
        },
        {
          "indexed": true,
          "internalType": "address",
          "name": "to",
          "type": "address"
        },
        {
          "indexed": false,
          "internalType": "uint256",
          "name": "value",
          "type": "uint256"
        }
      ],
      "name": "Transfer",
      "type": "event"
    },
    {
      "inputs": [
        {
          "internalType": "uint256",
          "name": "amount0",
          "type": "uint256"
        }
      ],
      "name": "addLiquidity",
      "outputs": [],
      "stateMutability": "nonpayable",
      "type": "function"
    },
    {
      "inputs": [
        {
          "internalType": "address",
          "name": "owner",
          "type": "address"
        },
        {
          "internalType": "address",
          "name": "spender",
          "type": "address"
        }
      ],
      "name": "allowance",
      "outputs": [
        {
          "internalType": "uint256",
          "name": "",
          "type": "uint256"
        }
      ],
      "stateMutability": "view",
      "type": "function"
    },
    {
      "inputs": [
        {
          "internalType": "address",
          "name": "spender",
          "type": "address"
        },
        {
          "internalType": "uint256",
          "name": "value",
          "type": "uint256"
        }
      ],
      "name": "approve",
      "outputs": [
        {
          "internalType": "bool",
          "name": "",
          "type": "bool"
        }
      ],
      "stateMutability": "nonpayable",
      "type": "function"
    },
    {
      "inputs": [
        {
          "internalType": "address",
          "name": "account",
          "type": "address"
        }
      ],
      "name": "balanceOf",
      "outputs": [
        {
          "internalType": "uint256",
          "name": "",
          "type": "uint256"
        }
      ],
      "stateMutability": "view",
      "type": "function"
    },
    {
      "inputs": [],
      "name": "decimals",
      "outputs": [
        {
          "internalType": "uint8",
          "name": "",
          "type": "uint8"
        }
      ],
      "stateMutability": "view",
      "type": "function"
    },
    {
      "inputs": [
        {
          "internalType": "address",
          "name": "tokenIn",
          "type": "address"
        },
        {
          "internalType": "uint256",
          "name": "amountIn",
          "type": "uint256"
        },
        {
          "internalType": "address",
          "name": "tokenOut",
          "type": "address"
        }
      ],
      "name": "getAmountOut",
      "outputs": [
        {
          "internalType": "uint256",
          "name": "",
          "type": "uint256"
        }
      ],
      "stateMutability": "view",
      "type": "function"
    },
    {
      "inputs": [
        {
          "internalType": "uint256",
          "name": "amount0",
          "type": "uint256"
        }
      ],
      "name": "getRequiredAmount1",
      "outputs": [
        {
          "internalType": "uint256",
          "name": "",
          "type": "uint256"
        }
      ],
      "stateMutability": "view",
      "type": "function"
    },
    {
      "inputs": [],
      "name": "name",
      "outputs": [
        {
          "internalType": "string",
          "name": "",
          "type": "string"
        }
      ],
      "stateMutability": "view",
      "type": "function"
    },
    {
      "inputs": [
        {
          "internalType": "uint256",
          "name": "lpAmount",
          "type": "uint256"
        }
      ],
      "name": "removeLiquidity",
      "outputs": [],
      "stateMutability": "nonpayable",
      "type": "function"
    },
    {
      "inputs": [
        {
          "internalType": "address",
          "name": "tokenIn",
          "type": "address"
        },
        {
          "internalType": "uint256",
          "name": "amountIn",
          "type": "uint256"
        },
        {
          "internalType": "address",
          "name": "tokenOut",
          "type": "address"
        }
      ],
      "name": "swap",
      "outputs": [],
      "stateMutability": "nonpayable",
      "type": "function"
    },
    {
      "inputs": [],
      "name": "symbol",
      "outputs": [
        {
          "internalType": "string",
          "name": "",
          "type": "string"
        }
      ],
      "stateMutability": "view",
      "type": "function"
    },
    {
      "inputs": [],
      "name": "totalSupply",
      "outputs": [
        {
          "internalType": "uint256",
          "name": "",
          "type": "uint256"
        }
      ],
      "stateMutability": "view",
      "type": "function"
    },
    {
      "inputs": [
        {
          "internalType": "address",
          "name": "to",
          "type": "address"
        },
        {
          "internalType": "uint256",
          "name": "value",
          "type": "uint256"
        }
      ],
      "name": "transfer",
      "outputs": [
        {
          "internalType": "bool",
          "name": "",
          "type": "bool"
        }
      ],
      "stateMutability": "nonpayable",
      "type": "function"
    },
    {
      "inputs": [
        {
          "internalType": "address",
          "name": "from",
          "type": "address"
        },
        {
          "internalType": "address",
          "name": "to",
          "type": "address"
        },
        {
          "internalType": "uint256",
          "name": "value",
          "type": "uint256"
        }
      ],
      "name": "transferFrom",
      "outputs": [
        {
          "internalType": "bool",
          "name": "",
          "type": "bool"
        }
      ],
      "stateMutability": "nonpayable",
      "type": "function"
    }
  ],
  "bytecode": "0x6101006040523480156200001257600080fd5b5060405162001985380380620019858339810160408190526200003591620000e0565b6040518060400160405280600781526020016626282a37b5b2b760c91b8152506040518060400160405280600381526020016213141560ea1b81525081818160039081620000849190620001bd565b506004620000938282620001bd565b505060016005555050506001600160a01b039182166080819052911660a081905260c09190915260e05262000289565b80516001600160a01b0381168114620000db57600080fd5b919050565b60008060408385031215620000f457600080fd5b620000ff83620000c3565b91506200010f60208401620000c3565b90509250929050565b634e487b7160e01b600052604160045260246000fd5b600181811c908216806200014357607f821691505b6020821081036200016457634e487b7160e01b600052602260045260246000fd5b50919050565b601f821115620001b857600081815260208120601f850160051c81016020861015620001935750805b601f850160051c820191505b81811015620001b4578281556001016200019f565b5050505b505050565b81516001600160401b03811115620001d957620001d962000118565b620001f181620001ea84546200012e565b846200016a565b602080601f831160018114620002295760008415620002105750858301515b600019600386901b1c1916600185901b178555620001b4565b600085815260208120601f198616915b828110156200025a5788860151825594840194600190910190840162000239565b5085821015620002795787850151600019600388901b60f8161c191681555b5050505050600190811b01905550565b60805160a05160c05160e05161164b6200033a6000396000818161058c01528181610679015281816107720152818161081f01528181610b2701528181610cb701528181610d630152610f85015260008181610463015281816105e40152818161065401528181610737015281816107e401528181610af401528181610c6401528181610d160152610f600152600081816104c80152610e9801526000818161039f0152610dc2015261164b6000f3fe608060405234801561001057600080fd5b50600436106100ea5760003560e01c806370a082311161008c5780639c8f9f23116100665780639c8f9f23146101d0578063a9059cbb146101e3578063dd62ed3e146101f6578063ff9c8ac61461022f57600080fd5b806370a082311461018c578063929f8c75146101b557806395d89b41146101c857600080fd5b806323b872dd116100c857806323b872dd14610142578063313ce5671461015557806351c6590a146101645780636d069a671461017957600080fd5b806306fdde03146100ef578063095ea7b31461010d57806318160ddd14610130575b600080fd5b6100f7610242565b60405161010491906113ca565b60405180910390f35b61012061011b366004611434565b6102d4565b6040519015158152602001610104565b6002545b604051908152602001610104565b61012061015036600461145e565b6102ee565b60405160128152602001610104565b61017761017236600461149a565b610312565b005b6101776101873660046114b3565b6106de565b61013461019a3660046114ef565b6001600160a01b031660009081526020819052604090205490565b6101346101c336600461149a565b610aea565b6100f7610b89565b6101776101de36600461149a565b610b98565b6101206101f1366004611434565b610fe8565b610134610204366004611511565b6001600160a01b03918216600090815260016020908152604080832093909416825291909152205490565b61013461023d3660046114b3565b610ff6565b60606003805461025190611544565b80601f016020809104026020016040519081016040528092919081815260200182805461027d90611544565b80156102ca5780601f1061029f576101008083540402835291602001916102ca565b820191906000526020600020905b8154815290600101906020018083116102ad57829003601f168201915b5050505050905090565b6000336102e2818585611046565b60019150505b92915050565b6000336102fc858285611053565b6103078585856110d2565b506001949350505050565b61031a611131565b6000811161036f5760405162461bcd60e51b815260206004820152601d60248201527f416d6f756e74206d7573742062652067726561746572207468616e203000000060448201526064015b60405180910390fd5b600061037a82610aea565b6040516323b872dd60e01b8152336004820152306024820152604481018490529091507f00000000000000000000000000000000000000000000000000000000000000006001600160a01b0316906323b872dd906064016020604051808303816000875af11580156103f0573d6000803e3d6000fd5b505050506040513d601f19601f82011682018060405250810190610414919061157e565b6104595760405162461bcd60e51b8152602060048201526016602482015275151c985b9cd9995c881d1bdad95b8c0819985a5b195960521b6044820152606401610366565b6001600160a01b037f000000000000000000000000000000000000000000000000000000000000000016600090815260066020526040812080548492906104a19084906115b6565b90915550506040516323b872dd60e01b8152336004820152306024820152604481018290527f00000000000000000000000000000000000000000000000000000000000000006001600160a01b0316906323b872dd906064016020604051808303816000875af1158015610519573d6000803e3d6000fd5b505050506040513d601f19601f8201168201806040525081019061053d919061157e565b6105825760405162461bcd60e51b8152602060048201526016602482015275151c985b9cd9995c881d1bdad95b8c4819985a5b195960521b6044820152606401610366565b6001600160a01b037f000000000000000000000000000000000000000000000000000000000000000016600090815260066020526040812080548392906105ca9084906115b6565b9091555082905060006105dc60025490565b1115610639577f00000000000000000000000000000000000000000000000000000000000000006001600160a01b031660009081526006602052604090205460025461062890856115c9565b61063291906115e0565b905061063c565b50815b610646338261115b565b604080516001600160a01b037f0000000000000000000000000000000000000000000000000000000000000000811682527f00000000000000000000000000000000000000000000000000000000000000001660208201528391859184917f86c3929a230b573aa47cd83759aed11b800d147abc23e246dfeb5ebbd7a110e3910160405180910390a450506106db6001600555565b50565b6106e6611131565b806001600160a01b0316836001600160a01b0316036107355760405162461bcd60e51b815260206004820152600b60248201526a53616d6520746f6b656e7360a81b6044820152606401610366565b7f00000000000000000000000000000000000000000000000000000000000000006001600160a01b0316836001600160a01b031614806107a657507f00000000000000000000000000000000000000000000000000000000000000006001600160a01b0316836001600160a01b0316145b6107e25760405162461bcd60e51b815260206004820152600d60248201526c24b73b30b634b2103a37b5b2b760991b6044820152606401610366565b7f00000000000000000000000000000000000000000000000000000000000000006001600160a01b0316816001600160a01b0316148061085357507f00000000000000000000000000000000000000000000000000000000000000006001600160a01b0316816001600160a01b0316145b61088f5760405162461bcd60e51b815260206004820152600d60248201526c24b73b30b634b2103a37b5b2b760991b6044820152606401610366565b600082116108cd5760405162461bcd60e51b815260206004820152600b60248201526a16995c9bc8185b5bdd5b9d60aa1b6044820152606401610366565b60006108da848484610ff6565b6040516323b872dd60e01b8152336004820152306024820152604481018590529091506001600160a01b038516906323b872dd906064016020604051808303816000875af1158015610930573d6000803e3d6000fd5b505050506040513d601f19601f82011682018060405250810190610954919061157e565b61098e5760405162461bcd60e51b815260206004820152600b60248201526a14ddd85c0811985a5b195960aa1b6044820152606401610366565b60405163a9059cbb60e01b8152336004820152602481018290526001600160a01b0383169063a9059cbb906044016020604051808303816000875af11580156109db573d6000803e3d6000fd5b505050506040513d601f19601f820116820180604052508101906109ff919061157e565b610a395760405162461bcd60e51b815260206004820152600b60248201526a14ddd85c0811985a5b195960aa1b6044820152606401610366565b6001600160a01b03841660009081526006602052604081208054859290610a619084906115b6565b90915550506001600160a01b03821660009081526006602052604081208054839290610a8e908490611602565b9091555050604080516001600160a01b03808716825284166020820152829185917fdb587d878116df0bdd4fe154699aa2c5f439da001cc811dfd05d9f589fc5a8ee910160405180910390a350610ae56001600555565b505050565b6001600160a01b037f00000000000000000000000000000000000000000000000000000000000000008116600090815260066020526040808220547f00000000000000000000000000000000000000000000000000000000000000009093168252812054909190811580610b5c575080155b15610b7457610b6c6002856115c9565b949350505050565b81610b7f82866115c9565b610b6c91906115e0565b60606004805461025190611544565b610ba0611131565b60008111610bf05760405162461bcd60e51b815260206004820152601d60248201527f416d6f756e74206d7573742062652067726561746572207468616e20300000006044820152606401610366565b33600090815260208190526040902054811115610c4f5760405162461bcd60e51b815260206004820152601d60248201527f496e73756666696369656e74204c5020746f6b656e2062616c616e63650000006044820152606401610366565b6000610c5a60025490565b6001600160a01b037f000000000000000000000000000000000000000000000000000000000000000016600090815260066020526040812054919250908290610ca390856115c9565b610cad91906115e0565b6001600160a01b037f000000000000000000000000000000000000000000000000000000000000000016600090815260066020526040812054919250908390610cf690866115c9565b610d0091906115e0565b9050610d0c3385611195565b6001600160a01b037f00000000000000000000000000000000000000000000000000000000000000001660009081526006602052604081208054849290610d54908490611602565b90915550506001600160a01b037f00000000000000000000000000000000000000000000000000000000000000001660009081526006602052604081208054839290610da1908490611602565b909155505060405163a9059cbb60e01b8152336004820152602481018390527f00000000000000000000000000000000000000000000000000000000000000006001600160a01b03169063a9059cbb906044016020604051808303816000875af1158015610e13573d6000803e3d6000fd5b505050506040513d601f19601f82011682018060405250810190610e37919061157e565b610e7c5760405162461bcd60e51b8152602060048201526016602482015275151c985b9cd9995c881d1bdad95b8c0819985a5b195960521b6044820152606401610366565b60405163a9059cbb60e01b8152336004820152602481018290527f00000000000000000000000000000000000000000000000000000000000000006001600160a01b03169063a9059cbb906044016020604051808303816000875af1158015610ee9573d6000803e3d6000fd5b505050506040513d601f19601f82011682018060405250810190610f0d919061157e565b610f525760405162461bcd60e51b8152602060048201526016602482015275151c985b9cd9995c881d1bdad95b8c4819985a5b195960521b6044820152606401610366565b604080516001600160a01b037f0000000000000000000000000000000000000000000000000000000000000000811682527f00000000000000000000000000000000000000000000000000000000000000001660208201528291849187917f47a132e4e9e9fd057fafaf86c87eac1f1beb455bf20382505e83022d97163379910160405180910390a45050506106db6001600555565b6000336102e28185856110d2565b6001600160a01b038082166000908152600660205260408082205492861682528120549091908261102786836115b6565b61103187856115c9565b61103b91906115e0565b979650505050505050565b610ae583838360016111cb565b6001600160a01b038381166000908152600160209081526040808320938616835292905220546000198110156110cc57818110156110bd57604051637dc7a0d960e11b81526001600160a01b03841660048201526024810182905260448101839052606401610366565b6110cc848484840360006111cb565b50505050565b6001600160a01b0383166110fc57604051634b637e8f60e11b815260006004820152602401610366565b6001600160a01b0382166111265760405163ec442f0560e01b815260006004820152602401610366565b610ae58383836112a0565b60026005540361115457604051633ee5aeb560e01b815260040160405180910390fd5b6002600555565b6001600160a01b0382166111855760405163ec442f0560e01b815260006004820152602401610366565b611191600083836112a0565b5050565b6001600160a01b0382166111bf57604051634b637e8f60e11b815260006004820152602401610366565b611191826000836112a0565b6001600160a01b0384166111f55760405163e602df0560e01b815260006004820152602401610366565b6001600160a01b03831661121f57604051634a1406b160e11b815260006004820152602401610366565b6001600160a01b03808516600090815260016020908152604080832093871683529290522082905580156110cc57826001600160a01b0316846001600160a01b03167f8c5be1e5ebec7d5bd14f71427d1e84f3dd0314c0f7b2291e5b200ac8c7c3b9258460405161129291815260200190565b60405180910390a350505050565b6001600160a01b0383166112cb5780600260008282546112c091906115b6565b9091555061133d9050565b6001600160a01b0383166000908152602081905260409020548181101561131e5760405163391434e360e21b81526001600160a01b03851660048201526024810182905260448101839052606401610366565b6001600160a01b03841660009081526020819052604090209082900390555b6001600160a01b03821661135957600280548290039055611378565b6001600160a01b03821660009081526020819052604090208054820190555b816001600160a01b0316836001600160a01b03167fddf252ad1be2c89b69c2b068fc378daa952ba7f163c4a11628f55a4df523b3ef836040516113bd91815260200190565b60405180910390a3505050565b600060208083528351808285015260005b818110156113f7578581018301518582016040015282016113db565b506000604082860101526040601f19601f8301168501019250505092915050565b80356001600160a01b038116811461142f57600080fd5b919050565b6000806040838503121561144757600080fd5b61145083611418565b946020939093013593505050565b60008060006060848603121561147357600080fd5b61147c84611418565b925061148a60208501611418565b9150604084013590509250925092565b6000602082840312156114ac57600080fd5b5035919050565b6000806000606084860312156114c857600080fd5b6114d184611418565b9250602084013591506114e660408501611418565b90509250925092565b60006020828403121561150157600080fd5b61150a82611418565b9392505050565b6000806040838503121561152457600080fd5b61152d83611418565b915061153b60208401611418565b90509250929050565b600181811c9082168061155857607f821691505b60208210810361157857634e487b7160e01b600052602260045260246000fd5b50919050565b60006020828403121561159057600080fd5b8151801515811461150a57600080fd5b634e487b7160e01b600052601160045260246000fd5b808201808211156102e8576102e86115a0565b80820281158282048414176102e8576102e86115a0565b6000826115fd57634e487b7160e01b600052601260045260246000fd5b500490565b818103818111156102e8576102e86115a056fea2646970667358221220334bca96840694714c22c4535ac4ea6e3ae54b1a9e320d9652eec010c6ee93b364736f6c63430008140033",
  "linkReferences": {},
  "deployedLinkReferences": {}
}