{
  "_format": "hh-sol-artifact-1",
  "contractName": "Pool_AB",
  "sourceName": "contracts/Pool_AB.sol",
  "abi": [
    {
      "inputs": [
        {
          "internalType": "address",
          "name": "alpha",
          "type": "address"
        },
        {
          "internalType": "address",
          "name": "beta",
          "type": "address"
        }
      ],
      "stateMutability": "nonpayable",
      "type": "constructor"
    },
    {
      "inputs": [],
      "name": "AlreadyInitialized",
      "type": "error"
    },
    {
      "inputs": [],
      "name": "CallerNotPool",
      "type": "error"
    },
    {
      "inputs": [
        {
          "internalType": "address",
          "name": "spender",
          "type": "address"
        },
        {
          "internalType": "uint256",
          "name": "allowance",
          "type": "uint256"
        },
        {
          "internalType": "uint256",
          "name": "needed",
          "type": "uint256"
        }
      ],
      "name": "ERC20InsufficientAllowance",
      "type": "error"
    },
    {
      "inputs": [
        {
          "internalType": "address",
          "name": "sender",
          "type": "address"
        },
        {
          "internalType": "uint256",
          "name": "balance",
          "type": "uint256"
        },
        {
          "internalType": "uint256",
          "name": "needed",
          "type": "uint256"
        }
      ],
      "name": "ERC20InsufficientBalance",
      "type": "error"
    },
    {
      "inputs": [
        {
          "internalType": "address",
          "name": "approver",
          "type": "address"
        }
      ],
      "name": "ERC20InvalidApprover",
      "type": "error"
    },
    {
      "inputs": [
        {
          "internalType": "address",
          "name": "receiver",
          "type": "address"
        }
      ],
      "name": "ERC20InvalidReceiver",
      "type": "error"
    },
    {
      "inputs": [
        {
          "internalType": "address",
          "name": "sender",
          "type": "address"
        }
      ],
      "name": "ERC20InvalidSender",
      "type": "error"
    },
    {
      "inputs": [
        {
          "internalType": "address",
          "name": "spender",
          "type": "address"
        }
      ],
      "name": "ERC20InvalidSpender",
      "type": "error"
    },
    {
      "inputs": [],
      "name": "EnforcedPause",
      "type": "error"
    },
    {
      "inputs": [],
      "name": "ExpectedPause",
      "type": "error"
    },
    {
      "inputs": [],
      "name": "NotInitialized",
      "type": "error"
    },
    {
      "inputs": [
        {
          "internalType": "address",
          "name": "owner",
          "type": "address"
        }
      ],
      "name": "OwnableInvalidOwner",
      "type": "error"
    },
    {
      "inputs": [
        {
          "internalType": "address",
          "name": "account",
          "type": "address"
        }
      ],
      "name": "OwnableUnauthorizedAccount",
      "type": "error"
    },
    {
      "inputs": [],
      "name": "TransferAmountTooLow",
      "type": "error"
    },
    {
      "inputs": [],
      "name": "ZeroAddress",
      "type": "error"
    },
    {
      "anonymous": false,
      "inputs": [
        {
          "indexed": true,
          "internalType": "address",
          "name": "owner",
          "type": "address"
        },
        {
          "indexed": true,
          "internalType": "address",
          "name": "spender",
          "type": "address"
        },
        {
          "indexed": false,
          "internalType": "uint256",
          "name": "value",
          "type": "uint256"
        }
      ],
      "name": "Approval",
      "type": "event"
    },
    {
      "anonymous": false,
      "inputs": [
        {
          "indexed": true,
          "internalType": "address",
          "name": "provider",
          "type": "address"
        },
        {
          "indexed": false,
          "internalType": "uint256",
          "name": "amount0",
          "type": "uint256"
        },
        {
          "indexed": false,
          "internalType": "uint256",
          "name": "amount1",
          "type": "uint256"
        },
        {
          "indexed": false,
          "internalType": "uint256",
          "name": "liquidity",
          "type": "uint256"
        }
      ],
      "name": "LiquidityAdded",
      "type": "event"
    },
    {
      "anonymous": false,
      "inputs": [
        {
          "indexed": true,
          "internalType": "address",
          "name": "provider",
          "type": "address"
        },
        {
          "indexed": false,
          "internalType": "uint256",
          "name": "amount0",
          "type": "uint256"
        },
        {
          "indexed": false,
          "internalType": "uint256",
          "name": "amount1",
          "type": "uint256"
        },
        {
          "indexed": false,
          "internalType": "uint256",
          "name": "liquidity",
          "type": "uint256"
        }
      ],
      "name": "LiquidityRemoved",
      "type": "event"
    },
    {
      "anonymous": false,
      "inputs": [
        {
          "indexed": true,
          "internalType": "address",
          "name": "previousOwner",
          "type": "address"
        },
        {
          "indexed": true,
          "internalType": "address",
          "name": "newOwner",
          "type": "address"
        }
      ],
      "name": "OwnershipTransferred",
      "type": "event"
    },
    {
      "anonymous": false,
      "inputs": [
        {
          "indexed": false,
          "internalType": "address",
          "name": "account",
          "type": "address"
        }
      ],
      "name": "Paused",
      "type": "event"
    },
    {
      "anonymous": false,
      "inputs": [
        {
          "indexed": true,
          "internalType": "address",
          "name": "token0",
          "type": "address"
        },
        {
          "indexed": true,
          "internalType": "address",
          "name": "token1",
          "type": "address"
        },
        {
          "indexed": false,
          "internalType": "uint256",
          "name": "amount0",
          "type": "uint256"
        },
        {
          "indexed": false,
          "internalType": "uint256",
          "name": "amount1",
          "type": "uint256"
        }
      ],
      "name": "PoolInitialized",
      "type": "event"
    },
    {
      "anonymous": false,
      "inputs": [
        {
          "indexed": true,
          "internalType": "address",
          "name": "pool",
          "type": "address"
        }
      ],
      "name": "PoolSet",
      "type": "event"
    },
    {
      "anonymous": false,
      "inputs": [
        {
          "indexed": true,
          "internalType": "address",
          "name": "sender",
          "type": "address"
        },
        {
          "indexed": true,
          "internalType": "address",
          "name": "tokenIn",
          "type": "address"
        },
        {
          "indexed": true,
          "internalType": "address",
          "name": "tokenOut",
          "type": "address"
        },
        {
          "indexed": false,
          "internalType": "uint256",
          "name": "amountIn",
          "type": "uint256"
        },
        {
          "indexed": false,
          "internalType": "uint256",
          "name": "amountOut",
          "type": "uint256"
        }
      ],
      "name": "Swap",
      "type": "event"
    },
    {
      "anonymous": false,
      "inputs": [
        {
          "indexed": true,
          "internalType": "address",
          "name": "from",
          "type": "address"
        },
        {
          "indexed": false,
          "internalType": "uint256",
          "name": "amount",
          "type": "uint256"
        }
      ],
      "name": "TokenBurned",
      "type": "event"
    },
    {
      "anonymous": false,
      "inputs": [
        {
          "indexed": true,
          "internalType": "address",
          "name": "to",
          "type": "address"
        },
        {
          "indexed": false,
          "internalType": "uint256",
          "name": "amount",
          "type": "uint256"
        }
      ],
      "name": "TokenMinted",
      "type": "event"
    },
    {
      "anonymous": false,
      "inputs": [
        {
          "indexed": true,
          "internalType": "address",
          "name": "from",
          "type": "address"
        },
        {
          "indexed": true,
          "internalType": "address",
          "name": "to",
          "type": "address"
        },
        {
          "indexed": false,
          "internalType": "uint256",
          "name": "value",
          "type": "uint256"
        }
      ],
      "name": "Transfer",
      "type": "event"
    },
    {
      "anonymous": false,
      "inputs": [
        {
          "indexed": true,
          "internalType": "address",
          "name": "from",
          "type": "address"
        },
        {
          "indexed": true,
          "internalType": "address",
          "name": "to",
          "type": "address"
        },
        {
          "indexed": false,
          "internalType": "uint256",
          "name": "amount",
          "type": "uint256"
        }
      ],
      "name": "TransferRestricted",
      "type": "event"
    },
    {
      "anonymous": false,
      "inputs": [
        {
          "indexed": false,
          "internalType": "address",
          "name": "account",
          "type": "address"
        }
      ],
      "name": "Unpaused",
      "type": "event"
    },
    {
      "inputs": [],
      "name": "MAX_PRICE_IMPACT",
      "outputs": [
        {
          "internalType": "uint256",
          "name": "",
          "type": "uint256"
        }
      ],
      "stateMutability": "view",
      "type": "function"
    },
    {
      "inputs": [],
      "name": "MAX_SUPPLY",
      "outputs": [
        {
          "internalType": "uint256",
          "name": "",
          "type": "uint256"
        }
      ],
      "stateMutability": "view",
      "type": "function"
    },
    {
      "inputs": [],
      "name": "MINIMUM_TRANSFER_AMOUNT",
      "outputs": [
        {
          "internalType": "uint256",
          "name": "",
          "type": "uint256"
        }
      ],
      "stateMutability": "view",
      "type": "function"
    },
    {
      "inputs": [],
      "name": "MIN_LIQUIDITY",
      "outputs": [
        {
          "internalType": "uint256",
          "name": "",
          "type": "uint256"
        }
      ],
      "stateMutability": "view",
      "type": "function"
    },
    {
      "inputs": [
        {
          "internalType": "uint256",
          "name": "amount0",
          "type": "uint256"
        }
      ],
      "name": "addLiquidity",
      "outputs": [
        {
          "internalType": "uint256",
          "name": "",
          "type": "uint256"
        }
      ],
      "stateMutability": "nonpayable",
      "type": "function"
    },
    {
      "inputs": [
        {
          "internalType": "address",
          "name": "owner",
          "type": "address"
        },
        {
          "internalType": "address",
          "name": "spender",
          "type": "address"
        }
      ],
      "name": "allowance",
      "outputs": [
        {
          "internalType": "uint256",
          "name": "",
          "type": "uint256"
        }
      ],
      "stateMutability": "view",
      "type": "function"
    },
    {
      "inputs": [
        {
          "internalType": "address",
          "name": "spender",
          "type": "address"
        },
        {
          "internalType": "uint256",
          "name": "value",
          "type": "uint256"
        }
      ],
      "name": "approve",
      "outputs": [
        {
          "internalType": "bool",
          "name": "",
          "type": "bool"
        }
      ],
      "stateMutability": "nonpayable",
      "type": "function"
    },
    {
      "inputs": [
        {
          "internalType": "address",
          "name": "account",
          "type": "address"
        }
      ],
      "name": "balanceOf",
      "outputs": [
        {
          "internalType": "uint256",
          "name": "",
          "type": "uint256"
        }
      ],
      "stateMutability": "view",
      "type": "function"
    },
    {
      "inputs": [
        {
          "internalType": "address",
          "name": "from",
          "type": "address"
        },
        {
          "internalType": "uint256",
          "name": "amount",
          "type": "uint256"
        }
      ],
      "name": "burn",
      "outputs": [],
      "stateMutability": "nonpayable",
      "type": "function"
    },
    {
      "inputs": [],
      "name": "decimals",
      "outputs": [
        {
          "internalType": "uint8",
          "name": "",
          "type": "uint8"
        }
      ],
      "stateMutability": "view",
      "type": "function"
    },
    {
      "inputs": [
        {
          "internalType": "uint256",
          "name": "amount0",
          "type": "uint256"
        }
      ],
      "name": "getRequiredAmount1",
      "outputs": [
        {
          "internalType": "uint256",
          "name": "",
          "type": "uint256"
        }
      ],
      "stateMutability": "view",
      "type": "function"
    },
    {
      "inputs": [],
      "name": "getReserves",
      "outputs": [
        {
          "internalType": "uint256",
          "name": "",
          "type": "uint256"
        },
        {
          "internalType": "uint256",
          "name": "",
          "type": "uint256"
        }
      ],
      "stateMutability": "view",
      "type": "function"
    },
    {
      "inputs": [
        {
          "internalType": "address",
          "name": "pool_",
          "type": "address"
        }
      ],
      "name": "initialize",
      "outputs": [],
      "stateMutability": "nonpayable",
      "type": "function"
    },
    {
      "inputs": [
        {
          "internalType": "uint256",
          "name": "amount0",
          "type": "uint256"
        }
      ],
      "name": "initialize",
      "outputs": [],
      "stateMutability": "nonpayable",
      "type": "function"
    },
    {
      "inputs": [],
      "name": "initialized",
      "outputs": [
        {
          "internalType": "bool",
          "name": "",
          "type": "bool"
        }
      ],
      "stateMutability": "view",
      "type": "function"
    },
    {
      "inputs": [],
      "name": "isInitialized",
      "outputs": [
        {
          "internalType": "bool",
          "name": "",
          "type": "bool"
        }
      ],
      "stateMutability": "view",
      "type": "function"
    },
    {
      "inputs": [],
      "name": "minTransferAmount",
      "outputs": [
        {
          "internalType": "uint256",
          "name": "",
          "type": "uint256"
        }
      ],
      "stateMutability": "pure",
      "type": "function"
    },
    {
      "inputs": [
        {
          "internalType": "address",
          "name": "to",
          "type": "address"
        },
        {
          "internalType": "uint256",
          "name": "amount",
          "type": "uint256"
        }
      ],
      "name": "mint",
      "outputs": [],
      "stateMutability": "nonpayable",
      "type": "function"
    },
    {
      "inputs": [],
      "name": "name",
      "outputs": [
        {
          "internalType": "string",
          "name": "",
          "type": "string"
        }
      ],
      "stateMutability": "view",
      "type": "function"
    },
    {
      "inputs": [],
      "name": "owner",
      "outputs": [
        {
          "internalType": "address",
          "name": "",
          "type": "address"
        }
      ],
      "stateMutability": "view",
      "type": "function"
    },
    {
      "inputs": [],
      "name": "pause",
      "outputs": [],
      "stateMutability": "nonpayable",
      "type": "function"
    },
    {
      "inputs": [],
      "name": "paused",
      "outputs": [
        {
          "internalType": "bool",
          "name": "",
          "type": "bool"
        }
      ],
      "stateMutability": "view",
      "type": "function"
    },
    {
      "inputs": [],
      "name": "pool",
      "outputs": [
        {
          "internalType": "address",
          "name": "",
          "type": "address"
        }
      ],
      "stateMutability": "view",
      "type": "function"
    },
    {
      "inputs": [
        {
          "internalType": "uint256",
          "name": "lpAmount",
          "type": "uint256"
        }
      ],
      "name": "removeLiquidity",
      "outputs": [
        {
          "internalType": "uint256",
          "name": "",
          "type": "uint256"
        },
        {
          "internalType": "uint256",
          "name": "",
          "type": "uint256"
        }
      ],
      "stateMutability": "nonpayable",
      "type": "function"
    },
    {
      "inputs": [],
      "name": "renounceOwnership",
      "outputs": [],
      "stateMutability": "nonpayable",
      "type": "function"
    },
    {
      "inputs": [
        {
          "internalType": "address",
          "name": "tokenIn",
          "type": "address"
        },
        {
          "internalType": "uint256",
          "name": "amountIn",
          "type": "uint256"
        },
        {
          "internalType": "address",
          "name": "tokenOut",
          "type": "address"
        }
      ],
      "name": "swap",
      "outputs": [
        {
          "internalType": "uint256",
          "name": "",
          "type": "uint256"
        }
      ],
      "stateMutability": "nonpayable",
      "type": "function"
    },
    {
      "inputs": [],
      "name": "symbol",
      "outputs": [
        {
          "internalType": "string",
          "name": "",
          "type": "string"
        }
      ],
      "stateMutability": "view",
      "type": "function"
    },
    {
      "inputs": [],
      "name": "token0",
      "outputs": [
        {
          "internalType": "address",
          "name": "",
          "type": "address"
        }
      ],
      "stateMutability": "view",
      "type": "function"
    },
    {
      "inputs": [],
      "name": "token1",
      "outputs": [
        {
          "internalType": "address",
          "name": "",
          "type": "address"
        }
      ],
      "stateMutability": "view",
      "type": "function"
    },
    {
      "inputs": [],
      "name": "totalSupply",
      "outputs": [
        {
          "internalType": "uint256",
          "name": "",
          "type": "uint256"
        }
      ],
      "stateMutability": "view",
      "type": "function"
    },
    {
      "inputs": [
        {
          "internalType": "address",
          "name": "to",
          "type": "address"
        },
        {
          "internalType": "uint256",
          "name": "amount",
          "type": "uint256"
        }
      ],
      "name": "transfer",
      "outputs": [
        {
          "internalType": "bool",
          "name": "",
          "type": "bool"
        }
      ],
      "stateMutability": "nonpayable",
      "type": "function"
    },
    {
      "inputs": [
        {
          "internalType": "address",
          "name": "from",
          "type": "address"
        },
        {
          "internalType": "address",
          "name": "to",
          "type": "address"
        },
        {
          "internalType": "uint256",
          "name": "amount",
          "type": "uint256"
        }
      ],
      "name": "transferFrom",
      "outputs": [
        {
          "internalType": "bool",
          "name": "",
          "type": "bool"
        }
      ],
      "stateMutability": "nonpayable",
      "type": "function"
    },
    {
      "inputs": [
        {
          "internalType": "address",
          "name": "newOwner",
          "type": "address"
        }
      ],
      "name": "transferOwnership",
      "outputs": [],
      "stateMutability": "nonpayable",
      "type": "function"
    },
    {
      "inputs": [],
      "name": "unpause",
      "outputs": [],
      "stateMutability": "nonpayable",
      "type": "function"
    }
  ],
  "bytecode": "0x60c06040523480156200001157600080fd5b5060405162002c2338038062002c2383398101604081905262000034916200028e565b818133604051806040016040528060088152602001672628102a37b5b2b760c11b8152506040518060400160405280600281526020016104c560f41b81525081600390816200008491906200036b565b5060046200009382826200036b565b50506005805460ff19169055506001600160a01b038116620000d057604051631e4fbdf760e01b8152600060048201526024015b60405180910390fd5b620000db8162000217565b506005805460ff60a81b191690556001600160a01b038216620001415760405162461bcd60e51b815260206004820152601660248201527f42617365506f6f6c3a205a45524f5f41444452455353000000000000000000006044820152606401620000c7565b6001600160a01b038116620001995760405162461bcd60e51b815260206004820152601660248201527f42617365506f6f6c3a205a45524f5f41444452455353000000000000000000006044820152606401620000c7565b806001600160a01b0316826001600160a01b031603620001fc5760405162461bcd60e51b815260206004820152601d60248201527f42617365506f6f6c3a204944454e544943414c5f4144445245535345530000006044820152606401620000c7565b6001600160a01b039182166080521660a05250620004379050565b600580546001600160a01b03838116610100818102610100600160a81b031985161790945560405193909204169182907f8be0079c531659141344cd1fd0a4f28419497f9722a3daafe3b4186f6b6457e090600090a35050565b80516001600160a01b03811681146200028957600080fd5b919050565b60008060408385031215620002a257600080fd5b620002ad8362000271565b9150620002bd6020840162000271565b90509250929050565b634e487b7160e01b600052604160045260246000fd5b600181811c90821680620002f157607f821691505b6020821081036200031257634e487b7160e01b600052602260045260246000fd5b50919050565b601f8211156200036657600081815260208120601f850160051c81016020861015620003415750805b601f850160051c820191505b8181101562000362578281556001016200034d565b5050505b505050565b81516001600160401b03811115620003875762000387620002c6565b6200039f81620003988454620002dc565b8462000318565b602080601f831160018114620003d75760008415620003be5750858301515b600019600386901b1c1916600185901b17855562000362565b600085815260208120601f198616915b828110156200040857888601518255948401946001909101908401620003e7565b5085821015620004275787850151600019600388901b60f8161c191681555b5050505050600190811b01905550565b60805160a051612748620004db6000396000818161041a015281816105680152818161093b01528181610a1e01528181610b9101528181610bcd01528181610fe80152818161103b015281816111940152818161131e015281816114b3015281816115b30152818161169001528181611b9401528181611c6701528181611caf0152611f8c0152600081816105cf015281816112890152611f0101526127486000f3fe608060405234801561001057600080fd5b50600436106102065760003560e01c8063688414311161011a5780639c8f9f23116100ad578063c4d66de81161007c578063c4d66de814610405578063d21220a714610418578063dd62ed3e1461043e578063f2fde38b14610477578063fe4b84df1461048a57600080fd5b80639c8f9f23146103c45780639dc29fac146103d7578063a9059cbb146103ea578063abba535d146103fd57600080fd5b80638456cb59116100e95780638456cb591461038b5780638da5cb5b14610393578063929f8c75146103a957806395d89b41146103bc57600080fd5b806368841431146103405780636d069a671461034757806370a082311461035a578063715018a61461038357600080fd5b806323b872dd1161019d5780633f4ba83a1161016c5780633f4ba83a146102fd57806340c10f191461030757806351c6590a1461031a5780635c975abb1461032d5780636839b5fa1461033857600080fd5b806323b872dd146102c7578063313ce567146102da57806332cb6b0c146102e9578063392e53cd146102f257600080fd5b8063158ef93e116101d9578063158ef93e1461028957806316f0115b1461029b57806318160ddd146102ac57806321b77d63146102be57600080fd5b806306fdde031461020b5780630902f1ac14610229578063095ea7b3146102465780630dfe168114610269575b600080fd5b61021361049d565b60405161022091906123da565b60405180910390f35b61023161052f565b60408051928352602083019190915201610220565b61025961025436600461243f565b6105b3565b6040519015158152602001610220565b6102716105cd565b6040516001600160a01b039091168152602001610220565b600554600160a81b900460ff16610259565b6006546001600160a01b0316610271565b6002545b604051908152602001610220565b6102b06103e881565b6102596102d5366004612469565b6105f1565b60405160128152602001610220565b6102b060001981565b60095460ff16610259565b61030561067d565b005b61030561031536600461243f565b61068f565b6102b06103283660046124a5565b6107fa565b60055460ff16610259565b6102b0600a81565b60016102b0565b6102b06103553660046124be565b610af8565b6102b06103683660046124fa565b6001600160a01b031660009081526020819052604090205490565b610305611120565b610305611132565b60055461010090046001600160a01b0316610271565b6102b06103b73660046124a5565b611142565b61021361123a565b6102316103d23660046124a5565b611249565b6103056103e536600461243f565b61178d565b6102596103f836600461243f565b6118eb565b6102b0600181565b6103056104133660046124fa565b61194c565b7f0000000000000000000000000000000000000000000000000000000000000000610271565b6102b061044c366004612515565b6001600160a01b03918216600090815260016020908152604080832093909416825291909152205490565b6103056104853660046124fa565b611a03565b6103056104983660046124a5565b611a41565b6060600380546104ac90612548565b80601f01602080910402602001604051908101604052809291908181526020018280546104d890612548565b80156105255780601f106104fa57610100808354040283529160200191610525565b820191906000526020600020905b81548152906001019060200180831161050857829003601f168201915b5050505050905090565b600080600a600061053e6105cd565b6001600160a01b03166001600160a01b0316815260200190815260200160002054600a600061058a7f000000000000000000000000000000000000000000000000000000000000000090565b6001600160a01b03166001600160a01b0316815260200190815260200160002054915091509091565b6000336105c1818585611d2e565b60019150505b92915050565b7f000000000000000000000000000000000000000000000000000000000000000090565b60006105fb611d40565b600182101561066a57826001600160a01b0316846001600160a01b03167f11fa32abca54cea9e42543564c8e59c2f3a9746185b0ec8862fd61fc7488ee068460405161064991815260200190565b60405180910390a36040516315834dd160e11b815260040160405180910390fd5b610675848484611d64565b949350505050565b610685611d88565b61068d611dbb565b565b60095460ff166106ba5760405162461bcd60e51b81526004016106b190612582565b60405180910390fd5b6006546001600160a01b031633146106e55760405163e921159760e01b815260040160405180910390fd5b6001600160a01b03821661072f5760405162461bcd60e51b8152602060048201526011602482015270125b9d985b1a59081c9958da5c1a595b9d607a1b60448201526064016106b1565b6000811161074f5760405162461bcd60e51b81526004016106b1906125b9565b6000198161075c60025490565b61076691906125f4565b11156107a95760405162461bcd60e51b815260206004820152601260248201527145786365656473206d617820737570706c7960701b60448201526064016106b1565b6107b38282611e0d565b816001600160a01b03167fb9144c96c86541f6fa89c9f2f02495cccf4b08cd6643e26d34ee00aa586558a8826040516107ee91815260200190565b60405180910390a25050565b60095460009060ff1661081f5760405162461bcd60e51b81526004016106b190612582565b6000821161083f5760405162461bcd60e51b81526004016106b1906125b9565b600061084a83611142565b90506000811161088e5760405162461bcd60e51b815260206004820152600f60248201526e496e76616c696420616d6f756e743160881b60448201526064016106b1565b6108966105cd565b6001600160a01b03166323b872dd3330866040518463ffffffff1660e01b81526004016108c593929190612607565b6020604051808303816000875af11580156108e4573d6000803e3d6000fd5b505050506040513d601f19601f82011682018060405250810190610908919061262b565b6109245760405162461bcd60e51b81526004016106b19061264d565b6040516323b872dd60e01b81526001600160a01b037f000000000000000000000000000000000000000000000000000000000000000016906323b872dd9061097490339030908690600401612607565b6020604051808303816000875af1158015610993573d6000803e3d6000fd5b505050506040513d601f19601f820116820180604052508101906109b7919061262b565b6109d35760405162461bcd60e51b81526004016106b19061267d565b82600a60006109e06105cd565b6001600160a01b03166001600160a01b031681526020019081526020016000206000828254610a0f91906125f4565b90915550506001600160a01b037f0000000000000000000000000000000000000000000000000000000000000000166000908152600a602052604081208054839290610a5c9084906125f4565b9091555060009050600a81610a6f6105cd565b6001600160a01b03168152602081019190915260400160002054600254610a9690866126ad565b610aa091906126c4565b9050610aac3382611e0d565b604080518581526020810184905290810182905233907f64b83944e79c3ce8d4c297411de637c3e102d064677aac0c163976ebdcd6f50e9060600160405180910390a29150505b919050565b60095460009060ff16610b1d5760405162461bcd60e51b81526004016106b190612582565b816001600160a01b0316846001600160a01b031603610b6c5760405162461bcd60e51b815260206004820152600b60248201526a53616d6520746f6b656e7360a81b60448201526064016106b1565b610b746105cd565b6001600160a01b0316846001600160a01b0316148015610bc557507f00000000000000000000000000000000000000000000000000000000000000006001600160a01b0316826001600160a01b0316145b80610c2457507f00000000000000000000000000000000000000000000000000000000000000006001600160a01b0316846001600160a01b0316148015610c245750610c0f6105cd565b6001600160a01b0316826001600160a01b0316145b610c655760405162461bcd60e51b815260206004820152601260248201527124b73b30b634b2103a37b5b2b7103830b4b960711b60448201526064016106b1565b60008311610ca95760405162461bcd60e51b815260206004820152601160248201527016995c9bc81a5b9c1d5d08185b5bdd5b9d607a1b60448201526064016106b1565b600080610cb461052f565b915091506000610cc26105cd565b6001600160a01b0316876001600160a01b031614610cfc5781610ced84670de0b6b3a76400006126ad565b610cf791906126c4565b610d19565b82610d0f83670de0b6b3a76400006126ad565b610d1991906126c4565b90506000610d256105cd565b6001600160a01b0316886001600160a01b031603610d6257610d4787856125f4565b610d5184896126ad565b610d5b91906126c4565b9050610d83565b610d6c87846125f4565b610d7685896126ad565b610d8091906126c4565b90505b6000610d8d6105cd565b6001600160a01b0316896001600160a01b031614610dda57610daf88856125f4565b610db983876126e6565b610dcb90670de0b6b3a76400006126ad565b610dd591906126c4565b610e0a565b610de488866125f4565b610dee83866126e6565b610e0090670de0b6b3a76400006126ad565b610e0a91906126c4565b9050610e168382611e47565b6040516323b872dd60e01b81526001600160a01b038a16906323b872dd90610e4690339030908d90600401612607565b6020604051808303816000875af1158015610e65573d6000803e3d6000fd5b505050506040513d601f19601f82011682018060405250810190610e89919061262b565b610eca5760405162461bcd60e51b8152602060048201526012602482015271151c985b9cd9995c881a5b8819985a5b195960721b60448201526064016106b1565b60405163a9059cbb60e01b8152336004820152602481018390526001600160a01b0388169063a9059cbb906044016020604051808303816000875af1158015610f17573d6000803e3d6000fd5b505050506040513d601f19601f82011682018060405250810190610f3b919061262b565b610f7d5760405162461bcd60e51b8152602060048201526013602482015272151c985b9cd9995c881bdd5d0819985a5b1959606a1b60448201526064016106b1565b610f856105cd565b6001600160a01b0316896001600160a01b0316036110315787600a6000610faa6105cd565b6001600160a01b03166001600160a01b031681526020019081526020016000206000828254610fd991906125f4565b90915550506001600160a01b037f0000000000000000000000000000000000000000000000000000000000000000166000908152600a6020526040812080548492906110269084906126e6565b909155506110c19050565b6001600160a01b037f0000000000000000000000000000000000000000000000000000000000000000166000908152600a6020526040812080548a92906110799084906125f4565b90915550829050600a600061108c6105cd565b6001600160a01b03166001600160a01b0316815260200190815260200160002060008282546110bb91906126e6565b90915550505b60408051898152602081018490526001600160a01b03808a1692908c169133917fcd3829a3813dc3cdd188fd3d01dcf3268c16be2fdd2dd21d0665418816e46062910160405180910390a4611114611eec565b50979650505050505050565b611128611d88565b61068d6000612004565b61113a611d88565b61068d61205e565b600061115060095460ff1690565b611158575090565b6000600a60006111666105cd565b6001600160a01b03166001600160a01b031681526020019081526020016000205490506000600a60006111b67f000000000000000000000000000000000000000000000000000000000000000090565b6001600160a01b03166001600160a01b031681526020019081526020016000205490506000821180156111e95750600081115b6112255760405162461bcd60e51b815260206004820152600d60248201526c506f6f6c20697320656d70747960981b60448201526064016106b1565b8161123082866126ad565b61067591906126c4565b6060600480546104ac90612548565b600954600090819060ff166112705760405162461bcd60e51b81526004016106b190612582565b6040516370a0823160e01b81523060048201526103e8907f00000000000000000000000000000000000000000000000000000000000000006001600160a01b0316906370a0823190602401602060405180830381865afa1580156112d8573d6000803e3d6000fd5b505050506040513d601f19601f820116820180604052508101906112fc91906126f9565b1015801561139457506040516370a0823160e01b81523060048201526103e8907f00000000000000000000000000000000000000000000000000000000000000006001600160a01b0316906370a0823190602401602060405180830381865afa15801561136d573d6000803e3d6000fd5b505050506040513d601f19601f8201168201806040525081019061139191906126f9565b10155b6113e05760405162461bcd60e51b815260206004820181905260248201527f42617365506f6f6c3a20494e53554646494349454e545f4c495155494449545960448201526064016106b1565b600083116114005760405162461bcd60e51b81526004016106b1906125b9565b3360009081526020819052604090205483111561145f5760405162461bcd60e51b815260206004820152601760248201527f496e73756666696369656e74204c502062616c616e636500000000000000000060448201526064016106b1565b600061146a60025490565b9050600081600a600061147b6105cd565b6001600160a01b0316815260208101919091526040016000205461149f90876126ad565b6114a991906126c4565b6001600160a01b037f0000000000000000000000000000000000000000000000000000000000000000166000908152600a60205260408120549192509083906114f290886126ad565b6114fc91906126c4565b9050600061150a87856126e6565b90506103e881101561155e5760405162461bcd60e51b815260206004820152601d60248201527f576f756c6420627265616b206d696e696d756d206c697175696469747900000060448201526064016106b1565b611568338861209b565b82600a60006115756105cd565b6001600160a01b03166001600160a01b0316815260200190815260200160002060008282546115a491906126e6565b90915550506001600160a01b037f0000000000000000000000000000000000000000000000000000000000000000166000908152600a6020526040812080548492906115f19084906126e6565b909155506115ff90506105cd565b60405163a9059cbb60e01b8152336004820152602481018590526001600160a01b03919091169063a9059cbb906044016020604051808303816000875af115801561164e573d6000803e3d6000fd5b505050506040513d601f19601f82011682018060405250810190611672919061262b565b61168e5760405162461bcd60e51b81526004016106b19061264d565b7f000000000000000000000000000000000000000000000000000000000000000060405163a9059cbb60e01b8152336004820152602481018490526001600160a01b03919091169063a9059cbb906044016020604051808303816000875af11580156116fe573d6000803e3d6000fd5b505050506040513d601f19601f82011682018060405250810190611722919061262b565b61173e5760405162461bcd60e51b81526004016106b19061267d565b604080518481526020810184905290810188905233907f1dc8bb69df2b8e91fbdcbfcf93d951b3f0000f085a95fe3f7946d6161439245d9060600160405180910390a250909350915050915091565b60095460ff166117af5760405162461bcd60e51b81526004016106b190612582565b6006546001600160a01b031633146117da5760405163e921159760e01b815260040160405180910390fd5b6001600160a01b0382166118215760405162461bcd60e51b815260206004820152600e60248201526d24b73b30b634b21039b2b73232b960911b60448201526064016106b1565b600081116118415760405162461bcd60e51b81526004016106b1906125b9565b80611861836001600160a01b031660009081526020819052604090205490565b10156118a65760405162461bcd60e51b8152602060048201526014602482015273496e73756666696369656e742062616c616e636560601b60448201526064016106b1565b6118b0828261209b565b816001600160a01b03167f1af5163f80e79b5e554f61e1d052084d3a3fe1166e42a265798c4e2ddce8ffa2826040516107ee91815260200190565b60006118f5611d40565b600182101561193b576040518281526001600160a01b0384169033907f11fa32abca54cea9e42543564c8e59c2f3a9746185b0ec8862fd61fc7488ee0690602001610649565b61194583836120d1565b9392505050565b611954611d88565b600554600160a81b900460ff161561197e5760405162dc149f60e41b815260040160405180910390fd5b6001600160a01b0381166119a55760405163d92e233d60e01b815260040160405180910390fd5b600680546001600160a01b0383166001600160a01b031990911681179091556005805460ff60a81b1916600160a81b1790556040517f025f89b99c8ce32af8da7624f4575b920a86ebf07870d85a9fb545fee349ddce90600090a250565b611a0b611d88565b6001600160a01b038116611a3557604051631e4fbdf760e01b8152600060048201526024016106b1565b611a3e81612004565b50565b60095460ff1615611a945760405162461bcd60e51b815260206004820152601860248201527f506f6f6c20616c726561647920696e697469616c697a6564000000000000000060448201526064016106b1565b6103e8811015611ae65760405162461bcd60e51b815260206004820152601960248201527f496e697469616c206c697175696469747920746f6f206c6f770000000000000060448201526064016106b1565b80611aef6105cd565b6001600160a01b03166323b872dd3330856040518463ffffffff1660e01b8152600401611b1e93929190612607565b6020604051808303816000875af1158015611b3d573d6000803e3d6000fd5b505050506040513d601f19601f82011682018060405250810190611b61919061262b565b611b7d5760405162461bcd60e51b81526004016106b19061264d565b6040516323b872dd60e01b81526001600160a01b037f000000000000000000000000000000000000000000000000000000000000000016906323b872dd90611bcd90339030908690600401612607565b6020604051808303816000875af1158015611bec573d6000803e3d6000fd5b505050506040513d601f19601f82011682018060405250810190611c10919061262b565b611c2c5760405162461bcd60e51b81526004016106b19061267d565b81600a6000611c396105cd565b6001600160a01b03166001600160a01b031681526020019081526020016000208190555080600a6000611c897f000000000000000000000000000000000000000000000000000000000000000090565b6001600160a01b03168152602081019190915260400160002055611cad3383611e0d565b7f00000000000000000000000000000000000000000000000000000000000000006001600160a01b0316611cdf6105cd565b6001600160a01b03167f9ff2050ac7faae9dc192e1cc9abe73b18a9b849f9b43f509914d80fa104d59038484604051611d22929190918252602082015260400190565b60405180910390a35050565b611d3b83838360016120df565b505050565b60055460ff161561068d5760405163d93c066560e01b815260040160405180910390fd5b600033611d728582856121b5565b611d7d85858561222e565b506001949350505050565b6005546001600160a01b0361010090910416331461068d5760405163118cdaa760e01b81523360048201526024016106b1565b611dc361228d565b6005805460ff191690557f5db9ee0a495bf2e6ff9c91a7834c1ba4fdd244a5e8aa4e537bd38aeae4b073aa335b6040516001600160a01b03909116815260200160405180910390a1565b6001600160a01b038216611e375760405163ec442f0560e01b8152600060048201526024016106b1565b611e43600083836122b0565b5050565b600082821115611e785782611e5c81846126e6565b611e679060646126ad565b611e7191906126c4565b9050611e9b565b82611e8383826126e6565b611e8e9060646126ad565b611e9891906126c4565b90505b600a811115611d3b5760405162461bcd60e51b815260206004820152601f60248201527f42617365506f6f6c3a2050524943455f494d504143545f544f4f5f484947480060448201526064016106b1565b6040516370a0823160e01b81523060048201527f00000000000000000000000000000000000000000000000000000000000000006001600160a01b0316906370a0823190602401602060405180830381865afa158015611f50573d6000803e3d6000fd5b505050506040513d601f19601f82011682018060405250810190611f7491906126f9565b6007556040516370a0823160e01b81523060048201527f00000000000000000000000000000000000000000000000000000000000000006001600160a01b0316906370a0823190602401602060405180830381865afa158015611fdb573d6000803e3d6000fd5b505050506040513d601f19601f82011682018060405250810190611fff91906126f9565b600855565b600580546001600160a01b03838116610100818102610100600160a81b031985161790945560405193909204169182907f8be0079c531659141344cd1fd0a4f28419497f9722a3daafe3b4186f6b6457e090600090a35050565b612066611d40565b6005805460ff191660011790557f62e78cea01bee320cd4e420270b5ea74000d11b0c9f74754ebdbfc544b05a258611df03390565b6001600160a01b0382166120c557604051634b637e8f60e11b8152600060048201526024016106b1565b611e43826000836122b0565b6000336105c181858561222e565b6001600160a01b0384166121095760405163e602df0560e01b8152600060048201526024016106b1565b6001600160a01b03831661213357604051634a1406b160e11b8152600060048201526024016106b1565b6001600160a01b03808516600090815260016020908152604080832093871683529290522082905580156121af57826001600160a01b0316846001600160a01b03167f8c5be1e5ebec7d5bd14f71427d1e84f3dd0314c0f7b2291e5b200ac8c7c3b925846040516121a691815260200190565b60405180910390a35b50505050565b6001600160a01b038381166000908152600160209081526040808320938616835292905220546000198110156121af578181101561221f57604051637dc7a0d960e11b81526001600160a01b038416600482015260248101829052604481018390526064016106b1565b6121af848484840360006120df565b6001600160a01b03831661225857604051634b637e8f60e11b8152600060048201526024016106b1565b6001600160a01b0382166122825760405163ec442f0560e01b8152600060048201526024016106b1565b611d3b8383836122b0565b60055460ff1661068d57604051638dfc202b60e01b815260040160405180910390fd5b6001600160a01b0383166122db5780600260008282546122d091906125f4565b9091555061234d9050565b6001600160a01b0383166000908152602081905260409020548181101561232e5760405163391434e360e21b81526001600160a01b038516600482015260248101829052604481018390526064016106b1565b6001600160a01b03841660009081526020819052604090209082900390555b6001600160a01b03821661236957600280548290039055612388565b6001600160a01b03821660009081526020819052604090208054820190555b816001600160a01b0316836001600160a01b03167fddf252ad1be2c89b69c2b068fc378daa952ba7f163c4a11628f55a4df523b3ef836040516123cd91815260200190565b60405180910390a3505050565b600060208083528351808285015260005b81811015612407578581018301518582016040015282016123eb565b506000604082860101526040601f19601f8301168501019250505092915050565b80356001600160a01b0381168114610af357600080fd5b6000806040838503121561245257600080fd5b61245b83612428565b946020939093013593505050565b60008060006060848603121561247e57600080fd5b61248784612428565b925061249560208501612428565b9150604084013590509250925092565b6000602082840312156124b757600080fd5b5035919050565b6000806000606084860312156124d357600080fd5b6124dc84612428565b9250602084013591506124f160408501612428565b90509250925092565b60006020828403121561250c57600080fd5b61194582612428565b6000806040838503121561252857600080fd5b61253183612428565b915061253f60208401612428565b90509250929050565b600181811c9082168061255c57607f821691505b60208210810361257c57634e487b7160e01b600052602260045260246000fd5b50919050565b60208082526019908201527f42617365506f6f6c3a204e4f545f494e495449414c495a454400000000000000604082015260600190565b6020808252600b908201526a16995c9bc8185b5bdd5b9d60aa1b604082015260600190565b634e487b7160e01b600052601160045260246000fd5b808201808211156105c7576105c76125de565b6001600160a01b039384168152919092166020820152604081019190915260600190565b60006020828403121561263d57600080fd5b8151801515811461194557600080fd5b602080825260169082015275151c985b9cd9995c881d1bdad95b8c0819985a5b195960521b604082015260600190565b602080825260169082015275151c985b9cd9995c881d1bdad95b8c4819985a5b195960521b604082015260600190565b80820281158282048414176105c7576105c76125de565b6000826126e157634e487b7160e01b600052601260045260246000fd5b500490565b818103818111156105c7576105c76125de565b60006020828403121561270b57600080fd5b505191905056fea2646970667358221220a3c24056dd5e6aa1a5e1d7c766af068d898a802418dc05bd3c931e1fa11e502b64736f6c63430008140033",
  "linkReferences": {},
  "deployedLinkReferences": {}
}