{
  "_format": "hh-sol-artifact-1",
  "contractName": "NewToken",
  "sourceName": "contracts/NewToken.sol",
  "abi": [
    {
      "inputs": [
        {
          "internalType": "string",
          "name": "name",
          "type": "string"
        },
        {
          "internalType": "string",
          "name": "symbol",
          "type": "string"
        },
        {
          "internalType": "string",
          "name": "metadataURI",
          "type": "string"
        }
      ],
      "stateMutability": "nonpayable",
      "type": "constructor"
    },
    {
      "inputs": [],
      "name": "CheckpointUnorderedInsertion",
      "type": "error"
    },
    {
      "inputs": [],
      "name": "ECDSAInvalidSignature",
      "type": "error"
    },
    {
      "inputs": [
        {
          "internalType": "uint256",
          "name": "length",
          "type": "uint256"
        }
      ],
      "name": "ECDSAInvalidSignatureLength",
      "type": "error"
    },
    {
      "inputs": [
        {
          "internalType": "bytes32",
          "name": "s",
          "type": "bytes32"
        }
      ],
      "name": "ECDSAInvalidSignatureS",
      "type": "error"
    },
    {
      "inputs": [
        {
          "internalType": "uint256",
          "name": "increasedSupply",
          "type": "uint256"
        },
        {
          "internalType": "uint256",
          "name": "cap",
          "type": "uint256"
        }
      ],
      "name": "ERC20ExceededSafeSupply",
      "type": "error"
    },
    {
      "inputs": [
        {
          "internalType": "address",
          "name": "spender",
          "type": "address"
        },
        {
          "internalType": "uint256",
          "name": "allowance",
          "type": "uint256"
        },
        {
          "internalType": "uint256",
          "name": "needed",
          "type": "uint256"
        }
      ],
      "name": "ERC20InsufficientAllowance",
      "type": "error"
    },
    {
      "inputs": [
        {
          "internalType": "address",
          "name": "sender",
          "type": "address"
        },
        {
          "internalType": "uint256",
          "name": "balance",
          "type": "uint256"
        },
        {
          "internalType": "uint256",
          "name": "needed",
          "type": "uint256"
        }
      ],
      "name": "ERC20InsufficientBalance",
      "type": "error"
    },
    {
      "inputs": [
        {
          "internalType": "address",
          "name": "approver",
          "type": "address"
        }
      ],
      "name": "ERC20InvalidApprover",
      "type": "error"
    },
    {
      "inputs": [
        {
          "internalType": "address",
          "name": "receiver",
          "type": "address"
        }
      ],
      "name": "ERC20InvalidReceiver",
      "type": "error"
    },
    {
      "inputs": [
        {
          "internalType": "address",
          "name": "sender",
          "type": "address"
        }
      ],
      "name": "ERC20InvalidSender",
      "type": "error"
    },
    {
      "inputs": [
        {
          "internalType": "address",
          "name": "spender",
          "type": "address"
        }
      ],
      "name": "ERC20InvalidSpender",
      "type": "error"
    },
    {
      "inputs": [
        {
          "internalType": "uint256",
          "name": "deadline",
          "type": "uint256"
        }
      ],
      "name": "ERC2612ExpiredSignature",
      "type": "error"
    },
    {
      "inputs": [
        {
          "internalType": "address",
          "name": "signer",
          "type": "address"
        },
        {
          "internalType": "address",
          "name": "owner",
          "type": "address"
        }
      ],
      "name": "ERC2612InvalidSigner",
      "type": "error"
    },
    {
      "inputs": [
        {
          "internalType": "uint256",
          "name": "timepoint",
          "type": "uint256"
        },
        {
          "internalType": "uint48",
          "name": "clock",
          "type": "uint48"
        }
      ],
      "name": "ERC5805FutureLookup",
      "type": "error"
    },
    {
      "inputs": [],
      "name": "ERC6372InconsistentClock",
      "type": "error"
    },
    {
      "inputs": [],
      "name": "EnforcedPause",
      "type": "error"
    },
    {
      "inputs": [],
      "name": "ExpectedPause",
      "type": "error"
    },
    {
      "inputs": [
        {
          "internalType": "address",
          "name": "account",
          "type": "address"
        },
        {
          "internalType": "uint256",
          "name": "currentNonce",
          "type": "uint256"
        }
      ],
      "name": "InvalidAccountNonce",
      "type": "error"
    },
    {
      "inputs": [],
      "name": "InvalidShortString",
      "type": "error"
    },
    {
      "inputs": [
        {
          "internalType": "address",
          "name": "owner",
          "type": "address"
        }
      ],
      "name": "OwnableInvalidOwner",
      "type": "error"
    },
    {
      "inputs": [
        {
          "internalType": "address",
          "name": "account",
          "type": "address"
        }
      ],
      "name": "OwnableUnauthorizedAccount",
      "type": "error"
    },
    {
      "inputs": [
        {
          "internalType": "uint8",
          "name": "bits",
          "type": "uint8"
        },
        {
          "internalType": "uint256",
          "name": "value",
          "type": "uint256"
        }
      ],
      "name": "SafeCastOverflowedUintDowncast",
      "type": "error"
    },
    {
      "inputs": [
        {
          "internalType": "string",
          "name": "str",
          "type": "string"
        }
      ],
      "name": "StringTooLong",
      "type": "error"
    },
    {
      "inputs": [
        {
          "internalType": "uint256",
          "name": "expiry",
          "type": "uint256"
        }
      ],
      "name": "VotesExpiredSignature",
      "type": "error"
    },
    {
      "anonymous": false,
      "inputs": [
        {
          "indexed": true,
          "internalType": "address",
          "name": "owner",
          "type": "address"
        },
        {
          "indexed": true,
          "internalType": "address",
          "name": "spender",
          "type": "address"
        },
        {
          "indexed": false,
          "internalType": "uint256",
          "name": "value",
          "type": "uint256"
        }
      ],
      "name": "Approval",
      "type": "event"
    },
    {
      "anonymous": false,
      "inputs": [
        {
          "indexed": true,
          "internalType": "address",
          "name": "delegator",
          "type": "address"
        },
        {
          "indexed": true,
          "internalType": "address",
          "name": "fromDelegate",
          "type": "address"
        },
        {
          "indexed": true,
          "internalType": "address",
          "name": "toDelegate",
          "type": "address"
        }
      ],
      "name": "DelegateChanged",
      "type": "event"
    },
    {
      "anonymous": false,
      "inputs": [
        {
          "indexed": true,
          "internalType": "address",
          "name": "delegate",
          "type": "address"
        },
        {
          "indexed": false,
          "internalType": "uint256",
          "name": "previousVotes",
          "type": "uint256"
        },
        {
          "indexed": false,
          "internalType": "uint256",
          "name": "newVotes",
          "type": "uint256"
        }
      ],
      "name": "DelegateVotesChanged",
      "type": "event"
    },
    {
      "anonymous": false,
      "inputs": [],
      "name": "EIP712DomainChanged",
      "type": "event"
    },
    {
      "anonymous": false,
      "inputs": [
        {
          "indexed": false,
          "internalType": "uint256",
          "name": "oldAmount",
          "type": "uint256"
        },
        {
          "indexed": false,
          "internalType": "uint256",
          "name": "newAmount",
          "type": "uint256"
        }
      ],
      "name": "MaxTransferAmountUpdated",
      "type": "event"
    },
    {
      "anonymous": false,
      "inputs": [
        {
          "indexed": true,
          "internalType": "address",
          "name": "previousOwner",
          "type": "address"
        },
        {
          "indexed": true,
          "internalType": "address",
          "name": "newOwner",
          "type": "address"
        }
      ],
      "name": "OwnershipTransferred",
      "type": "event"
    },
    {
      "anonymous": false,
      "inputs": [
        {
          "indexed": false,
          "internalType": "address",
          "name": "account",
          "type": "address"
        }
      ],
      "name": "Paused",
      "type": "event"
    },
    {
      "anonymous": false,
      "inputs": [
        {
          "indexed": true,
          "internalType": "address",
          "name": "from",
          "type": "address"
        },
        {
          "indexed": false,
          "internalType": "uint256",
          "name": "amount",
          "type": "uint256"
        }
      ],
      "name": "TokenBurned",
      "type": "event"
    },
    {
      "anonymous": false,
      "inputs": [
        {
          "indexed": true,
          "internalType": "address",
          "name": "to",
          "type": "address"
        },
        {
          "indexed": false,
          "internalType": "uint256",
          "name": "amount",
          "type": "uint256"
        }
      ],
      "name": "TokenMinted",
      "type": "event"
    },
    {
      "anonymous": false,
      "inputs": [
        {
          "indexed": false,
          "internalType": "string",
          "name": "newTokenURI",
          "type": "string"
        }
      ],
      "name": "TokenURISet",
      "type": "event"
    },
    {
      "anonymous": false,
      "inputs": [
        {
          "indexed": true,
          "internalType": "address",
          "name": "from",
          "type": "address"
        },
        {
          "indexed": true,
          "internalType": "address",
          "name": "to",
          "type": "address"
        },
        {
          "indexed": false,
          "internalType": "uint256",
          "name": "value",
          "type": "uint256"
        }
      ],
      "name": "Transfer",
      "type": "event"
    },
    {
      "anonymous": false,
      "inputs": [
        {
          "indexed": false,
          "internalType": "bool",
          "name": "oldStatus",
          "type": "bool"
        },
        {
          "indexed": false,
          "internalType": "bool",
          "name": "newStatus",
          "type": "bool"
        }
      ],
      "name": "TransferRestrictionUpdated",
      "type": "event"
    },
    {
      "anonymous": false,
      "inputs": [
        {
          "indexed": false,
          "internalType": "address",
          "name": "account",
          "type": "address"
        }
      ],
      "name": "Unpaused",
      "type": "event"
    },
    {
      "inputs": [],
      "name": "CLOCK_MODE",
      "outputs": [
        {
          "internalType": "string",
          "name": "",
          "type": "string"
        }
      ],
      "stateMutability": "view",
      "type": "function"
    },
    {
      "inputs": [],
      "name": "DOMAIN_SEPARATOR",
      "outputs": [
        {
          "internalType": "bytes32",
          "name": "",
          "type": "bytes32"
        }
      ],
      "stateMutability": "view",
      "type": "function"
    },
    {
      "inputs": [],
      "name": "MAX_SUPPLY",
      "outputs": [
        {
          "internalType": "uint256",
          "name": "",
          "type": "uint256"
        }
      ],
      "stateMutability": "view",
      "type": "function"
    },
    {
      "inputs": [],
      "name": "MIN_BALANCE",
      "outputs": [
        {
          "internalType": "uint256",
          "name": "",
          "type": "uint256"
        }
      ],
      "stateMutability": "view",
      "type": "function"
    },
    {
      "inputs": [
        {
          "internalType": "address",
          "name": "owner",
          "type": "address"
        },
        {
          "internalType": "address",
          "name": "spender",
          "type": "address"
        }
      ],
      "name": "allowance",
      "outputs": [
        {
          "internalType": "uint256",
          "name": "",
          "type": "uint256"
        }
      ],
      "stateMutability": "view",
      "type": "function"
    },
    {
      "inputs": [
        {
          "internalType": "address",
          "name": "spender",
          "type": "address"
        },
        {
          "internalType": "uint256",
          "name": "value",
          "type": "uint256"
        }
      ],
      "name": "approve",
      "outputs": [
        {
          "internalType": "bool",
          "name": "",
          "type": "bool"
        }
      ],
      "stateMutability": "nonpayable",
      "type": "function"
    },
    {
      "inputs": [
        {
          "internalType": "address",
          "name": "account",
          "type": "address"
        }
      ],
      "name": "balanceOf",
      "outputs": [
        {
          "internalType": "uint256",
          "name": "",
          "type": "uint256"
        }
      ],
      "stateMutability": "view",
      "type": "function"
    },
    {
      "inputs": [
        {
          "internalType": "uint256",
          "name": "amount",
          "type": "uint256"
        }
      ],
      "name": "burn",
      "outputs": [],
      "stateMutability": "nonpayable",
      "type": "function"
    },
    {
      "inputs": [
        {
          "internalType": "address",
          "name": "account",
          "type": "address"
        },
        {
          "internalType": "uint256",
          "name": "value",
          "type": "uint256"
        }
      ],
      "name": "burnFrom",
      "outputs": [],
      "stateMutability": "nonpayable",
      "type": "function"
    },
    {
      "inputs": [
        {
          "internalType": "address",
          "name": "account",
          "type": "address"
        },
        {
          "internalType": "uint32",
          "name": "pos",
          "type": "uint32"
        }
      ],
      "name": "checkpoints",
      "outputs": [
        {
          "components": [
            {
              "internalType": "uint48",
              "name": "_key",
              "type": "uint48"
            },
            {
              "internalType": "uint208",
              "name": "_value",
              "type": "uint208"
            }
          ],
          "internalType": "struct Checkpoints.Checkpoint208",
          "name": "",
          "type": "tuple"
        }
      ],
      "stateMutability": "view",
      "type": "function"
    },
    {
      "inputs": [],
      "name": "clock",
      "outputs": [
        {
          "internalType": "uint48",
          "name": "",
          "type": "uint48"
        }
      ],
      "stateMutability": "view",
      "type": "function"
    },
    {
      "inputs": [],
      "name": "decimals",
      "outputs": [
        {
          "internalType": "uint8",
          "name": "",
          "type": "uint8"
        }
      ],
      "stateMutability": "view",
      "type": "function"
    },
    {
      "inputs": [
        {
          "internalType": "address",
          "name": "delegatee",
          "type": "address"
        }
      ],
      "name": "delegate",
      "outputs": [],
      "stateMutability": "nonpayable",
      "type": "function"
    },
    {
      "inputs": [
        {
          "internalType": "address",
          "name": "delegatee",
          "type": "address"
        },
        {
          "internalType": "uint256",
          "name": "nonce",
          "type": "uint256"
        },
        {
          "internalType": "uint256",
          "name": "expiry",
          "type": "uint256"
        },
        {
          "internalType": "uint8",
          "name": "v",
          "type": "uint8"
        },
        {
          "internalType": "bytes32",
          "name": "r",
          "type": "bytes32"
        },
        {
          "internalType": "bytes32",
          "name": "s",
          "type": "bytes32"
        }
      ],
      "name": "delegateBySig",
      "outputs": [],
      "stateMutability": "nonpayable",
      "type": "function"
    },
    {
      "inputs": [
        {
          "internalType": "address",
          "name": "account",
          "type": "address"
        }
      ],
      "name": "delegates",
      "outputs": [
        {
          "internalType": "address",
          "name": "",
          "type": "address"
        }
      ],
      "stateMutability": "view",
      "type": "function"
    },
    {
      "inputs": [],
      "name": "eip712Domain",
      "outputs": [
        {
          "internalType": "bytes1",
          "name": "fields",
          "type": "bytes1"
        },
        {
          "internalType": "string",
          "name": "name",
          "type": "string"
        },
        {
          "internalType": "string",
          "name": "version",
          "type": "string"
        },
        {
          "internalType": "uint256",
          "name": "chainId",
          "type": "uint256"
        },
        {
          "internalType": "address",
          "name": "verifyingContract",
          "type": "address"
        },
        {
          "internalType": "bytes32",
          "name": "salt",
          "type": "bytes32"
        },
        {
          "internalType": "uint256[]",
          "name": "extensions",
          "type": "uint256[]"
        }
      ],
      "stateMutability": "view",
      "type": "function"
    },
    {
      "inputs": [
        {
          "internalType": "uint256",
          "name": "timepoint",
          "type": "uint256"
        }
      ],
      "name": "getPastTotalSupply",
      "outputs": [
        {
          "internalType": "uint256",
          "name": "",
          "type": "uint256"
        }
      ],
      "stateMutability": "view",
      "type": "function"
    },
    {
      "inputs": [
        {
          "internalType": "address",
          "name": "account",
          "type": "address"
        },
        {
          "internalType": "uint256",
          "name": "timepoint",
          "type": "uint256"
        }
      ],
      "name": "getPastVotes",
      "outputs": [
        {
          "internalType": "uint256",
          "name": "",
          "type": "uint256"
        }
      ],
      "stateMutability": "view",
      "type": "function"
    },
    {
      "inputs": [
        {
          "internalType": "address",
          "name": "account",
          "type": "address"
        }
      ],
      "name": "getVotes",
      "outputs": [
        {
          "internalType": "uint256",
          "name": "",
          "type": "uint256"
        }
      ],
      "stateMutability": "view",
      "type": "function"
    },
    {
      "inputs": [],
      "name": "maxTransferAmount",
      "outputs": [
        {
          "internalType": "uint256",
          "name": "",
          "type": "uint256"
        }
      ],
      "stateMutability": "view",
      "type": "function"
    },
    {
      "inputs": [
        {
          "internalType": "address",
          "name": "to",
          "type": "address"
        },
        {
          "internalType": "uint256",
          "name": "amount",
          "type": "uint256"
        }
      ],
      "name": "mint",
      "outputs": [],
      "stateMutability": "nonpayable",
      "type": "function"
    },
    {
      "inputs": [],
      "name": "name",
      "outputs": [
        {
          "internalType": "string",
          "name": "",
          "type": "string"
        }
      ],
      "stateMutability": "view",
      "type": "function"
    },
    {
      "inputs": [
        {
          "internalType": "address",
          "name": "owner",
          "type": "address"
        }
      ],
      "name": "nonces",
      "outputs": [
        {
          "internalType": "uint256",
          "name": "",
          "type": "uint256"
        }
      ],
      "stateMutability": "view",
      "type": "function"
    },
    {
      "inputs": [
        {
          "internalType": "address",
          "name": "account",
          "type": "address"
        }
      ],
      "name": "numCheckpoints",
      "outputs": [
        {
          "internalType": "uint32",
          "name": "",
          "type": "uint32"
        }
      ],
      "stateMutability": "view",
      "type": "function"
    },
    {
      "inputs": [],
      "name": "owner",
      "outputs": [
        {
          "internalType": "address",
          "name": "",
          "type": "address"
        }
      ],
      "stateMutability": "view",
      "type": "function"
    },
    {
      "inputs": [],
      "name": "pause",
      "outputs": [],
      "stateMutability": "nonpayable",
      "type": "function"
    },
    {
      "inputs": [],
      "name": "paused",
      "outputs": [
        {
          "internalType": "bool",
          "name": "",
          "type": "bool"
        }
      ],
      "stateMutability": "view",
      "type": "function"
    },
    {
      "inputs": [
        {
          "internalType": "address",
          "name": "owner",
          "type": "address"
        },
        {
          "internalType": "address",
          "name": "spender",
          "type": "address"
        },
        {
          "internalType": "uint256",
          "name": "value",
          "type": "uint256"
        },
        {
          "internalType": "uint256",
          "name": "deadline",
          "type": "uint256"
        },
        {
          "internalType": "uint8",
          "name": "v",
          "type": "uint8"
        },
        {
          "internalType": "bytes32",
          "name": "r",
          "type": "bytes32"
        },
        {
          "internalType": "bytes32",
          "name": "s",
          "type": "bytes32"
        }
      ],
      "name": "permit",
      "outputs": [],
      "stateMutability": "nonpayable",
      "type": "function"
    },
    {
      "inputs": [],
      "name": "renounceOwnership",
      "outputs": [],
      "stateMutability": "nonpayable",
      "type": "function"
    },
    {
      "inputs": [
        {
          "internalType": "uint256",
          "name": "newAmount",
          "type": "uint256"
        }
      ],
      "name": "setMaxTransferAmount",
      "outputs": [],
      "stateMutability": "nonpayable",
      "type": "function"
    },
    {
      "inputs": [
        {
          "internalType": "string",
          "name": "newTokenURI",
          "type": "string"
        }
      ],
      "name": "setTokenURI",
      "outputs": [],
      "stateMutability": "nonpayable",
      "type": "function"
    },
    {
      "inputs": [
        {
          "internalType": "bool",
          "name": "newStatus",
          "type": "bool"
        }
      ],
      "name": "setTransferRestriction",
      "outputs": [],
      "stateMutability": "nonpayable",
      "type": "function"
    },
    {
      "inputs": [],
      "name": "symbol",
      "outputs": [
        {
          "internalType": "string",
          "name": "",
          "type": "string"
        }
      ],
      "stateMutability": "view",
      "type": "function"
    },
    {
      "inputs": [],
      "name": "tokenURI",
      "outputs": [
        {
          "internalType": "string",
          "name": "",
          "type": "string"
        }
      ],
      "stateMutability": "view",
      "type": "function"
    },
    {
      "inputs": [],
      "name": "totalSupply",
      "outputs": [
        {
          "internalType": "uint256",
          "name": "",
          "type": "uint256"
        }
      ],
      "stateMutability": "view",
      "type": "function"
    },
    {
      "inputs": [
        {
          "internalType": "address",
          "name": "to",
          "type": "address"
        },
        {
          "internalType": "uint256",
          "name": "value",
          "type": "uint256"
        }
      ],
      "name": "transfer",
      "outputs": [
        {
          "internalType": "bool",
          "name": "",
          "type": "bool"
        }
      ],
      "stateMutability": "nonpayable",
      "type": "function"
    },
    {
      "inputs": [
        {
          "internalType": "address",
          "name": "from",
          "type": "address"
        },
        {
          "internalType": "address",
          "name": "to",
          "type": "address"
        },
        {
          "internalType": "uint256",
          "name": "value",
          "type": "uint256"
        }
      ],
      "name": "transferFrom",
      "outputs": [
        {
          "internalType": "bool",
          "name": "",
          "type": "bool"
        }
      ],
      "stateMutability": "nonpayable",
      "type": "function"
    },
    {
      "inputs": [
        {
          "internalType": "address",
          "name": "newOwner",
          "type": "address"
        }
      ],
      "name": "transferOwnership",
      "outputs": [],
      "stateMutability": "nonpayable",
      "type": "function"
    },
    {
      "inputs": [],
      "name": "transferRestricted",
      "outputs": [
        {
          "internalType": "bool",
          "name": "",
          "type": "bool"
        }
      ],
      "stateMutability": "view",
      "type": "function"
    },
    {
      "inputs": [],
      "name": "unpause",
      "outputs": [],
      "stateMutability": "nonpayable",
      "type": "function"
    }
  ],
  "bytecode": "0x6101606040523480156200001257600080fd5b506040516200307c3803806200307c833981016040819052620000359162000352565b6040805180820190915260018152603160f81b602082015283908190338286600362000062838262000472565b50600462000071828262000472565b50506005805460ff19169055506001600160a01b038116620000ae57604051631e4fbdf760e01b8152600060048201526024015b60405180910390fd5b620000b981620001af565b50620000c782600662000209565b61012052620000d881600762000209565b61014052815160208084019190912060e052815190820120610100524660a0526200016660e05161010051604080517f8b73c3c69bb8fe3d512ecc4cf759cc79239f7b179b0ffacaa9a75d522b39400f60208201529081019290925260608201524660808201523060a082015260009060c00160405160208183030381529060405280519060200120905090565b60805250503060c05250600c6200017e828262000472565b5062000196606469d3c21bcecceda10000006200053e565b600d555050600e805460ff1916600117905550620005bb565b600580546001600160a01b03838116610100818102610100600160a81b031985161790945560405193909204169182907f8be0079c531659141344cd1fd0a4f28419497f9722a3daafe3b4186f6b6457e090600090a35050565b60006020835110156200022957620002218362000242565b90506200023c565b8162000236848262000472565b5060ff90505b92915050565b600080829050601f8151111562000270578260405163305a27a960e01b8152600401620000a5919062000561565b80516200027d8262000596565b179392505050565b634e487b7160e01b600052604160045260246000fd5b60005b83811015620002b85781810151838201526020016200029e565b50506000910152565b600082601f830112620002d357600080fd5b81516001600160401b0380821115620002f057620002f062000285565b604051601f8301601f19908116603f011681019082821181831017156200031b576200031b62000285565b816040528381528660208588010111156200033557600080fd5b620003488460208301602089016200029b565b9695505050505050565b6000806000606084860312156200036857600080fd5b83516001600160401b03808211156200038057600080fd5b6200038e87838801620002c1565b94506020860151915080821115620003a557600080fd5b620003b387838801620002c1565b93506040860151915080821115620003ca57600080fd5b50620003d986828701620002c1565b9150509250925092565b600181811c90821680620003f857607f821691505b6020821081036200041957634e487b7160e01b600052602260045260246000fd5b50919050565b601f8211156200046d57600081815260208120601f850160051c81016020861015620004485750805b601f850160051c820191505b81811015620004695782815560010162000454565b5050505b505050565b81516001600160401b038111156200048e576200048e62000285565b620004a6816200049f8454620003e3565b846200041f565b602080601f831160018114620004de5760008415620004c55750858301515b600019600386901b1c1916600185901b17855562000469565b600085815260208120601f198616915b828110156200050f57888601518255948401946001909101908401620004ee565b50858210156200052e5787850151600019600388901b60f8161c191681555b5050505050600190811b01905550565b6000826200055c57634e487b7160e01b600052601260045260246000fd5b500490565b6020815260008251806020840152620005828160408501602087016200029b565b601f01601f19169190910160400192915050565b80516020808301519190811015620004195760001960209190910360031b1b16919050565b60805160a05160c05160e051610100516101205161014051612a666200061660003960006113c0015260006113930152600061102401526000610ffc01526000610f5701526000610f8101526000610fab0152612a666000f3fe608060405234801561001057600080fd5b50600436106102485760003560e01c8063715018a61161013b57806395d89b41116100b8578063d505accf1161007c578063d505accf14610506578063dd62ed3e14610519578063e0df5b6f14610552578063f1127ed814610565578063f2fde38b146105a457600080fd5b806395d89b41146104bc5780639ab24eb0146104c4578063a9059cbb146104d7578063a9e75723146104ea578063c3cda520146104f357600080fd5b8063867378c5116100ff578063867378c5146104525780638bf55409146104615780638da5cb5b146104745780638e539e8c1461048a57806391ddadf41461049d57600080fd5b8063715018a61461040157806379cc6790146104095780637ecebe001461041c5780638456cb591461042f57806384b0196e1461043757600080fd5b80633f4ba83a116101c9578063587cde1e1161018d578063587cde1e1461034e5780635c19a95c146103925780635c975abb146103a55780636fcfff45146103b057806370a08231146103d857600080fd5b80633f4ba83a1461030b57806340c10f191461031357806342966c681461032657806348709a93146103395780634bf5d7e91461034657600080fd5b8063313ce56711610210578063313ce567146102c857806332cb6b0c146102d75780633644e515146102e85780633a46b1a8146102f05780633c130d901461030357600080fd5b806306fdde031461024d578063095ea7b31461026b5780630d659ec51461028e57806318160ddd146102a357806323b872dd146102b5575b600080fd5b6102556105b7565b6040516102629190612473565b60405180910390f35b61027e6102793660046124a2565b610649565b6040519015158152602001610262565b6102a161029c3660046124cc565b610663565b005b6002545b604051908152602001610262565b61027e6102c33660046124ee565b6106c2565b60405160128152602001610262565b6102a769d3c21bcecceda100000081565b6102a76106e6565b6102a76102fe3660046124a2565b6106f5565b610255610731565b6102a1610740565b6102a16103213660046124a2565b610752565b6102a161033436600461252a565b610812565b600e5461027e9060ff1681565b61025561091a565b61037a61035c366004612543565b6001600160a01b039081166000908152600960205260409020541690565b6040516001600160a01b039091168152602001610262565b6102a16103a0366004612543565b610992565b60055460ff1661027e565b6103c36103be366004612543565b6109a1565b60405163ffffffff9091168152602001610262565b6102a76103e6366004612543565b6001600160a01b031660009081526020819052604090205490565b6102a16109ac565b6102a16104173660046124a2565b6109be565b6102a761042a366004612543565b6109d3565b6102a16109de565b61043f6109ee565b604051610262979695949392919061255e565b6102a7670de0b6b3a764000081565b6102a161046f36600461252a565b610a34565b60055461010090046001600160a01b031661037a565b6102a761049836600461252a565b610aca565b6104a5610aef565b60405165ffffffffffff9091168152602001610262565b610255610af9565b6102a76104d2366004612543565b610b08565b61027e6104e53660046124a2565b610b29565b6102a7600d5481565b6102a1610501366004612605565b610b37565b6102a161051436600461265d565b610bf4565b6102a76105273660046126c7565b6001600160a01b03918216600090815260016020908152604080832093909416825291909152205490565b6102a1610560366004612710565b610d2e565b6105786105733660046127c1565b610dc4565b60408051825165ffffffffffff1681526020928301516001600160d01b03169281019290925201610262565b6102a16105b2366004612543565b610de9565b6060600380546105c690612801565b80601f01602080910402602001604051908101604052809291908181526020018280546105f290612801565b801561063f5780601f106106145761010080835404028352916020019161063f565b820191906000526020600020905b81548152906001019060200180831161062257829003601f168201915b5050505050905090565b600033610657818585610e27565b60019150505b92915050565b61066b610e39565b600e805482151560ff19821681179092556040805160ff909216801515835260208301939093527f35b05563db5dd3045c31a9b46a385d3e34a1b6ad51cc00c23562eccb5619002a91015b60405180910390a15050565b6000336106d0858285610e6c565b6106db858585610eeb565b506001949350505050565b60006106f0610f4a565b905090565b600061072161070383611075565b6001600160a01b0385166000908152600a60205260409020906110c4565b6001600160d01b03169392505050565b6060600c80546105c690612801565b610748610e39565b61075061117a565b565b61075a610e39565b69d3c21bcecceda10000008161076f60025490565b6107799190612851565b11156107c15760405162461bcd60e51b815260206004820152601260248201527145786365656473206d617820737570706c7960701b60448201526064015b60405180910390fd5b6107cb82826111cc565b816001600160a01b03167fb9144c96c86541f6fa89c9f2f02495cccf4b08cd6643e26d34ee00aa586558a88260405161080691815260200190565b60405180910390a25050565b336000908152602081905260409020548181101561087d5760405162461bcd60e51b815260206004820152602260248201527f45524332303a206275726e20616d6f756e7420657863656564732062616c616e604482015261636560f01b60648201526084016107b8565b670de0b6b3a76400006108908383612864565b10156108de5760405162461bcd60e51b815260206004820181905260248201527f42616c616e636520776f756c642066616c6c2062656c6f77206d696e696d756d60448201526064016107b8565b6108e83383611202565b60405182815233907f1af5163f80e79b5e554f61e1d052084d3a3fe1166e42a265798c4e2ddce8ffa290602001610806565b6060610924611238565b65ffffffffffff16610934610aef565b65ffffffffffff161461095a576040516301bfc1c560e61b815260040160405180910390fd5b5060408051808201909152601d81527f6d6f64653d626c6f636b6e756d6265722666726f6d3d64656661756c74000000602082015290565b3361099d8183611243565b5050565b600061065d826112b5565b6109b4610e39565b61075060006112d7565b6109c9823383610e6c565b61099d8282611202565b600061065d82611331565b6109e6610e39565b61075061134f565b600060608060008060006060610a0261138c565b610a0a6113b9565b60408051600080825260208201909252600f60f81b9b939a50919850469750309650945092509050565b610a3c610e39565b60008111610a8c5760405162461bcd60e51b815260206004820152601d60248201527f416d6f756e74206d7573742062652067726561746572207468616e203000000060448201526064016107b8565b600d80549082905560408051828152602081018490527f1e7d225cb161c2f834852cd521d7ee05358af80025a0e937483c51e42bfc13de91016106b6565b6000610ae0610ad883611075565b600b906110c4565b6001600160d01b031692915050565b60006106f0611238565b6060600480546105c690612801565b6001600160a01b0381166000908152600a60205260408120610ae0906113e6565b600033610657818585610eeb565b83421115610b5b57604051632341d78760e11b8152600481018590526024016107b8565b604080517fe48329057bfd03d55e49b547132e39cffd9c1820ad7b9d4c5307691425d15adf60208201526001600160a01b038816918101919091526060810186905260808101859052600090610bd590610bcd9060a0016040516020818303038152906040528051906020012061141f565b85858561144c565b9050610be1818761147a565b610beb8188611243565b50505050505050565b83421115610c185760405163313c898160e11b8152600481018590526024016107b8565b60007f6e71edae12b1b97f4d1f60370fef10105fa2faae0126114a169c64845d6126c9888888610c658c6001600160a01b0316600090815260086020526040902080546001810190915590565b6040805160208101969096526001600160a01b0394851690860152929091166060840152608083015260a082015260c0810186905260e0016040516020818303038152906040528051906020012090506000610cc08261141f565b90506000610cd08287878761144c565b9050896001600160a01b0316816001600160a01b031614610d17576040516325c0072360e11b81526001600160a01b0380831660048301528b1660248201526044016107b8565b610d228a8a8a610e27565b50505050505050505050565b610d36610e39565b6000815111610d7d5760405162461bcd60e51b81526020600482015260136024820152725552492063616e6e6f7420626520656d70747960681b60448201526064016107b8565b600c610d8982826128c5565b507f5bb111c9b2ad41c6cc1754cdbee2cc303b7becb89d29d2d5f91165fcc0b0a49d81604051610db99190612473565b60405180910390a150565b6040805180820190915260008082526020820152610de283836114cd565b9392505050565b610df1610e39565b6001600160a01b038116610e1b57604051631e4fbdf760e01b8152600060048201526024016107b8565b610e24816112d7565b50565b610e348383836001611503565b505050565b6005546001600160a01b036101009091041633146107505760405163118cdaa760e01b81523360048201526024016107b8565b6001600160a01b03838116600090815260016020908152604080832093861683529290522054600019811015610ee55781811015610ed657604051637dc7a0d960e11b81526001600160a01b038416600482015260248101829052604481018390526064016107b8565b610ee584848484036000611503565b50505050565b6001600160a01b038316610f1557604051634b637e8f60e11b8152600060048201526024016107b8565b6001600160a01b038216610f3f5760405163ec442f0560e01b8152600060048201526024016107b8565b610e348383836115d8565b6000306001600160a01b037f000000000000000000000000000000000000000000000000000000000000000016148015610fa357507f000000000000000000000000000000000000000000000000000000000000000046145b15610fcd57507f000000000000000000000000000000000000000000000000000000000000000090565b6106f0604080517f8b73c3c69bb8fe3d512ecc4cf759cc79239f7b179b0ffacaa9a75d522b39400f60208201527f0000000000000000000000000000000000000000000000000000000000000000918101919091527f000000000000000000000000000000000000000000000000000000000000000060608201524660808201523060a082015260009060c00160405160208183030381529060405280519060200120905090565b600080611080610aef565b90508065ffffffffffff1683106110bb57604051637669fc0f60e11b81526004810184905265ffffffffffff821660248201526044016107b8565b610de283611913565b8154600090818160058111156111235760006110df8461194a565b6110e99085612864565b60008881526020902090915081015465ffffffffffff908116908716101561111357809150611121565b61111e816001612851565b92505b505b600061113187878585611aa3565b9050801561116c5761115687611148600184612864565b600091825260209091200190565b54600160301b90046001600160d01b031661116f565b60005b979650505050505050565b611182611b05565b6005805460ff191690557f5db9ee0a495bf2e6ff9c91a7834c1ba4fdd244a5e8aa4e537bd38aeae4b073aa335b6040516001600160a01b03909116815260200160405180910390a1565b6001600160a01b0382166111f65760405163ec442f0560e01b8152600060048201526024016107b8565b61099d600083836115d8565b6001600160a01b03821661122c57604051634b637e8f60e11b8152600060048201526024016107b8565b61099d826000836115d8565b60006106f043611913565b6001600160a01b0382811660008181526009602052604080822080548686166001600160a01b0319821681179092559151919094169392849290917f3134e8a2e6d97e929a7e54011ea5485d7d196dd5f0ba4d4ef95803e8e3fc257f9190a4610e3481836112b086611b28565b611b46565b6001600160a01b0381166000908152600a602052604081205461065d90611cb2565b600580546001600160a01b03838116610100818102610100600160a81b031985161790945560405193909204169182907f8be0079c531659141344cd1fd0a4f28419497f9722a3daafe3b4186f6b6457e090600090a35050565b6001600160a01b03811660009081526008602052604081205461065d565b611357611ce3565b6005805460ff191660011790557f62e78cea01bee320cd4e420270b5ea74000d11b0c9f74754ebdbfc544b05a2586111af3390565b60606106f07f00000000000000000000000000000000000000000000000000000000000000006006611d07565b60606106f07f00000000000000000000000000000000000000000000000000000000000000006007611d07565b805460009080156114165761140083611148600184612864565b54600160301b90046001600160d01b0316610de2565b60009392505050565b600061065d61142c610f4a565b8360405161190160f01b8152600281019290925260228201526042902090565b60008060008061145e88888888611db2565b92509250925061146e8282611e81565b50909695505050505050565b6001600160a01b0382166000908152600860205260409020805460018101909155818114610e34576040516301d4b62360e61b81526001600160a01b0384166004820152602481018290526044016107b8565b60408051808201909152600080825260208201526001600160a01b0383166000908152600a60205260409020610de29083611f3a565b6001600160a01b03841661152d5760405163e602df0560e01b8152600060048201526024016107b8565b6001600160a01b03831661155757604051634a1406b160e11b8152600060048201526024016107b8565b6001600160a01b0380851660009081526001602090815260408083209387168352929052208290558015610ee557826001600160a01b0316846001600160a01b03167f8c5be1e5ebec7d5bd14f71427d1e84f3dd0314c0f7b2291e5b200ac8c7c3b925846040516115ca91815260200190565b60405180910390a350505050565b60055460ff161561162b5760405162461bcd60e51b815260206004820152601b60248201527f546f6b656e207472616e73666572207768696c6520706175736564000000000060448201526064016107b8565b816001600160a01b0316836001600160a01b03160361168c5760405162461bcd60e51b815260206004820152601a60248201527f53656c66207472616e7366657273206e6f7420616c6c6f77656400000000000060448201526064016107b8565b6001600160a01b038316158015906116ac57506001600160a01b03821615155b1561190857600081116117015760405162461bcd60e51b815260206004820152601d60248201527f416d6f756e74206d7573742062652067726561746572207468616e203000000060448201526064016107b8565b600e5460ff161561175e57600d5481111561175e5760405162461bcd60e51b815260206004820152601b60248201527f45786365656473206d6178207472616e7366657220616d6f756e74000000000060448201526064016107b8565b6001600160a01b038316600090815260208190526040902054818110156117be5760405162461bcd60e51b8152602060048201526014602482015273496e73756666696369656e742062616c616e636560601b60448201526064016107b8565b670de0b6b3a76400006117d18383612864565b101561181f5760405162461bcd60e51b815260206004820181905260248201527f42616c616e636520776f756c642066616c6c2062656c6f77206d696e696d756d60448201526064016107b8565b6001600160a01b038316600090815260208190526040902054801561189b57670de0b6b3a76400008110156118965760405162461bcd60e51b815260206004820152601960248201527f526563697069656e742062616c616e636520746f6f206c6f770000000000000060448201526064016107b8565b611905565b670de0b6b3a76400008310156119055760405162461bcd60e51b815260206004820152602960248201527f5472616e7366657220616d6f756e7420746f6f206c6f7720666f72206e6577206044820152681c9958da5c1a595b9d60ba1b60648201526084016107b8565b50505b610e34838383611faa565b600065ffffffffffff821115611946576040516306dfcc6560e41b815260306004820152602481018390526044016107b8565b5090565b600060018211611958575090565b816001600160801b82106119715760809190911c9060401b5b68010000000000000000821061198c5760409190911c9060201b5b64010000000082106119a35760209190911c9060101b5b6201000082106119b85760109190911c9060081b5b61010082106119cc5760089190911c9060041b5b601082106119df5760049190911c9060021b5b600482106119eb5760011b5b600302600190811c90818581611a0357611a03612985565b048201901c90506001818581611a1b57611a1b612985565b048201901c90506001818581611a3357611a33612985565b048201901c90506001818581611a4b57611a4b612985565b048201901c90506001818581611a6357611a63612985565b048201901c90506001818581611a7b57611a7b612985565b048201901c9050611a9a818581611a9457611a94612985565b04821190565b90039392505050565b60005b81831015611afd576000611aba8484612011565b60008781526020902090915065ffffffffffff86169082015465ffffffffffff161115611ae957809250611af7565b611af4816001612851565b93505b50611aa6565b509392505050565b60055460ff1661075057604051638dfc202b60e01b815260040160405180910390fd5b6001600160a01b03811660009081526020819052604081205461065d565b816001600160a01b0316836001600160a01b031614158015611b685750600081115b15610e34576001600160a01b03831615611c10576001600160a01b0383166000908152600a602052604081208190611bab9061202c611ba686612038565b61206c565b6001600160d01b031691506001600160d01b03169150846001600160a01b03167fdec2bacdd2f05b59de34da9b523dff8be42e5e38e818c82fdb0bae774387a7248383604051611c05929190918252602082015260400190565b60405180910390a250505b6001600160a01b03821615610e34576001600160a01b0382166000908152600a602052604081208190611c49906120a5611ba686612038565b6001600160d01b031691506001600160d01b03169150836001600160a01b03167fdec2bacdd2f05b59de34da9b523dff8be42e5e38e818c82fdb0bae774387a7248383604051611ca3929190918252602082015260400190565b60405180910390a25050505050565b600063ffffffff821115611946576040516306dfcc6560e41b815260206004820152602481018390526044016107b8565b60055460ff16156107505760405163d93c066560e01b815260040160405180910390fd5b606060ff8314611d2157611d1a836120b1565b905061065d565b818054611d2d90612801565b80601f0160208091040260200160405190810160405280929190818152602001828054611d5990612801565b8015611da65780601f10611d7b57610100808354040283529160200191611da6565b820191906000526020600020905b815481529060010190602001808311611d8957829003601f168201915b5050505050905061065d565b600080807f7fffffffffffffffffffffffffffffff5d576e7357a4501ddfe92f46681b20a0841115611ded5750600091506003905082611e77565b604080516000808252602082018084528a905260ff891692820192909252606081018790526080810186905260019060a0016020604051602081039080840390855afa158015611e41573d6000803e3d6000fd5b5050604051601f1901519150506001600160a01b038116611e6d57506000925060019150829050611e77565b9250600091508190505b9450945094915050565b6000826003811115611e9557611e9561299b565b03611e9e575050565b6001826003811115611eb257611eb261299b565b03611ed05760405163f645eedf60e01b815260040160405180910390fd5b6002826003811115611ee457611ee461299b565b03611f055760405163fce698f760e01b8152600481018290526024016107b8565b6003826003811115611f1957611f1961299b565b0361099d576040516335e2f38360e21b8152600481018290526024016107b8565b6040805180820190915260008082526020820152826000018263ffffffff1681548110611f6957611f696129b1565b60009182526020918290206040805180820190915291015465ffffffffffff81168252600160301b90046001600160d01b0316918101919091529392505050565b611fb58383836120f0565b6001600160a01b038316612006576000611fce60025490565b90506001600160d01b038082111561200357604051630e58ae9360e11b815260048101839052602481018290526044016107b8565b50505b610e34838383612103565b600061202060028484186129c7565b610de290848416612851565b6000610de282846129e9565b60006001600160d01b03821115611946576040516306dfcc6560e41b815260d06004820152602481018390526044016107b8565b60008061209861207a610aef565b612090612086886113e6565b868863ffffffff16565b879190612179565b915091505b935093915050565b6000610de28284612a10565b606060006120be83612187565b604080516020808252818301909252919250600091906020820181803683375050509182525060208101929092525090565b6120f8611ce3565b610e348383836121af565b6001600160a01b03831661212557612122600b6120a5611ba684612038565b50505b6001600160a01b03821661214757612144600b61202c611ba684612038565b50505b6001600160a01b03838116600090815260096020526040808220548584168352912054610e3492918216911683611b46565b6000806120988585856122d9565b600060ff8216601f81111561065d57604051632cd44ac360e21b815260040160405180910390fd5b6001600160a01b0383166121da5780600260008282546121cf9190612851565b9091555061224c9050565b6001600160a01b0383166000908152602081905260409020548181101561222d5760405163391434e360e21b81526001600160a01b038516600482015260248101829052604481018390526064016107b8565b6001600160a01b03841660009081526020819052604090209082900390555b6001600160a01b03821661226857600280548290039055612287565b6001600160a01b03821660009081526020819052604090208054820190555b816001600160a01b0316836001600160a01b03167fddf252ad1be2c89b69c2b068fc378daa952ba7f163c4a11628f55a4df523b3ef836040516122cc91815260200190565b60405180910390a3505050565b8254600090819080156123d25760006122f787611148600185612864565b805490915065ffffffffffff80821691600160301b90046001600160d01b031690881682111561233a57604051632520601d60e01b815260040160405180910390fd5b8765ffffffffffff168265ffffffffffff160361237357825465ffffffffffff16600160301b6001600160d01b038916021783556123c4565b6040805180820190915265ffffffffffff808a1682526001600160d01b03808a1660208085019182528d54600181018f5560008f81529190912094519151909216600160301b029216919091179101555b945085935061209d92505050565b50506040805180820190915265ffffffffffff80851682526001600160d01b0380851660208085019182528854600181018a5560008a815291822095519251909316600160301b02919093161792019190915590508161209d565b6000815180845260005b8181101561245357602081850181015186830182015201612437565b506000602082860101526020601f19601f83011685010191505092915050565b602081526000610de2602083018461242d565b80356001600160a01b038116811461249d57600080fd5b919050565b600080604083850312156124b557600080fd5b6124be83612486565b946020939093013593505050565b6000602082840312156124de57600080fd5b81358015158114610de257600080fd5b60008060006060848603121561250357600080fd5b61250c84612486565b925061251a60208501612486565b9150604084013590509250925092565b60006020828403121561253c57600080fd5b5035919050565b60006020828403121561255557600080fd5b610de282612486565b60ff60f81b881681526000602060e08184015261257e60e084018a61242d565b8381036040850152612590818a61242d565b606085018990526001600160a01b038816608086015260a0850187905284810360c0860152855180825283870192509083019060005b818110156125e2578351835292840192918401916001016125c6565b50909c9b505050505050505050505050565b803560ff8116811461249d57600080fd5b60008060008060008060c0878903121561261e57600080fd5b61262787612486565b95506020870135945060408701359350612643606088016125f4565b92506080870135915060a087013590509295509295509295565b600080600080600080600060e0888a03121561267857600080fd5b61268188612486565b965061268f60208901612486565b955060408801359450606088013593506126ab608089016125f4565b925060a0880135915060c0880135905092959891949750929550565b600080604083850312156126da57600080fd5b6126e383612486565b91506126f160208401612486565b90509250929050565b634e487b7160e01b600052604160045260246000fd5b60006020828403121561272257600080fd5b813567ffffffffffffffff8082111561273a57600080fd5b818401915084601f83011261274e57600080fd5b813581811115612760576127606126fa565b604051601f8201601f19908116603f01168101908382118183101715612788576127886126fa565b816040528281528760208487010111156127a157600080fd5b826020860160208301376000928101602001929092525095945050505050565b600080604083850312156127d457600080fd5b6127dd83612486565b9150602083013563ffffffff811681146127f657600080fd5b809150509250929050565b600181811c9082168061281557607f821691505b60208210810361283557634e487b7160e01b600052602260045260246000fd5b50919050565b634e487b7160e01b600052601160045260246000fd5b8082018082111561065d5761065d61283b565b8181038181111561065d5761065d61283b565b601f821115610e3457600081815260208120601f850160051c8101602086101561289e5750805b601f850160051c820191505b818110156128bd578281556001016128aa565b505050505050565b815167ffffffffffffffff8111156128df576128df6126fa565b6128f3816128ed8454612801565b84612877565b602080601f83116001811461292857600084156129105750858301515b600019600386901b1c1916600185901b1785556128bd565b600085815260208120601f198616915b8281101561295757888601518255948401946001909101908401612938565b50858210156129755787850151600019600388901b60f8161c191681555b5050505050600190811b01905550565b634e487b7160e01b600052601260045260246000fd5b634e487b7160e01b600052602160045260246000fd5b634e487b7160e01b600052603260045260246000fd5b6000826129e457634e487b7160e01b600052601260045260246000fd5b500490565b6001600160d01b03828116828216039080821115612a0957612a0961283b565b5092915050565b6001600160d01b03818116838216019080821115612a0957612a0961283b56fea26469706673582212205c8ed1f5dccd1e49b11894fc8c3dc2288664daf2689b9129df49f5d7d37d611b64736f6c63430008140033",
  "linkReferences": {},
  "deployedLinkReferences": {}
}