{
  "_format": "hh-sol-artifact-1",
  "contractName": "NewToken",
  "sourceName": "contracts/NewToken.sol",
  "abi": [
    {
      "inputs": [
        {
          "internalType": "string",
          "name": "name",
          "type": "string"
        },
        {
          "internalType": "string",
          "name": "symbol",
          "type": "string"
        },
        {
          "internalType": "string",
          "name": "metadataURI",
          "type": "string"
        }
      ],
      "stateMutability": "nonpayable",
      "type": "constructor"
    },
    {
      "inputs": [],
      "name": "CheckpointUnorderedInsertion",
      "type": "error"
    },
    {
      "inputs": [],
      "name": "ECDSAInvalidSignature",
      "type": "error"
    },
    {
      "inputs": [
        {
          "internalType": "uint256",
          "name": "length",
          "type": "uint256"
        }
      ],
      "name": "ECDSAInvalidSignatureLength",
      "type": "error"
    },
    {
      "inputs": [
        {
          "internalType": "bytes32",
          "name": "s",
          "type": "bytes32"
        }
      ],
      "name": "ECDSAInvalidSignatureS",
      "type": "error"
    },
    {
      "inputs": [
        {
          "internalType": "uint256",
          "name": "increasedSupply",
          "type": "uint256"
        },
        {
          "internalType": "uint256",
          "name": "cap",
          "type": "uint256"
        }
      ],
      "name": "ERC20ExceededSafeSupply",
      "type": "error"
    },
    {
      "inputs": [
        {
          "internalType": "address",
          "name": "spender",
          "type": "address"
        },
        {
          "internalType": "uint256",
          "name": "allowance",
          "type": "uint256"
        },
        {
          "internalType": "uint256",
          "name": "needed",
          "type": "uint256"
        }
      ],
      "name": "ERC20InsufficientAllowance",
      "type": "error"
    },
    {
      "inputs": [
        {
          "internalType": "address",
          "name": "sender",
          "type": "address"
        },
        {
          "internalType": "uint256",
          "name": "balance",
          "type": "uint256"
        },
        {
          "internalType": "uint256",
          "name": "needed",
          "type": "uint256"
        }
      ],
      "name": "ERC20InsufficientBalance",
      "type": "error"
    },
    {
      "inputs": [
        {
          "internalType": "address",
          "name": "approver",
          "type": "address"
        }
      ],
      "name": "ERC20InvalidApprover",
      "type": "error"
    },
    {
      "inputs": [
        {
          "internalType": "address",
          "name": "receiver",
          "type": "address"
        }
      ],
      "name": "ERC20InvalidReceiver",
      "type": "error"
    },
    {
      "inputs": [
        {
          "internalType": "address",
          "name": "sender",
          "type": "address"
        }
      ],
      "name": "ERC20InvalidSender",
      "type": "error"
    },
    {
      "inputs": [
        {
          "internalType": "address",
          "name": "spender",
          "type": "address"
        }
      ],
      "name": "ERC20InvalidSpender",
      "type": "error"
    },
    {
      "inputs": [
        {
          "internalType": "uint256",
          "name": "deadline",
          "type": "uint256"
        }
      ],
      "name": "ERC2612ExpiredSignature",
      "type": "error"
    },
    {
      "inputs": [
        {
          "internalType": "address",
          "name": "signer",
          "type": "address"
        },
        {
          "internalType": "address",
          "name": "owner",
          "type": "address"
        }
      ],
      "name": "ERC2612InvalidSigner",
      "type": "error"
    },
    {
      "inputs": [
        {
          "internalType": "uint256",
          "name": "timepoint",
          "type": "uint256"
        },
        {
          "internalType": "uint48",
          "name": "clock",
          "type": "uint48"
        }
      ],
      "name": "ERC5805FutureLookup",
      "type": "error"
    },
    {
      "inputs": [],
      "name": "ERC6372InconsistentClock",
      "type": "error"
    },
    {
      "inputs": [],
      "name": "EnforcedPause",
      "type": "error"
    },
    {
      "inputs": [],
      "name": "ExpectedPause",
      "type": "error"
    },
    {
      "inputs": [
        {
          "internalType": "address",
          "name": "account",
          "type": "address"
        },
        {
          "internalType": "uint256",
          "name": "currentNonce",
          "type": "uint256"
        }
      ],
      "name": "InvalidAccountNonce",
      "type": "error"
    },
    {
      "inputs": [],
      "name": "InvalidShortString",
      "type": "error"
    },
    {
      "inputs": [
        {
          "internalType": "address",
          "name": "owner",
          "type": "address"
        }
      ],
      "name": "OwnableInvalidOwner",
      "type": "error"
    },
    {
      "inputs": [
        {
          "internalType": "address",
          "name": "account",
          "type": "address"
        }
      ],
      "name": "OwnableUnauthorizedAccount",
      "type": "error"
    },
    {
      "inputs": [
        {
          "internalType": "uint8",
          "name": "bits",
          "type": "uint8"
        },
        {
          "internalType": "uint256",
          "name": "value",
          "type": "uint256"
        }
      ],
      "name": "SafeCastOverflowedUintDowncast",
      "type": "error"
    },
    {
      "inputs": [
        {
          "internalType": "string",
          "name": "str",
          "type": "string"
        }
      ],
      "name": "StringTooLong",
      "type": "error"
    },
    {
      "inputs": [
        {
          "internalType": "uint256",
          "name": "expiry",
          "type": "uint256"
        }
      ],
      "name": "VotesExpiredSignature",
      "type": "error"
    },
    {
      "anonymous": false,
      "inputs": [
        {
          "indexed": true,
          "internalType": "address",
          "name": "owner",
          "type": "address"
        },
        {
          "indexed": true,
          "internalType": "address",
          "name": "spender",
          "type": "address"
        },
        {
          "indexed": false,
          "internalType": "uint256",
          "name": "value",
          "type": "uint256"
        }
      ],
      "name": "Approval",
      "type": "event"
    },
    {
      "anonymous": false,
      "inputs": [
        {
          "indexed": true,
          "internalType": "address",
          "name": "delegator",
          "type": "address"
        },
        {
          "indexed": true,
          "internalType": "address",
          "name": "fromDelegate",
          "type": "address"
        },
        {
          "indexed": true,
          "internalType": "address",
          "name": "toDelegate",
          "type": "address"
        }
      ],
      "name": "DelegateChanged",
      "type": "event"
    },
    {
      "anonymous": false,
      "inputs": [
        {
          "indexed": true,
          "internalType": "address",
          "name": "delegate",
          "type": "address"
        },
        {
          "indexed": false,
          "internalType": "uint256",
          "name": "previousVotes",
          "type": "uint256"
        },
        {
          "indexed": false,
          "internalType": "uint256",
          "name": "newVotes",
          "type": "uint256"
        }
      ],
      "name": "DelegateVotesChanged",
      "type": "event"
    },
    {
      "anonymous": false,
      "inputs": [],
      "name": "EIP712DomainChanged",
      "type": "event"
    },
    {
      "anonymous": false,
      "inputs": [
        {
          "indexed": false,
          "internalType": "uint256",
          "name": "oldAmount",
          "type": "uint256"
        },
        {
          "indexed": false,
          "internalType": "uint256",
          "name": "newAmount",
          "type": "uint256"
        }
      ],
      "name": "MaxTransferAmountUpdated",
      "type": "event"
    },
    {
      "anonymous": false,
      "inputs": [
        {
          "indexed": true,
          "internalType": "address",
          "name": "previousOwner",
          "type": "address"
        },
        {
          "indexed": true,
          "internalType": "address",
          "name": "newOwner",
          "type": "address"
        }
      ],
      "name": "OwnershipTransferred",
      "type": "event"
    },
    {
      "anonymous": false,
      "inputs": [
        {
          "indexed": false,
          "internalType": "address",
          "name": "account",
          "type": "address"
        }
      ],
      "name": "Paused",
      "type": "event"
    },
    {
      "anonymous": false,
      "inputs": [
        {
          "indexed": true,
          "internalType": "address",
          "name": "from",
          "type": "address"
        },
        {
          "indexed": false,
          "internalType": "uint256",
          "name": "amount",
          "type": "uint256"
        }
      ],
      "name": "TokenBurned",
      "type": "event"
    },
    {
      "anonymous": false,
      "inputs": [
        {
          "indexed": true,
          "internalType": "address",
          "name": "to",
          "type": "address"
        },
        {
          "indexed": false,
          "internalType": "uint256",
          "name": "amount",
          "type": "uint256"
        }
      ],
      "name": "TokenMinted",
      "type": "event"
    },
    {
      "anonymous": false,
      "inputs": [
        {
          "indexed": false,
          "internalType": "string",
          "name": "newTokenURI",
          "type": "string"
        }
      ],
      "name": "TokenURISet",
      "type": "event"
    },
    {
      "anonymous": false,
      "inputs": [
        {
          "indexed": true,
          "internalType": "address",
          "name": "from",
          "type": "address"
        },
        {
          "indexed": true,
          "internalType": "address",
          "name": "to",
          "type": "address"
        },
        {
          "indexed": false,
          "internalType": "uint256",
          "name": "value",
          "type": "uint256"
        }
      ],
      "name": "Transfer",
      "type": "event"
    },
    {
      "anonymous": false,
      "inputs": [
        {
          "indexed": false,
          "internalType": "bool",
          "name": "oldStatus",
          "type": "bool"
        },
        {
          "indexed": false,
          "internalType": "bool",
          "name": "newStatus",
          "type": "bool"
        }
      ],
      "name": "TransferRestrictionUpdated",
      "type": "event"
    },
    {
      "anonymous": false,
      "inputs": [
        {
          "indexed": false,
          "internalType": "address",
          "name": "account",
          "type": "address"
        }
      ],
      "name": "Unpaused",
      "type": "event"
    },
    {
      "inputs": [],
      "name": "CLOCK_MODE",
      "outputs": [
        {
          "internalType": "string",
          "name": "",
          "type": "string"
        }
      ],
      "stateMutability": "view",
      "type": "function"
    },
    {
      "inputs": [],
      "name": "DOMAIN_SEPARATOR",
      "outputs": [
        {
          "internalType": "bytes32",
          "name": "",
          "type": "bytes32"
        }
      ],
      "stateMutability": "view",
      "type": "function"
    },
    {
      "inputs": [],
      "name": "MAX_SUPPLY",
      "outputs": [
        {
          "internalType": "uint256",
          "name": "",
          "type": "uint256"
        }
      ],
      "stateMutability": "view",
      "type": "function"
    },
    {
      "inputs": [],
      "name": "MIN_BALANCE",
      "outputs": [
        {
          "internalType": "uint256",
          "name": "",
          "type": "uint256"
        }
      ],
      "stateMutability": "view",
      "type": "function"
    },
    {
      "inputs": [
        {
          "internalType": "address",
          "name": "owner",
          "type": "address"
        },
        {
          "internalType": "address",
          "name": "spender",
          "type": "address"
        }
      ],
      "name": "allowance",
      "outputs": [
        {
          "internalType": "uint256",
          "name": "",
          "type": "uint256"
        }
      ],
      "stateMutability": "view",
      "type": "function"
    },
    {
      "inputs": [
        {
          "internalType": "address",
          "name": "spender",
          "type": "address"
        },
        {
          "internalType": "uint256",
          "name": "value",
          "type": "uint256"
        }
      ],
      "name": "approve",
      "outputs": [
        {
          "internalType": "bool",
          "name": "",
          "type": "bool"
        }
      ],
      "stateMutability": "nonpayable",
      "type": "function"
    },
    {
      "inputs": [
        {
          "internalType": "address",
          "name": "account",
          "type": "address"
        }
      ],
      "name": "balanceOf",
      "outputs": [
        {
          "internalType": "uint256",
          "name": "",
          "type": "uint256"
        }
      ],
      "stateMutability": "view",
      "type": "function"
    },
    {
      "inputs": [
        {
          "internalType": "uint256",
          "name": "amount",
          "type": "uint256"
        }
      ],
      "name": "burn",
      "outputs": [],
      "stateMutability": "nonpayable",
      "type": "function"
    },
    {
      "inputs": [
        {
          "internalType": "address",
          "name": "account",
          "type": "address"
        },
        {
          "internalType": "uint256",
          "name": "value",
          "type": "uint256"
        }
      ],
      "name": "burnFrom",
      "outputs": [],
      "stateMutability": "nonpayable",
      "type": "function"
    },
    {
      "inputs": [
        {
          "internalType": "address",
          "name": "account",
          "type": "address"
        },
        {
          "internalType": "uint32",
          "name": "pos",
          "type": "uint32"
        }
      ],
      "name": "checkpoints",
      "outputs": [
        {
          "components": [
            {
              "internalType": "uint48",
              "name": "_key",
              "type": "uint48"
            },
            {
              "internalType": "uint208",
              "name": "_value",
              "type": "uint208"
            }
          ],
          "internalType": "struct Checkpoints.Checkpoint208",
          "name": "",
          "type": "tuple"
        }
      ],
      "stateMutability": "view",
      "type": "function"
    },
    {
      "inputs": [],
      "name": "clock",
      "outputs": [
        {
          "internalType": "uint48",
          "name": "",
          "type": "uint48"
        }
      ],
      "stateMutability": "view",
      "type": "function"
    },
    {
      "inputs": [],
      "name": "decimals",
      "outputs": [
        {
          "internalType": "uint8",
          "name": "",
          "type": "uint8"
        }
      ],
      "stateMutability": "view",
      "type": "function"
    },
    {
      "inputs": [
        {
          "internalType": "address",
          "name": "delegatee",
          "type": "address"
        }
      ],
      "name": "delegate",
      "outputs": [],
      "stateMutability": "nonpayable",
      "type": "function"
    },
    {
      "inputs": [
        {
          "internalType": "address",
          "name": "delegatee",
          "type": "address"
        },
        {
          "internalType": "uint256",
          "name": "nonce",
          "type": "uint256"
        },
        {
          "internalType": "uint256",
          "name": "expiry",
          "type": "uint256"
        },
        {
          "internalType": "uint8",
          "name": "v",
          "type": "uint8"
        },
        {
          "internalType": "bytes32",
          "name": "r",
          "type": "bytes32"
        },
        {
          "internalType": "bytes32",
          "name": "s",
          "type": "bytes32"
        }
      ],
      "name": "delegateBySig",
      "outputs": [],
      "stateMutability": "nonpayable",
      "type": "function"
    },
    {
      "inputs": [
        {
          "internalType": "address",
          "name": "account",
          "type": "address"
        }
      ],
      "name": "delegates",
      "outputs": [
        {
          "internalType": "address",
          "name": "",
          "type": "address"
        }
      ],
      "stateMutability": "view",
      "type": "function"
    },
    {
      "inputs": [],
      "name": "eip712Domain",
      "outputs": [
        {
          "internalType": "bytes1",
          "name": "fields",
          "type": "bytes1"
        },
        {
          "internalType": "string",
          "name": "name",
          "type": "string"
        },
        {
          "internalType": "string",
          "name": "version",
          "type": "string"
        },
        {
          "internalType": "uint256",
          "name": "chainId",
          "type": "uint256"
        },
        {
          "internalType": "address",
          "name": "verifyingContract",
          "type": "address"
        },
        {
          "internalType": "bytes32",
          "name": "salt",
          "type": "bytes32"
        },
        {
          "internalType": "uint256[]",
          "name": "extensions",
          "type": "uint256[]"
        }
      ],
      "stateMutability": "view",
      "type": "function"
    },
    {
      "inputs": [
        {
          "internalType": "uint256",
          "name": "timepoint",
          "type": "uint256"
        }
      ],
      "name": "getPastTotalSupply",
      "outputs": [
        {
          "internalType": "uint256",
          "name": "",
          "type": "uint256"
        }
      ],
      "stateMutability": "view",
      "type": "function"
    },
    {
      "inputs": [
        {
          "internalType": "address",
          "name": "account",
          "type": "address"
        },
        {
          "internalType": "uint256",
          "name": "timepoint",
          "type": "uint256"
        }
      ],
      "name": "getPastVotes",
      "outputs": [
        {
          "internalType": "uint256",
          "name": "",
          "type": "uint256"
        }
      ],
      "stateMutability": "view",
      "type": "function"
    },
    {
      "inputs": [
        {
          "internalType": "address",
          "name": "account",
          "type": "address"
        }
      ],
      "name": "getVotes",
      "outputs": [
        {
          "internalType": "uint256",
          "name": "",
          "type": "uint256"
        }
      ],
      "stateMutability": "view",
      "type": "function"
    },
    {
      "inputs": [],
      "name": "maxTransferAmount",
      "outputs": [
        {
          "internalType": "uint256",
          "name": "",
          "type": "uint256"
        }
      ],
      "stateMutability": "view",
      "type": "function"
    },
    {
      "inputs": [
        {
          "internalType": "address",
          "name": "to",
          "type": "address"
        },
        {
          "internalType": "uint256",
          "name": "amount",
          "type": "uint256"
        }
      ],
      "name": "mint",
      "outputs": [],
      "stateMutability": "nonpayable",
      "type": "function"
    },
    {
      "inputs": [],
      "name": "name",
      "outputs": [
        {
          "internalType": "string",
          "name": "",
          "type": "string"
        }
      ],
      "stateMutability": "view",
      "type": "function"
    },
    {
      "inputs": [
        {
          "internalType": "address",
          "name": "owner",
          "type": "address"
        }
      ],
      "name": "nonces",
      "outputs": [
        {
          "internalType": "uint256",
          "name": "",
          "type": "uint256"
        }
      ],
      "stateMutability": "view",
      "type": "function"
    },
    {
      "inputs": [
        {
          "internalType": "address",
          "name": "account",
          "type": "address"
        }
      ],
      "name": "numCheckpoints",
      "outputs": [
        {
          "internalType": "uint32",
          "name": "",
          "type": "uint32"
        }
      ],
      "stateMutability": "view",
      "type": "function"
    },
    {
      "inputs": [],
      "name": "owner",
      "outputs": [
        {
          "internalType": "address",
          "name": "",
          "type": "address"
        }
      ],
      "stateMutability": "view",
      "type": "function"
    },
    {
      "inputs": [],
      "name": "pause",
      "outputs": [],
      "stateMutability": "nonpayable",
      "type": "function"
    },
    {
      "inputs": [],
      "name": "paused",
      "outputs": [
        {
          "internalType": "bool",
          "name": "",
          "type": "bool"
        }
      ],
      "stateMutability": "view",
      "type": "function"
    },
    {
      "inputs": [
        {
          "internalType": "address",
          "name": "owner",
          "type": "address"
        },
        {
          "internalType": "address",
          "name": "spender",
          "type": "address"
        },
        {
          "internalType": "uint256",
          "name": "value",
          "type": "uint256"
        },
        {
          "internalType": "uint256",
          "name": "deadline",
          "type": "uint256"
        },
        {
          "internalType": "uint8",
          "name": "v",
          "type": "uint8"
        },
        {
          "internalType": "bytes32",
          "name": "r",
          "type": "bytes32"
        },
        {
          "internalType": "bytes32",
          "name": "s",
          "type": "bytes32"
        }
      ],
      "name": "permit",
      "outputs": [],
      "stateMutability": "nonpayable",
      "type": "function"
    },
    {
      "inputs": [],
      "name": "renounceOwnership",
      "outputs": [],
      "stateMutability": "nonpayable",
      "type": "function"
    },
    {
      "inputs": [
        {
          "internalType": "uint256",
          "name": "newAmount",
          "type": "uint256"
        }
      ],
      "name": "setMaxTransferAmount",
      "outputs": [],
      "stateMutability": "nonpayable",
      "type": "function"
    },
    {
      "inputs": [
        {
          "internalType": "string",
          "name": "newTokenURI",
          "type": "string"
        }
      ],
      "name": "setTokenURI",
      "outputs": [],
      "stateMutability": "nonpayable",
      "type": "function"
    },
    {
      "inputs": [
        {
          "internalType": "bool",
          "name": "newStatus",
          "type": "bool"
        }
      ],
      "name": "setTransferRestriction",
      "outputs": [],
      "stateMutability": "nonpayable",
      "type": "function"
    },
    {
      "inputs": [],
      "name": "symbol",
      "outputs": [
        {
          "internalType": "string",
          "name": "",
          "type": "string"
        }
      ],
      "stateMutability": "view",
      "type": "function"
    },
    {
      "inputs": [],
      "name": "tokenURI",
      "outputs": [
        {
          "internalType": "string",
          "name": "",
          "type": "string"
        }
      ],
      "stateMutability": "view",
      "type": "function"
    },
    {
      "inputs": [],
      "name": "totalSupply",
      "outputs": [
        {
          "internalType": "uint256",
          "name": "",
          "type": "uint256"
        }
      ],
      "stateMutability": "view",
      "type": "function"
    },
    {
      "inputs": [
        {
          "internalType": "address",
          "name": "to",
          "type": "address"
        },
        {
          "internalType": "uint256",
          "name": "value",
          "type": "uint256"
        }
      ],
      "name": "transfer",
      "outputs": [
        {
          "internalType": "bool",
          "name": "",
          "type": "bool"
        }
      ],
      "stateMutability": "nonpayable",
      "type": "function"
    },
    {
      "inputs": [
        {
          "internalType": "address",
          "name": "from",
          "type": "address"
        },
        {
          "internalType": "address",
          "name": "to",
          "type": "address"
        },
        {
          "internalType": "uint256",
          "name": "value",
          "type": "uint256"
        }
      ],
      "name": "transferFrom",
      "outputs": [
        {
          "internalType": "bool",
          "name": "",
          "type": "bool"
        }
      ],
      "stateMutability": "nonpayable",
      "type": "function"
    },
    {
      "inputs": [
        {
          "internalType": "address",
          "name": "newOwner",
          "type": "address"
        }
      ],
      "name": "transferOwnership",
      "outputs": [],
      "stateMutability": "nonpayable",
      "type": "function"
    },
    {
      "inputs": [],
      "name": "transferRestricted",
      "outputs": [
        {
          "internalType": "bool",
          "name": "",
          "type": "bool"
        }
      ],
      "stateMutability": "view",
      "type": "function"
    },
    {
      "inputs": [],
      "name": "unpause",
      "outputs": [],
      "stateMutability": "nonpayable",
      "type": "function"
    }
  ],
  "bytecode": "0x6101606040523480156200001257600080fd5b506040516200309338038062003093833981016040819052620000359162000356565b6040805180820190915260018152603160f81b6020820152839081903382868181600362000064838262000476565b50600462000073828262000476565b50506005805460ff191690555050506001600160a01b038116620000b257604051631e4fbdf760e01b8152600060048201526024015b60405180910390fd5b620000bd81620001b3565b50620000cb8260066200020d565b61012052620000dc8160076200020d565b61014052815160208084019190912060e052815190820120610100524660a0526200016a60e05161010051604080517f8b73c3c69bb8fe3d512ecc4cf759cc79239f7b179b0ffacaa9a75d522b39400f60208201529081019290925260608201524660808201523060a082015260009060c00160405160208183030381529060405280519060200120905090565b60805250503060c05250600c62000182828262000476565b506200019a606469d3c21bcecceda100000062000542565b600d555050600e805460ff1916600117905550620005bf565b600580546001600160a01b03838116610100818102610100600160a81b031985161790945560405193909204169182907f8be0079c531659141344cd1fd0a4f28419497f9722a3daafe3b4186f6b6457e090600090a35050565b60006020835110156200022d57620002258362000246565b905062000240565b816200023a848262000476565b5060ff90505b92915050565b600080829050601f8151111562000274578260405163305a27a960e01b8152600401620000a9919062000565565b805162000281826200059a565b179392505050565b634e487b7160e01b600052604160045260246000fd5b60005b83811015620002bc578181015183820152602001620002a2565b50506000910152565b600082601f830112620002d757600080fd5b81516001600160401b0380821115620002f457620002f462000289565b604051601f8301601f19908116603f011681019082821181831017156200031f576200031f62000289565b816040528381528660208588010111156200033957600080fd5b6200034c8460208301602089016200029f565b9695505050505050565b6000806000606084860312156200036c57600080fd5b83516001600160401b03808211156200038457600080fd5b6200039287838801620002c5565b94506020860151915080821115620003a957600080fd5b620003b787838801620002c5565b93506040860151915080821115620003ce57600080fd5b50620003dd86828701620002c5565b9150509250925092565b600181811c90821680620003fc57607f821691505b6020821081036200041d57634e487b7160e01b600052602260045260246000fd5b50919050565b601f8211156200047157600081815260208120601f850160051c810160208610156200044c5750805b601f850160051c820191505b818110156200046d5782815560010162000458565b5050505b505050565b81516001600160401b0381111562000492576200049262000289565b620004aa81620004a38454620003e7565b8462000423565b602080601f831160018114620004e25760008415620004c95750858301515b600019600386901b1c1916600185901b1785556200046d565b600085815260208120601f198616915b828110156200051357888601518255948401946001909101908401620004f2565b5085821015620005325787850151600019600388901b60f8161c191681555b5050505050600190811b01905550565b6000826200056057634e487b7160e01b600052601260045260246000fd5b500490565b6020815260008251806020840152620005868160408501602087016200029f565b601f01601f19169190910160400192915050565b805160208083015191908110156200041d5760001960209190910360031b1b16919050565b60805160a05160c05160e051610100516101205161014051612a796200061a600039600061139d015260006113700152600061102301526000610ffb01526000610f5601526000610f8001526000610faa0152612a796000f3fe608060405234801561001057600080fd5b50600436106102485760003560e01c8063715018a61161013b57806395d89b41116100b8578063d505accf1161007c578063d505accf14610506578063dd62ed3e14610519578063e0df5b6f14610552578063f1127ed814610565578063f2fde38b146105a457600080fd5b806395d89b41146104bc5780639ab24eb0146104c4578063a9059cbb146104d7578063a9e75723146104ea578063c3cda520146104f357600080fd5b8063867378c5116100ff578063867378c5146104525780638bf55409146104615780638da5cb5b146104745780638e539e8c1461048a57806391ddadf41461049d57600080fd5b8063715018a61461040157806379cc6790146104095780637ecebe001461041c5780638456cb591461042f57806384b0196e1461043757600080fd5b80633f4ba83a116101c9578063587cde1e1161018d578063587cde1e1461034e5780635c19a95c146103925780635c975abb146103a55780636fcfff45146103b057806370a08231146103d857600080fd5b80633f4ba83a1461030b57806340c10f191461031357806342966c681461032657806348709a93146103395780634bf5d7e91461034657600080fd5b8063313ce56711610210578063313ce567146102c857806332cb6b0c146102d75780633644e515146102e85780633a46b1a8146102f05780633c130d901461030357600080fd5b806306fdde031461024d578063095ea7b31461026b5780630d659ec51461028e57806318160ddd146102a357806323b872dd146102b5575b600080fd5b6102556105b7565b6040516102629190612486565b60405180910390f35b61027e6102793660046124b5565b610649565b6040519015158152602001610262565b6102a161029c3660046124df565b610663565b005b6002545b604051908152602001610262565b61027e6102c3366004612501565b6106c2565b60405160128152602001610262565b6102a769d3c21bcecceda100000081565b6102a76106e6565b6102a76102fe3660046124b5565b6106f5565b610255610731565b6102a1610740565b6102a16103213660046124b5565b610752565b6102a161033436600461253d565b610812565b600e5461027e9060ff1681565b610255610919565b61037a61035c366004612556565b6001600160a01b039081166000908152600960205260409020541690565b6040516001600160a01b039091168152602001610262565b6102a16103a0366004612556565b610991565b60055460ff1661027e565b6103c36103be366004612556565b6109a0565b60405163ffffffff9091168152602001610262565b6102a76103e6366004612556565b6001600160a01b031660009081526020819052604090205490565b6102a16109ab565b6102a16104173660046124b5565b6109bd565b6102a761042a366004612556565b6109d2565b6102a16109dd565b61043f6109ed565b6040516102629796959493929190612571565b6102a7670de0b6b3a764000081565b6102a161046f36600461253d565b610a33565b60055461010090046001600160a01b031661037a565b6102a761049836600461253d565b610ac9565b6104a5610aee565b60405165ffffffffffff9091168152602001610262565b610255610af8565b6102a76104d2366004612556565b610b07565b61027e6104e53660046124b5565b610b28565b6102a7600d5481565b6102a1610501366004612618565b610b36565b6102a1610514366004612670565b610bf3565b6102a76105273660046126da565b6001600160a01b03918216600090815260016020908152604080832093909416825291909152205490565b6102a1610560366004612723565b610d2d565b6105786105733660046127d4565b610dc3565b60408051825165ffffffffffff1681526020928301516001600160d01b03169281019290925201610262565b6102a16105b2366004612556565b610de8565b6060600380546105c690612814565b80601f01602080910402602001604051908101604052809291908181526020018280546105f290612814565b801561063f5780601f106106145761010080835404028352916020019161063f565b820191906000526020600020905b81548152906001019060200180831161062257829003601f168201915b5050505050905090565b600033610657818585610e26565b60019150505b92915050565b61066b610e38565b600e805482151560ff19821681179092556040805160ff909216801515835260208301939093527f35b05563db5dd3045c31a9b46a385d3e34a1b6ad51cc00c23562eccb5619002a91015b60405180910390a15050565b6000336106d0858285610e6b565b6106db858585610eea565b506001949350505050565b60006106f0610f49565b905090565b600061072161070383611074565b6001600160a01b0385166000908152600a60205260409020906110c3565b6001600160d01b03169392505050565b6060600c80546105c690612814565b610748610e38565b610750611179565b565b61075a610e38565b69d3c21bcecceda10000008161076f60025490565b6107799190612864565b11156107c15760405162461bcd60e51b815260206004820152601260248201527145786365656473206d617820737570706c7960701b60448201526064015b60405180910390fd5b6107cb82826111cb565b816001600160a01b03167fb9144c96c86541f6fa89c9f2f02495cccf4b08cd6643e26d34ee00aa586558a88260405161080691815260200190565b60405180910390a25050565b336000908152602081905260409020548181101561087d5760405162461bcd60e51b815260206004820152602260248201527f45524332303a206275726e20616d6f756e7420657863656564732062616c616e604482015261636560f01b60648201526084016107b8565b670de0b6b3a76400006108908383612877565b10156108de5760405162461bcd60e51b815260206004820181905260248201527f42616c616e636520776f756c642066616c6c2062656c6f77206d696e696d756d60448201526064016107b8565b6108e7826111d5565b60405182815233907f1af5163f80e79b5e554f61e1d052084d3a3fe1166e42a265798c4e2ddce8ffa290602001610806565b60606109236111df565b65ffffffffffff16610933610aee565b65ffffffffffff1614610959576040516301bfc1c560e61b815260040160405180910390fd5b5060408051808201909152601d81527f6d6f64653d626c6f636b6e756d6265722666726f6d3d64656661756c74000000602082015290565b3361099c81836111ea565b5050565b600061065d8261125c565b6109b3610e38565b610750600061127e565b6109c8823383610e6b565b61099c82826112d8565b600061065d8261130e565b6109e5610e38565b61075061132c565b600060608060008060006060610a01611369565b610a09611396565b60408051600080825260208201909252600f60f81b9b939a50919850469750309650945092509050565b610a3b610e38565b60008111610a8b5760405162461bcd60e51b815260206004820152601d60248201527f416d6f756e74206d7573742062652067726561746572207468616e203000000060448201526064016107b8565b600d80549082905560408051828152602081018490527f1e7d225cb161c2f834852cd521d7ee05358af80025a0e937483c51e42bfc13de91016106b6565b6000610adf610ad783611074565b600b906110c3565b6001600160d01b031692915050565b60006106f06111df565b6060600480546105c690612814565b6001600160a01b0381166000908152600a60205260408120610adf906113c3565b600033610657818585610eea565b83421115610b5a57604051632341d78760e11b8152600481018590526024016107b8565b604080517fe48329057bfd03d55e49b547132e39cffd9c1820ad7b9d4c5307691425d15adf60208201526001600160a01b038816918101919091526060810186905260808101859052600090610bd490610bcc9060a001604051602081830303815290604052805190602001206113fc565b858585611429565b9050610be08187611457565b610bea81886111ea565b50505050505050565b83421115610c175760405163313c898160e11b8152600481018590526024016107b8565b60007f6e71edae12b1b97f4d1f60370fef10105fa2faae0126114a169c64845d6126c9888888610c648c6001600160a01b0316600090815260086020526040902080546001810190915590565b6040805160208101969096526001600160a01b0394851690860152929091166060840152608083015260a082015260c0810186905260e0016040516020818303038152906040528051906020012090506000610cbf826113fc565b90506000610ccf82878787611429565b9050896001600160a01b0316816001600160a01b031614610d16576040516325c0072360e11b81526001600160a01b0380831660048301528b1660248201526044016107b8565b610d218a8a8a610e26565b50505050505050505050565b610d35610e38565b6000815111610d7c5760405162461bcd60e51b81526020600482015260136024820152725552492063616e6e6f7420626520656d70747960681b60448201526064016107b8565b600c610d8882826128d8565b507f5bb111c9b2ad41c6cc1754cdbee2cc303b7becb89d29d2d5f91165fcc0b0a49d81604051610db89190612486565b60405180910390a150565b6040805180820190915260008082526020820152610de183836114aa565b9392505050565b610df0610e38565b6001600160a01b038116610e1a57604051631e4fbdf760e01b8152600060048201526024016107b8565b610e238161127e565b50565b610e3383838360016114e0565b505050565b6005546001600160a01b036101009091041633146107505760405163118cdaa760e01b81523360048201526024016107b8565b6001600160a01b03838116600090815260016020908152604080832093861683529290522054600019811015610ee45781811015610ed557604051637dc7a0d960e11b81526001600160a01b038416600482015260248101829052604481018390526064016107b8565b610ee4848484840360006114e0565b50505050565b6001600160a01b038316610f1457604051634b637e8f60e11b8152600060048201526024016107b8565b6001600160a01b038216610f3e5760405163ec442f0560e01b8152600060048201526024016107b8565b610e338383836115b5565b6000306001600160a01b037f000000000000000000000000000000000000000000000000000000000000000016148015610fa257507f000000000000000000000000000000000000000000000000000000000000000046145b15610fcc57507f000000000000000000000000000000000000000000000000000000000000000090565b6106f0604080517f8b73c3c69bb8fe3d512ecc4cf759cc79239f7b179b0ffacaa9a75d522b39400f60208201527f0000000000000000000000000000000000000000000000000000000000000000918101919091527f000000000000000000000000000000000000000000000000000000000000000060608201524660808201523060a082015260009060c00160405160208183030381529060405280519060200120905090565b60008061107f610aee565b90508065ffffffffffff1683106110ba57604051637669fc0f60e11b81526004810184905265ffffffffffff821660248201526044016107b8565b610de1836118f0565b8154600090818160058111156111225760006110de84611927565b6110e89085612877565b60008881526020902090915081015465ffffffffffff908116908716101561111257809150611120565b61111d816001612864565b92505b505b600061113087878585611a80565b9050801561116b5761115587611147600184612877565b600091825260209091200190565b54600160301b90046001600160d01b031661116e565b60005b979650505050505050565b611181611ae2565b6005805460ff191690557f5db9ee0a495bf2e6ff9c91a7834c1ba4fdd244a5e8aa4e537bd38aeae4b073aa335b6040516001600160a01b03909116815260200160405180910390a1565b61099c8282611b05565b610e2333826112d8565b60006106f0436118f0565b6001600160a01b0382811660008181526009602052604080822080548686166001600160a01b0319821681179092559151919094169392849290917f3134e8a2e6d97e929a7e54011ea5485d7d196dd5f0ba4d4ef95803e8e3fc257f9190a4610e33818361125786611b3b565b611b59565b6001600160a01b0381166000908152600a602052604081205461065d90611cc5565b600580546001600160a01b03838116610100818102610100600160a81b031985161790945560405193909204169182907f8be0079c531659141344cd1fd0a4f28419497f9722a3daafe3b4186f6b6457e090600090a35050565b6001600160a01b03821661130257604051634b637e8f60e11b8152600060048201526024016107b8565b61099c826000836115b5565b6001600160a01b03811660009081526008602052604081205461065d565b611334611cf6565b6005805460ff191660011790557f62e78cea01bee320cd4e420270b5ea74000d11b0c9f74754ebdbfc544b05a2586111ae3390565b60606106f07f00000000000000000000000000000000000000000000000000000000000000006006611d1a565b60606106f07f00000000000000000000000000000000000000000000000000000000000000006007611d1a565b805460009080156113f3576113dd83611147600184612877565b54600160301b90046001600160d01b0316610de1565b60009392505050565b600061065d611409610f49565b8360405161190160f01b8152600281019290925260228201526042902090565b60008060008061143b88888888611dc5565b92509250925061144b8282611e94565b50909695505050505050565b6001600160a01b0382166000908152600860205260409020805460018101909155818114610e33576040516301d4b62360e61b81526001600160a01b0384166004820152602481018290526044016107b8565b60408051808201909152600080825260208201526001600160a01b0383166000908152600a60205260409020610de19083611f4d565b6001600160a01b03841661150a5760405163e602df0560e01b8152600060048201526024016107b8565b6001600160a01b03831661153457604051634a1406b160e11b8152600060048201526024016107b8565b6001600160a01b0380851660009081526001602090815260408083209387168352929052208290558015610ee457826001600160a01b0316846001600160a01b03167f8c5be1e5ebec7d5bd14f71427d1e84f3dd0314c0f7b2291e5b200ac8c7c3b925846040516115a791815260200190565b60405180910390a350505050565b60055460ff16156116085760405162461bcd60e51b815260206004820152601b60248201527f546f6b656e207472616e73666572207768696c6520706175736564000000000060448201526064016107b8565b816001600160a01b0316836001600160a01b0316036116695760405162461bcd60e51b815260206004820152601a60248201527f53656c66207472616e7366657273206e6f7420616c6c6f77656400000000000060448201526064016107b8565b6001600160a01b0383161580159061168957506001600160a01b03821615155b156118e557600081116116de5760405162461bcd60e51b815260206004820152601d60248201527f416d6f756e74206d7573742062652067726561746572207468616e203000000060448201526064016107b8565b600e5460ff161561173b57600d5481111561173b5760405162461bcd60e51b815260206004820152601b60248201527f45786365656473206d6178207472616e7366657220616d6f756e74000000000060448201526064016107b8565b6001600160a01b0383166000908152602081905260409020548181101561179b5760405162461bcd60e51b8152602060048201526014602482015273496e73756666696369656e742062616c616e636560601b60448201526064016107b8565b670de0b6b3a76400006117ae8383612877565b10156117fc5760405162461bcd60e51b815260206004820181905260248201527f42616c616e636520776f756c642066616c6c2062656c6f77206d696e696d756d60448201526064016107b8565b6001600160a01b038316600090815260208190526040902054801561187857670de0b6b3a76400008110156118735760405162461bcd60e51b815260206004820152601960248201527f526563697069656e742062616c616e636520746f6f206c6f770000000000000060448201526064016107b8565b6118e2565b670de0b6b3a76400008310156118e25760405162461bcd60e51b815260206004820152602960248201527f5472616e7366657220616d6f756e7420746f6f206c6f7720666f72206e6577206044820152681c9958da5c1a595b9d60ba1b60648201526084016107b8565b50505b610e33838383611fbd565b600065ffffffffffff821115611923576040516306dfcc6560e41b815260306004820152602481018390526044016107b8565b5090565b600060018211611935575090565b816001600160801b821061194e5760809190911c9060401b5b6801000000000000000082106119695760409190911c9060201b5b64010000000082106119805760209190911c9060101b5b6201000082106119955760109190911c9060081b5b61010082106119a95760089190911c9060041b5b601082106119bc5760049190911c9060021b5b600482106119c85760011b5b600302600190811c908185816119e0576119e0612998565b048201901c905060018185816119f8576119f8612998565b048201901c90506001818581611a1057611a10612998565b048201901c90506001818581611a2857611a28612998565b048201901c90506001818581611a4057611a40612998565b048201901c90506001818581611a5857611a58612998565b048201901c9050611a77818581611a7157611a71612998565b04821190565b90039392505050565b60005b81831015611ada576000611a978484612024565b60008781526020902090915065ffffffffffff86169082015465ffffffffffff161115611ac657809250611ad4565b611ad1816001612864565b93505b50611a83565b509392505050565b60055460ff1661075057604051638dfc202b60e01b815260040160405180910390fd5b6001600160a01b038216611b2f5760405163ec442f0560e01b8152600060048201526024016107b8565b61099c600083836115b5565b6001600160a01b03811660009081526020819052604081205461065d565b816001600160a01b0316836001600160a01b031614158015611b7b5750600081115b15610e33576001600160a01b03831615611c23576001600160a01b0383166000908152600a602052604081208190611bbe9061203f611bb98661204b565b61207f565b6001600160d01b031691506001600160d01b03169150846001600160a01b03167fdec2bacdd2f05b59de34da9b523dff8be42e5e38e818c82fdb0bae774387a7248383604051611c18929190918252602082015260400190565b60405180910390a250505b6001600160a01b03821615610e33576001600160a01b0382166000908152600a602052604081208190611c5c906120b8611bb98661204b565b6001600160d01b031691506001600160d01b03169150836001600160a01b03167fdec2bacdd2f05b59de34da9b523dff8be42e5e38e818c82fdb0bae774387a7248383604051611cb6929190918252602082015260400190565b60405180910390a25050505050565b600063ffffffff821115611923576040516306dfcc6560e41b815260206004820152602481018390526044016107b8565b60055460ff16156107505760405163d93c066560e01b815260040160405180910390fd5b606060ff8314611d3457611d2d836120c4565b905061065d565b818054611d4090612814565b80601f0160208091040260200160405190810160405280929190818152602001828054611d6c90612814565b8015611db95780601f10611d8e57610100808354040283529160200191611db9565b820191906000526020600020905b815481529060010190602001808311611d9c57829003601f168201915b5050505050905061065d565b600080807f7fffffffffffffffffffffffffffffff5d576e7357a4501ddfe92f46681b20a0841115611e005750600091506003905082611e8a565b604080516000808252602082018084528a905260ff891692820192909252606081018790526080810186905260019060a0016020604051602081039080840390855afa158015611e54573d6000803e3d6000fd5b5050604051601f1901519150506001600160a01b038116611e8057506000925060019150829050611e8a565b9250600091508190505b9450945094915050565b6000826003811115611ea857611ea86129ae565b03611eb1575050565b6001826003811115611ec557611ec56129ae565b03611ee35760405163f645eedf60e01b815260040160405180910390fd5b6002826003811115611ef757611ef76129ae565b03611f185760405163fce698f760e01b8152600481018290526024016107b8565b6003826003811115611f2c57611f2c6129ae565b0361099c576040516335e2f38360e21b8152600481018290526024016107b8565b6040805180820190915260008082526020820152826000018263ffffffff1681548110611f7c57611f7c6129c4565b60009182526020918290206040805180820190915291015465ffffffffffff81168252600160301b90046001600160d01b0316918101919091529392505050565b611fc8838383612103565b6001600160a01b038316612019576000611fe160025490565b90506001600160d01b038082111561201657604051630e58ae9360e11b815260048101839052602481018290526044016107b8565b50505b610e33838383612116565b600061203360028484186129da565b610de190848416612864565b6000610de182846129fc565b60006001600160d01b03821115611923576040516306dfcc6560e41b815260d06004820152602481018390526044016107b8565b6000806120ab61208d610aee565b6120a3612099886113c3565b868863ffffffff16565b87919061218c565b915091505b935093915050565b6000610de18284612a23565b606060006120d18361219a565b604080516020808252818301909252919250600091906020820181803683375050509182525060208101929092525090565b61210b611cf6565b610e338383836121c2565b6001600160a01b03831661213857612135600b6120b8611bb98461204b565b50505b6001600160a01b03821661215a57612157600b61203f611bb98461204b565b50505b6001600160a01b03838116600090815260096020526040808220548584168352912054610e3392918216911683611b59565b6000806120ab8585856122ec565b600060ff8216601f81111561065d57604051632cd44ac360e21b815260040160405180910390fd5b6001600160a01b0383166121ed5780600260008282546121e29190612864565b9091555061225f9050565b6001600160a01b038316600090815260208190526040902054818110156122405760405163391434e360e21b81526001600160a01b038516600482015260248101829052604481018390526064016107b8565b6001600160a01b03841660009081526020819052604090209082900390555b6001600160a01b03821661227b5760028054829003905561229a565b6001600160a01b03821660009081526020819052604090208054820190555b816001600160a01b0316836001600160a01b03167fddf252ad1be2c89b69c2b068fc378daa952ba7f163c4a11628f55a4df523b3ef836040516122df91815260200190565b60405180910390a3505050565b8254600090819080156123e557600061230a87611147600185612877565b805490915065ffffffffffff80821691600160301b90046001600160d01b031690881682111561234d57604051632520601d60e01b815260040160405180910390fd5b8765ffffffffffff168265ffffffffffff160361238657825465ffffffffffff16600160301b6001600160d01b038916021783556123d7565b6040805180820190915265ffffffffffff808a1682526001600160d01b03808a1660208085019182528d54600181018f5560008f81529190912094519151909216600160301b029216919091179101555b94508593506120b092505050565b50506040805180820190915265ffffffffffff80851682526001600160d01b0380851660208085019182528854600181018a5560008a815291822095519251909316600160301b0291909316179201919091559050816120b0565b6000815180845260005b818110156124665760208185018101518683018201520161244a565b506000602082860101526020601f19601f83011685010191505092915050565b602081526000610de16020830184612440565b80356001600160a01b03811681146124b057600080fd5b919050565b600080604083850312156124c857600080fd5b6124d183612499565b946020939093013593505050565b6000602082840312156124f157600080fd5b81358015158114610de157600080fd5b60008060006060848603121561251657600080fd5b61251f84612499565b925061252d60208501612499565b9150604084013590509250925092565b60006020828403121561254f57600080fd5b5035919050565b60006020828403121561256857600080fd5b610de182612499565b60ff60f81b881681526000602060e08184015261259160e084018a612440565b83810360408501526125a3818a612440565b606085018990526001600160a01b038816608086015260a0850187905284810360c0860152855180825283870192509083019060005b818110156125f5578351835292840192918401916001016125d9565b50909c9b505050505050505050505050565b803560ff811681146124b057600080fd5b60008060008060008060c0878903121561263157600080fd5b61263a87612499565b9550602087013594506040870135935061265660608801612607565b92506080870135915060a087013590509295509295509295565b600080600080600080600060e0888a03121561268b57600080fd5b61269488612499565b96506126a260208901612499565b955060408801359450606088013593506126be60808901612607565b925060a0880135915060c0880135905092959891949750929550565b600080604083850312156126ed57600080fd5b6126f683612499565b915061270460208401612499565b90509250929050565b634e487b7160e01b600052604160045260246000fd5b60006020828403121561273557600080fd5b813567ffffffffffffffff8082111561274d57600080fd5b818401915084601f83011261276157600080fd5b8135818111156127735761277361270d565b604051601f8201601f19908116603f0116810190838211818310171561279b5761279b61270d565b816040528281528760208487010111156127b457600080fd5b826020860160208301376000928101602001929092525095945050505050565b600080604083850312156127e757600080fd5b6127f083612499565b9150602083013563ffffffff8116811461280957600080fd5b809150509250929050565b600181811c9082168061282857607f821691505b60208210810361284857634e487b7160e01b600052602260045260246000fd5b50919050565b634e487b7160e01b600052601160045260246000fd5b8082018082111561065d5761065d61284e565b8181038181111561065d5761065d61284e565b601f821115610e3357600081815260208120601f850160051c810160208610156128b15750805b601f850160051c820191505b818110156128d0578281556001016128bd565b505050505050565b815167ffffffffffffffff8111156128f2576128f261270d565b612906816129008454612814565b8461288a565b602080601f83116001811461293b57600084156129235750858301515b600019600386901b1c1916600185901b1785556128d0565b600085815260208120601f198616915b8281101561296a5788860151825594840194600190910190840161294b565b50858210156129885787850151600019600388901b60f8161c191681555b5050505050600190811b01905550565b634e487b7160e01b600052601260045260246000fd5b634e487b7160e01b600052602160045260246000fd5b634e487b7160e01b600052603260045260246000fd5b6000826129f757634e487b7160e01b600052601260045260246000fd5b500490565b6001600160d01b03828116828216039080821115612a1c57612a1c61284e565b5092915050565b6001600160d01b03818116838216019080821115612a1c57612a1c61284e56fea264697066735822122005bbca7fb1da3b0d11549a657b8ef1e241f943afba40caf508adb37bb364f83664736f6c63430008140033",
  "linkReferences": {},
  "deployedLinkReferences": {}
}