{
  "_format": "hh-sol-artifact-1",
  "contractName": "Pool_BG",
  "sourceName": "contracts/Pool_BG.sol",
  "abi": [
    {
      "inputs": [
        {
          "internalType": "address",
          "name": "beta_",
          "type": "address"
        },
        {
          "internalType": "address",
          "name": "gamma_",
          "type": "address"
        }
      ],
      "stateMutability": "nonpayable",
      "type": "constructor"
    },
    {
      "anonymous": false,
      "inputs": [
        {
          "indexed": true,
          "internalType": "address",
          "name": "provider",
          "type": "address"
        },
        {
          "indexed": false,
          "internalType": "uint256",
          "name": "amountBeta",
          "type": "uint256"
        },
        {
          "indexed": false,
          "internalType": "uint256",
          "name": "amountGamma",
          "type": "uint256"
        },
        {
          "indexed": false,
          "internalType": "uint256",
          "name": "liquidity",
          "type": "uint256"
        }
      ],
      "name": "LiquidityAdded",
      "type": "event"
    },
    {
      "anonymous": false,
      "inputs": [
        {
          "indexed": true,
          "internalType": "address",
          "name": "provider",
          "type": "address"
        },
        {
          "indexed": false,
          "internalType": "uint256",
          "name": "amountBeta",
          "type": "uint256"
        },
        {
          "indexed": false,
          "internalType": "uint256",
          "name": "amountGamma",
          "type": "uint256"
        },
        {
          "indexed": false,
          "internalType": "uint256",
          "name": "liquidity",
          "type": "uint256"
        }
      ],
      "name": "LiquidityRemoved",
      "type": "event"
    },
    {
      "anonymous": false,
      "inputs": [
        {
          "indexed": true,
          "internalType": "address",
          "name": "beta",
          "type": "address"
        },
        {
          "indexed": true,
          "internalType": "address",
          "name": "gamma",
          "type": "address"
        },
        {
          "indexed": false,
          "internalType": "uint256",
          "name": "amountBeta",
          "type": "uint256"
        },
        {
          "indexed": false,
          "internalType": "uint256",
          "name": "amountGamma",
          "type": "uint256"
        }
      ],
      "name": "PoolInitialized",
      "type": "event"
    },
    {
      "anonymous": false,
      "inputs": [
        {
          "indexed": true,
          "internalType": "address",
          "name": "sender",
          "type": "address"
        },
        {
          "indexed": true,
          "internalType": "address",
          "name": "tokenIn",
          "type": "address"
        },
        {
          "indexed": true,
          "internalType": "address",
          "name": "tokenOut",
          "type": "address"
        },
        {
          "indexed": false,
          "internalType": "uint256",
          "name": "amountIn",
          "type": "uint256"
        },
        {
          "indexed": false,
          "internalType": "uint256",
          "name": "amountOut",
          "type": "uint256"
        }
      ],
      "name": "Swap",
      "type": "event"
    },
    {
      "inputs": [
        {
          "internalType": "uint256",
          "name": "amountBeta",
          "type": "uint256"
        }
      ],
      "name": "addLiquidity",
      "outputs": [
        {
          "internalType": "uint256",
          "name": "",
          "type": "uint256"
        }
      ],
      "stateMutability": "nonpayable",
      "type": "function"
    },
    {
      "inputs": [],
      "name": "beta",
      "outputs": [
        {
          "internalType": "address",
          "name": "",
          "type": "address"
        }
      ],
      "stateMutability": "view",
      "type": "function"
    },
    {
      "inputs": [],
      "name": "gamma",
      "outputs": [
        {
          "internalType": "address",
          "name": "",
          "type": "address"
        }
      ],
      "stateMutability": "view",
      "type": "function"
    },
    {
      "inputs": [
        {
          "internalType": "uint256",
          "name": "amountBeta",
          "type": "uint256"
        }
      ],
      "name": "getRequiredAmountGamma",
      "outputs": [
        {
          "internalType": "uint256",
          "name": "",
          "type": "uint256"
        }
      ],
      "stateMutability": "view",
      "type": "function"
    },
    {
      "inputs": [],
      "name": "getReserves",
      "outputs": [
        {
          "internalType": "uint256",
          "name": "reserveBeta",
          "type": "uint256"
        },
        {
          "internalType": "uint256",
          "name": "reserveGamma",
          "type": "uint256"
        }
      ],
      "stateMutability": "view",
      "type": "function"
    },
    {
      "inputs": [
        {
          "internalType": "uint256",
          "name": "amountBeta",
          "type": "uint256"
        }
      ],
      "name": "initialize",
      "outputs": [],
      "stateMutability": "nonpayable",
      "type": "function"
    },
    {
      "inputs": [],
      "name": "isInitialized",
      "outputs": [
        {
          "internalType": "bool",
          "name": "",
          "type": "bool"
        }
      ],
      "stateMutability": "view",
      "type": "function"
    },
    {
      "inputs": [],
      "name": "lpToken",
      "outputs": [
        {
          "internalType": "contract LPToken",
          "name": "",
          "type": "address"
        }
      ],
      "stateMutability": "view",
      "type": "function"
    },
    {
      "inputs": [
        {
          "internalType": "uint256",
          "name": "lpAmount",
          "type": "uint256"
        }
      ],
      "name": "removeLiquidity",
      "outputs": [
        {
          "internalType": "uint256",
          "name": "",
          "type": "uint256"
        },
        {
          "internalType": "uint256",
          "name": "",
          "type": "uint256"
        }
      ],
      "stateMutability": "nonpayable",
      "type": "function"
    },
    {
      "inputs": [
        {
          "internalType": "address",
          "name": "tokenIn",
          "type": "address"
        },
        {
          "internalType": "uint256",
          "name": "amountIn",
          "type": "uint256"
        },
        {
          "internalType": "address",
          "name": "tokenOut",
          "type": "address"
        }
      ],
      "name": "swap",
      "outputs": [
        {
          "internalType": "uint256",
          "name": "",
          "type": "uint256"
        }
      ],
      "stateMutability": "nonpayable",
      "type": "function"
    }
  ],
  "bytecode": "0x60e06040523480156200001157600080fd5b5060405162002de438038062002de483398101604081905262000034916200021b565b6001600160a01b038216620000905760405162461bcd60e51b815260206004820152601a60248201527f4265746120746f6b656e206973207a65726f206164647265737300000000000060448201526064015b60405180910390fd5b6001600160a01b038116620000e85760405162461bcd60e51b815260206004820152601b60248201527f47616d6d6120746f6b656e206973207a65726f20616464726573730000000000604482015260640162000087565b806001600160a01b0316826001600160a01b0316036200014b5760405162461bcd60e51b815260206004820152601360248201527f4964656e746963616c2061646472657373657300000000000000000000000000604482015260640162000087565b6001600160a01b03808316608052811660a0526040516200016c90620001f0565b604051809103906000f08015801562000189573d6000803e3d6000fd5b506001600160a01b031660c081905260405163189acdbd60e31b815230600482015263c4d66de890602401600060405180830381600087803b158015620001cf57600080fd5b505af1158015620001e4573d6000803e3d6000fd5b50505050505062000253565b61123f8062001ba583390190565b80516001600160a01b03811681146200021657600080fd5b919050565b600080604083850312156200022f57600080fd5b6200023a83620001fe565b91506200024a60208401620001fe565b90509250929050565b60805160a05160c0516118186200038d60003960008181610114015281816105b7015281816106b601528181610de501528181610eaa01528181610fef01526114ed0152600081816101a0015281816102140152818161028d0152818161047f0152818161056e015281816108190152818161085501528181610c4d01528181610ca001528181610f87015281816110ac015281816111b8015281816113d2015281816114a9015261156f015260008181610179015281816101e10152818161025a015281816103d00152818161052101528181610654015281816107dd015281816108910152818161095d015281816109d901528181610bbf01528181610c0001528181610ced01528181610f340152818161105c0152818161110b0152818161132301528181611474015261159301526118186000f3fe608060405234801561001057600080fd5b506004361061009e5760003560e01c80636d069a67116100665780636d069a671461014e5780639c8f9f23146101615780639faa3c9114610174578063b13739291461019b578063fe4b84df146101c257600080fd5b80630902f1ac146100a35780631f4864a2146100c5578063392e53cd146100e657806351c6590a146100fc5780635fcbd2851461010f575b600080fd5b6100ab6101d7565b604080519283526020830191909152015b60405180910390f35b6100d86100d33660046115e5565b61023f565b6040519081526020016100bc565b60015460ff1660405190151581526020016100bc565b6100d861010a3660046115e5565b610321565b6101367f000000000000000000000000000000000000000000000000000000000000000081565b6040516001600160a01b0390911681526020016100bc565b6100d861015c366004611615565b610767565b6100ab61016f3660046115e5565b610d87565b6101367f000000000000000000000000000000000000000000000000000000000000000081565b6101367f000000000000000000000000000000000000000000000000000000000000000081565b6101d56101d03660046115e5565b611297565b005b6001600160a01b037f00000000000000000000000000000000000000000000000000000000000000008116600090815260208190526040808220547f000000000000000000000000000000000000000000000000000000000000000090931682529020549091565b60015460009060ff16610250575090565b6001600160a01b037f00000000000000000000000000000000000000000000000000000000000000008116600090815260208190526040808220547f0000000000000000000000000000000000000000000000000000000000000000909316825290205481158015906102c35750600081115b6103045760405162461bcd60e51b815260206004820152600d60248201526c506f6f6c20697320656d70747960981b60448201526064015b60405180910390fd5b8161030f8286611667565b6103199190611684565b949350505050565b60015460009060ff166103465760405162461bcd60e51b81526004016102fb906116a6565b600082116103665760405162461bcd60e51b81526004016102fb906116d4565b60006103718361023f565b9050600081116103b95760405162461bcd60e51b8152602060048201526013602482015272496e76616c696420616d6f756e7447616d6d6160681b60448201526064016102fb565b6040516323b872dd60e01b81526001600160a01b037f000000000000000000000000000000000000000000000000000000000000000016906323b872dd90610409903390309088906004016116f9565b6020604051808303816000875af1158015610428573d6000803e3d6000fd5b505050506040513d601f19601f8201168201806040525081019061044c919061171d565b6104685760405162461bcd60e51b81526004016102fb90611746565b6040516323b872dd60e01b81526001600160a01b037f000000000000000000000000000000000000000000000000000000000000000016906323b872dd906104b8903390309086906004016116f9565b6020604051808303816000875af11580156104d7573d6000803e3d6000fd5b505050506040513d601f19601f820116820180604052508101906104fb919061171d565b6105175760405162461bcd60e51b81526004016102fb90611774565b6001600160a01b037f0000000000000000000000000000000000000000000000000000000000000000166000908152602081905260408120805485929061055f9084906117a3565b90915550506001600160a01b037f000000000000000000000000000000000000000000000000000000000000000016600090815260208190526040812080548392906105ac9084906117a3565b9250508190555060007f00000000000000000000000000000000000000000000000000000000000000006001600160a01b03166318160ddd6040518163ffffffff1660e01b8152600401602060405180830381865afa158015610613573d6000803e3d6000fd5b505050506040513d601f19601f8201168201806040525081019061063791906117b6565b905060008160000361064a57508361069a565b6001600160a01b037f00000000000000000000000000000000000000000000000000000000000000001660009081526020819052604090205461068d8387611667565b6106979190611684565b90505b6040516340c10f1960e01b8152336004820152602481018290527f00000000000000000000000000000000000000000000000000000000000000006001600160a01b0316906340c10f1990604401600060405180830381600087803b15801561070257600080fd5b505af1158015610716573d6000803e3d6000fd5b505060408051888152602081018790529081018490523392507f64b83944e79c3ce8d4c297411de637c3e102d064677aac0c163976ebdcd6f50e915060600160405180910390a2925050505b919050565b60015460009060ff1661078c5760405162461bcd60e51b81526004016102fb906116a6565b816001600160a01b0316846001600160a01b0316036107db5760405162461bcd60e51b815260206004820152600b60248201526a53616d6520746f6b656e7360a81b60448201526064016102fb565b7f00000000000000000000000000000000000000000000000000000000000000006001600160a01b0316846001600160a01b031614801561084d57507f00000000000000000000000000000000000000000000000000000000000000006001600160a01b0316826001600160a01b0316145b806108c557507f00000000000000000000000000000000000000000000000000000000000000006001600160a01b0316846001600160a01b03161480156108c557507f00000000000000000000000000000000000000000000000000000000000000006001600160a01b0316826001600160a01b0316145b6109065760405162461bcd60e51b815260206004820152601260248201527124b73b30b634b2103a37b5b2b7103830b4b960711b60448201526064016102fb565b6000831161094a5760405162461bcd60e51b815260206004820152601160248201527016995c9bc81a5b9c1d5d08185b5bdd5b9d607a1b60448201526064016102fb565b6000806109556101d7565b9150915060007f00000000000000000000000000000000000000000000000000000000000000006001600160a01b0316876001600160a01b0316146109b657816109a784670de0b6b3a7640000611667565b6109b19190611684565b6109d3565b826109c983670de0b6b3a7640000611667565b6109d39190611684565b905060007f00000000000000000000000000000000000000000000000000000000000000006001600160a01b0316886001600160a01b031603610a3557610a1a87856117a3565b610a248489611667565b610a2e9190611684565b9050610a56565b610a3f87846117a3565b610a498589611667565b610a539190611684565b90505b6040516323b872dd60e01b81526001600160a01b038916906323b872dd90610a8690339030908c906004016116f9565b6020604051808303816000875af1158015610aa5573d6000803e3d6000fd5b505050506040513d601f19601f82011682018060405250810190610ac9919061171d565b610b0a5760405162461bcd60e51b8152602060048201526012602482015271151c985b9cd9995c881a5b8819985a5b195960721b60448201526064016102fb565b60405163a9059cbb60e01b8152336004820152602481018290526001600160a01b0387169063a9059cbb906044016020604051808303816000875af1158015610b57573d6000803e3d6000fd5b505050506040513d601f19601f82011682018060405250810190610b7b919061171d565b610bbd5760405162461bcd60e51b8152602060048201526013602482015272151c985b9cd9995c881bdd5d0819985a5b1959606a1b60448201526064016102fb565b7f00000000000000000000000000000000000000000000000000000000000000006001600160a01b0316886001600160a01b031603610c96576001600160a01b037f00000000000000000000000000000000000000000000000000000000000000001660009081526020819052604081208054899290610c3e9084906117a3565b90915550506001600160a01b037f00000000000000000000000000000000000000000000000000000000000000001660009081526020819052604081208054839290610c8b9084906117cf565b90915550610d319050565b6001600160a01b037f00000000000000000000000000000000000000000000000000000000000000001660009081526020819052604081208054899290610cde9084906117a3565b90915550506001600160a01b037f00000000000000000000000000000000000000000000000000000000000000001660009081526020819052604081208054839290610d2b9084906117cf565b90915550505b60408051888152602081018390526001600160a01b0380891692908b169133917fcd3829a3813dc3cdd188fd3d01dcf3268c16be2fdd2dd21d0665418816e46062910160405180910390a4979650505050505050565b600154600090819060ff16610dae5760405162461bcd60e51b81526004016102fb906116a6565b60008311610dce5760405162461bcd60e51b81526004016102fb906116d4565b6040516370a0823160e01b815233600482015283907f00000000000000000000000000000000000000000000000000000000000000006001600160a01b0316906370a0823190602401602060405180830381865afa158015610e34573d6000803e3d6000fd5b505050506040513d601f19601f82011682018060405250810190610e5891906117b6565b1015610ea65760405162461bcd60e51b815260206004820152601760248201527f496e73756666696369656e74204c502062616c616e636500000000000000000060448201526064016102fb565b60007f00000000000000000000000000000000000000000000000000000000000000006001600160a01b03166318160ddd6040518163ffffffff1660e01b8152600401602060405180830381865afa158015610f06573d6000803e3d6000fd5b505050506040513d601f19601f82011682018060405250810190610f2a91906117b6565b6001600160a01b037f000000000000000000000000000000000000000000000000000000000000000016600090815260208190526040812054919250908290610f739087611667565b610f7d9190611684565b6001600160a01b037f000000000000000000000000000000000000000000000000000000000000000016600090815260208190526040812054919250908390610fc69088611667565b610fd09190611684565b604051632770a7eb60e21b8152336004820152602481018890529091507f00000000000000000000000000000000000000000000000000000000000000006001600160a01b031690639dc29fac90604401600060405180830381600087803b15801561103b57600080fd5b505af115801561104f573d6000803e3d6000fd5b5050506001600160a01b037f0000000000000000000000000000000000000000000000000000000000000000166000908152602081905260408120805485935090919061109d9084906117cf565b90915550506001600160a01b037f000000000000000000000000000000000000000000000000000000000000000016600090815260208190526040812080548392906110ea9084906117cf565b909155505060405163a9059cbb60e01b8152336004820152602481018390527f00000000000000000000000000000000000000000000000000000000000000006001600160a01b03169063a9059cbb906044016020604051808303816000875af115801561115c573d6000803e3d6000fd5b505050506040513d601f19601f82011682018060405250810190611180919061171d565b61119c5760405162461bcd60e51b81526004016102fb90611746565b60405163a9059cbb60e01b8152336004820152602481018290527f00000000000000000000000000000000000000000000000000000000000000006001600160a01b03169063a9059cbb906044016020604051808303816000875af1158015611209573d6000803e3d6000fd5b505050506040513d601f19601f8201168201806040525081019061122d919061171d565b6112495760405162461bcd60e51b81526004016102fb90611774565b604080518381526020810183905290810187905233907f1dc8bb69df2b8e91fbdcbfcf93d951b3f0000f085a95fe3f7946d6161439245d9060600160405180910390a2909350915050915091565b60015460ff16156112ea5760405162461bcd60e51b815260206004820152601860248201527f506f6f6c20616c726561647920696e697469616c697a6564000000000000000060448201526064016102fb565b6000811161130a5760405162461bcd60e51b81526004016102fb906116d4565b6040516323b872dd60e01b815281906001600160a01b037f000000000000000000000000000000000000000000000000000000000000000016906323b872dd9061135c903390309086906004016116f9565b6020604051808303816000875af115801561137b573d6000803e3d6000fd5b505050506040513d601f19601f8201168201806040525081019061139f919061171d565b6113bb5760405162461bcd60e51b81526004016102fb90611746565b6040516323b872dd60e01b81526001600160a01b037f000000000000000000000000000000000000000000000000000000000000000016906323b872dd9061140b903390309086906004016116f9565b6020604051808303816000875af115801561142a573d6000803e3d6000fd5b505050506040513d601f19601f8201168201806040525081019061144e919061171d565b61146a5760405162461bcd60e51b81526004016102fb90611774565b6001600160a01b037f000000000000000000000000000000000000000000000000000000000000000081166000908152602081905260408082208590557f00000000000000000000000000000000000000000000000000000000000000008316825290819020839055516340c10f1960e01b8152336004820152602481018490527f0000000000000000000000000000000000000000000000000000000000000000909116906340c10f1990604401600060405180830381600087803b15801561153357600080fd5b505af1158015611547573d6000803e3d6000fd5b50506001805460ff191681179055505060408051838152602081018390526001600160a01b037f00000000000000000000000000000000000000000000000000000000000000008116927f0000000000000000000000000000000000000000000000000000000000000000909116917f9ff2050ac7faae9dc192e1cc9abe73b18a9b849f9b43f509914d80fa104d5903910160405180910390a35050565b6000602082840312156115f757600080fd5b5035919050565b80356001600160a01b038116811461076257600080fd5b60008060006060848603121561162a57600080fd5b611633846115fe565b925060208401359150611648604085016115fe565b90509250925092565b634e487b7160e01b600052601160045260246000fd5b808202811582820484141761167e5761167e611651565b92915050565b6000826116a157634e487b7160e01b600052601260045260246000fd5b500490565b602080825260149082015273141bdbdb081b9bdd081a5b9a5d1a585b1a5e995960621b604082015260600190565b6020808252600b908201526a16995c9bc8185b5bdd5b9d60aa1b604082015260600190565b6001600160a01b039384168152919092166020820152604081019190915260600190565b60006020828403121561172f57600080fd5b8151801515811461173f57600080fd5b9392505050565b602080825260149082015273151c985b9cd9995c8810995d184819985a5b195960621b604082015260600190565b602080825260159082015274151c985b9cd9995c8811d85b5b584819985a5b1959605a1b604082015260600190565b8082018082111561167e5761167e611651565b6000602082840312156117c857600080fd5b5051919050565b8181038181111561167e5761167e61165156fea264697066735822122031ab3c0f5a8ba22706cedbf1b6b410816a49ea00a963e4bdcc7c0856133ee49764736f6c6343000814003360806040523480156200001157600080fd5b5033604051806040016040528060088152602001672628102a37b5b2b760c11b8152506040518060400160405280600281526020016104c560f41b8152508160039081620000609190620001c9565b5060046200006f8282620001c9565b50506005805460ff19169055506001600160a01b038116620000ab57604051631e4fbdf760e01b81526000600482015260240160405180910390fd5b620000b681620000ca565b506005805460ff60a81b1916905562000295565b600580546001600160a01b03838116610100818102610100600160a81b031985161790945560405193909204169182907f8be0079c531659141344cd1fd0a4f28419497f9722a3daafe3b4186f6b6457e090600090a35050565b634e487b7160e01b600052604160045260246000fd5b600181811c908216806200014f57607f821691505b6020821081036200017057634e487b7160e01b600052602260045260246000fd5b50919050565b601f821115620001c457600081815260208120601f850160051c810160208610156200019f5750805b601f850160051c820191505b81811015620001c057828155600101620001ab565b5050505b505050565b81516001600160401b03811115620001e557620001e562000124565b620001fd81620001f684546200013a565b8462000176565b602080601f8311600181146200023557600084156200021c5750858301515b600019600386901b1c1916600185901b178555620001c0565b600085815260208120601f198616915b82811015620002665788860151825594840194600190910190840162000245565b5085821015620002855787850151600019600388901b60f8161c191681555b5050505050600190811b01905550565b610f9a80620002a56000396000f3fe608060405234801561001057600080fd5b506004361061014d5760003560e01c806368841431116100c35780639dc29fac1161007c5780639dc29fac1461028d578063a9059cbb146102a0578063abba535d146102b3578063c4d66de8146102bb578063dd62ed3e146102ce578063f2fde38b1461030757600080fd5b8063688414311461022f57806370a0823114610236578063715018a61461025f5780638456cb59146102675780638da5cb5b1461026f57806395d89b411461028557600080fd5b806323b872dd1161011557806323b872dd146101dc578063313ce567146101ef57806332cb6b0c146101fe5780633f4ba83a1461020757806340c10f19146102115780635c975abb1461022457600080fd5b806306fdde0314610152578063095ea7b314610170578063158ef93e1461019357806316f0115b146101a557806318160ddd146101ca575b600080fd5b61015a61031a565b6040516101679190610deb565b60405180910390f35b61018361017e366004610e55565b6103ac565b6040519015158152602001610167565b600554600160a81b900460ff16610183565b6006546001600160a01b03165b6040516001600160a01b039091168152602001610167565b6002545b604051908152602001610167565b6101836101ea366004610e7f565b6103c6565b60405160128152602001610167565b6101ce60001981565b61020f610452565b005b61020f61021f366004610e55565b610464565b60055460ff16610183565b60016101ce565b6101ce610244366004610ebb565b6001600160a01b031660009081526020819052604090205490565b61020f6105f1565b61020f610603565b60055461010090046001600160a01b03166101b2565b61015a610613565b61020f61029b366004610e55565b610622565b6101836102ae366004610e55565b6107a6565b6101ce600181565b61020f6102c9366004610ebb565b610807565b6101ce6102dc366004610ed6565b6001600160a01b03918216600090815260016020908152604080832093909416825291909152205490565b61020f610315366004610ebb565b6108be565b60606003805461032990610f09565b80601f016020809104026020016040519081016040528092919081815260200182805461035590610f09565b80156103a25780601f10610377576101008083540402835291602001916103a2565b820191906000526020600020905b81548152906001019060200180831161038557829003601f168201915b5050505050905090565b6000336103ba8185856108fc565b60019150505b92915050565b60006103d061090e565b600182101561043f57826001600160a01b0316846001600160a01b03167f11fa32abca54cea9e42543564c8e59c2f3a9746185b0ec8862fd61fc7488ee068460405161041e91815260200190565b60405180910390a36040516315834dd160e11b815260040160405180910390fd5b61044a848484610932565b949350505050565b61045a610956565b610462610989565b565b600554600160a81b900460ff1661048e576040516321c4e35760e21b815260040160405180910390fd5b6006546001600160a01b031633146104b95760405163e921159760e01b815260040160405180910390fd5b6001600160a01b0382166105085760405162461bcd60e51b8152602060048201526011602482015270125b9d985b1a59081c9958da5c1a595b9d607a1b60448201526064015b60405180910390fd5b600081116105465760405162461bcd60e51b815260206004820152600b60248201526a16995c9bc8185b5bdd5b9d60aa1b60448201526064016104ff565b6000198161055360025490565b61055d9190610f43565b11156105a05760405162461bcd60e51b815260206004820152601260248201527145786365656473206d617820737570706c7960701b60448201526064016104ff565b6105aa82826109db565b816001600160a01b03167fb9144c96c86541f6fa89c9f2f02495cccf4b08cd6643e26d34ee00aa586558a8826040516105e591815260200190565b60405180910390a25050565b6105f9610956565b6104626000610a15565b61060b610956565b610462610a6f565b60606004805461032990610f09565b600554600160a81b900460ff1661064c576040516321c4e35760e21b815260040160405180910390fd5b6006546001600160a01b031633146106775760405163e921159760e01b815260040160405180910390fd5b6001600160a01b0382166106be5760405162461bcd60e51b815260206004820152600e60248201526d24b73b30b634b21039b2b73232b960911b60448201526064016104ff565b600081116106fc5760405162461bcd60e51b815260206004820152600b60248201526a16995c9bc8185b5bdd5b9d60aa1b60448201526064016104ff565b8061071c836001600160a01b031660009081526020819052604090205490565b10156107615760405162461bcd60e51b8152602060048201526014602482015273496e73756666696369656e742062616c616e636560601b60448201526064016104ff565b61076b8282610aac565b816001600160a01b03167f1af5163f80e79b5e554f61e1d052084d3a3fe1166e42a265798c4e2ddce8ffa2826040516105e591815260200190565b60006107b061090e565b60018210156107f6576040518281526001600160a01b0384169033907f11fa32abca54cea9e42543564c8e59c2f3a9746185b0ec8862fd61fc7488ee069060200161041e565b6108008383610ae2565b9392505050565b61080f610956565b600554600160a81b900460ff16156108395760405162dc149f60e41b815260040160405180910390fd5b6001600160a01b0381166108605760405163d92e233d60e01b815260040160405180910390fd5b600680546001600160a01b0383166001600160a01b031990911681179091556005805460ff60a81b1916600160a81b1790556040517f025f89b99c8ce32af8da7624f4575b920a86ebf07870d85a9fb545fee349ddce90600090a250565b6108c6610956565b6001600160a01b0381166108f057604051631e4fbdf760e01b8152600060048201526024016104ff565b6108f981610a15565b50565b6109098383836001610af0565b505050565b60055460ff16156104625760405163d93c066560e01b815260040160405180910390fd5b600033610940858285610bc6565b61094b858585610c3f565b506001949350505050565b6005546001600160a01b036101009091041633146104625760405163118cdaa760e01b81523360048201526024016104ff565b610991610c9e565b6005805460ff191690557f5db9ee0a495bf2e6ff9c91a7834c1ba4fdd244a5e8aa4e537bd38aeae4b073aa335b6040516001600160a01b03909116815260200160405180910390a1565b6001600160a01b038216610a055760405163ec442f0560e01b8152600060048201526024016104ff565b610a1160008383610cc1565b5050565b600580546001600160a01b03838116610100818102610100600160a81b031985161790945560405193909204169182907f8be0079c531659141344cd1fd0a4f28419497f9722a3daafe3b4186f6b6457e090600090a35050565b610a7761090e565b6005805460ff191660011790557f62e78cea01bee320cd4e420270b5ea74000d11b0c9f74754ebdbfc544b05a2586109be3390565b6001600160a01b038216610ad657604051634b637e8f60e11b8152600060048201526024016104ff565b610a1182600083610cc1565b6000336103ba818585610c3f565b6001600160a01b038416610b1a5760405163e602df0560e01b8152600060048201526024016104ff565b6001600160a01b038316610b4457604051634a1406b160e11b8152600060048201526024016104ff565b6001600160a01b0380851660009081526001602090815260408083209387168352929052208290558015610bc057826001600160a01b0316846001600160a01b03167f8c5be1e5ebec7d5bd14f71427d1e84f3dd0314c0f7b2291e5b200ac8c7c3b92584604051610bb791815260200190565b60405180910390a35b50505050565b6001600160a01b03838116600090815260016020908152604080832093861683529290522054600019811015610bc05781811015610c3057604051637dc7a0d960e11b81526001600160a01b038416600482015260248101829052604481018390526064016104ff565b610bc084848484036000610af0565b6001600160a01b038316610c6957604051634b637e8f60e11b8152600060048201526024016104ff565b6001600160a01b038216610c935760405163ec442f0560e01b8152600060048201526024016104ff565b610909838383610cc1565b60055460ff1661046257604051638dfc202b60e01b815260040160405180910390fd5b6001600160a01b038316610cec578060026000828254610ce19190610f43565b90915550610d5e9050565b6001600160a01b03831660009081526020819052604090205481811015610d3f5760405163391434e360e21b81526001600160a01b038516600482015260248101829052604481018390526064016104ff565b6001600160a01b03841660009081526020819052604090209082900390555b6001600160a01b038216610d7a57600280548290039055610d99565b6001600160a01b03821660009081526020819052604090208054820190555b816001600160a01b0316836001600160a01b03167fddf252ad1be2c89b69c2b068fc378daa952ba7f163c4a11628f55a4df523b3ef83604051610dde91815260200190565b60405180910390a3505050565b600060208083528351808285015260005b81811015610e1857858101830151858201604001528201610dfc565b506000604082860101526040601f19601f8301168501019250505092915050565b80356001600160a01b0381168114610e5057600080fd5b919050565b60008060408385031215610e6857600080fd5b610e7183610e39565b946020939093013593505050565b600080600060608486031215610e9457600080fd5b610e9d84610e39565b9250610eab60208501610e39565b9150604084013590509250925092565b600060208284031215610ecd57600080fd5b61080082610e39565b60008060408385031215610ee957600080fd5b610ef283610e39565b9150610f0060208401610e39565b90509250929050565b600181811c90821680610f1d57607f821691505b602082108103610f3d57634e487b7160e01b600052602260045260246000fd5b50919050565b808201808211156103c057634e487b7160e01b600052601160045260246000fdfea2646970667358221220d40121e732516bf6cbb948cdc5d56a50c699a8e73ff56adfebf356657051ff5a64736f6c63430008140033",
  "linkReferences": {},
  "deployedLinkReferences": {}
}