{
  "_format": "hh-sol-artifact-1",
  "contractName": "Pool_BG",
  "sourceName": "contracts/Pool_BG.sol",
  "abi": [
    {
      "inputs": [
        {
          "internalType": "address",
          "name": "beta",
          "type": "address"
        },
        {
          "internalType": "address",
          "name": "gamma",
          "type": "address"
        }
      ],
      "stateMutability": "nonpayable",
      "type": "constructor"
    },
    {
      "inputs": [],
      "name": "AlreadyInitialized",
      "type": "error"
    },
    {
      "inputs": [],
      "name": "CallerNotPool",
      "type": "error"
    },
    {
      "inputs": [
        {
          "internalType": "address",
          "name": "spender",
          "type": "address"
        },
        {
          "internalType": "uint256",
          "name": "allowance",
          "type": "uint256"
        },
        {
          "internalType": "uint256",
          "name": "needed",
          "type": "uint256"
        }
      ],
      "name": "ERC20InsufficientAllowance",
      "type": "error"
    },
    {
      "inputs": [
        {
          "internalType": "address",
          "name": "sender",
          "type": "address"
        },
        {
          "internalType": "uint256",
          "name": "balance",
          "type": "uint256"
        },
        {
          "internalType": "uint256",
          "name": "needed",
          "type": "uint256"
        }
      ],
      "name": "ERC20InsufficientBalance",
      "type": "error"
    },
    {
      "inputs": [
        {
          "internalType": "address",
          "name": "approver",
          "type": "address"
        }
      ],
      "name": "ERC20InvalidApprover",
      "type": "error"
    },
    {
      "inputs": [
        {
          "internalType": "address",
          "name": "receiver",
          "type": "address"
        }
      ],
      "name": "ERC20InvalidReceiver",
      "type": "error"
    },
    {
      "inputs": [
        {
          "internalType": "address",
          "name": "sender",
          "type": "address"
        }
      ],
      "name": "ERC20InvalidSender",
      "type": "error"
    },
    {
      "inputs": [
        {
          "internalType": "address",
          "name": "spender",
          "type": "address"
        }
      ],
      "name": "ERC20InvalidSpender",
      "type": "error"
    },
    {
      "inputs": [],
      "name": "EnforcedPause",
      "type": "error"
    },
    {
      "inputs": [],
      "name": "ExpectedPause",
      "type": "error"
    },
    {
      "inputs": [],
      "name": "NotInitialized",
      "type": "error"
    },
    {
      "inputs": [
        {
          "internalType": "address",
          "name": "owner",
          "type": "address"
        }
      ],
      "name": "OwnableInvalidOwner",
      "type": "error"
    },
    {
      "inputs": [
        {
          "internalType": "address",
          "name": "account",
          "type": "address"
        }
      ],
      "name": "OwnableUnauthorizedAccount",
      "type": "error"
    },
    {
      "inputs": [],
      "name": "TransferAmountTooLow",
      "type": "error"
    },
    {
      "inputs": [],
      "name": "ZeroAddress",
      "type": "error"
    },
    {
      "anonymous": false,
      "inputs": [
        {
          "indexed": true,
          "internalType": "address",
          "name": "owner",
          "type": "address"
        },
        {
          "indexed": true,
          "internalType": "address",
          "name": "spender",
          "type": "address"
        },
        {
          "indexed": false,
          "internalType": "uint256",
          "name": "value",
          "type": "uint256"
        }
      ],
      "name": "Approval",
      "type": "event"
    },
    {
      "anonymous": false,
      "inputs": [
        {
          "indexed": true,
          "internalType": "address",
          "name": "provider",
          "type": "address"
        },
        {
          "indexed": false,
          "internalType": "uint256",
          "name": "amount0",
          "type": "uint256"
        },
        {
          "indexed": false,
          "internalType": "uint256",
          "name": "amount1",
          "type": "uint256"
        },
        {
          "indexed": false,
          "internalType": "uint256",
          "name": "liquidity",
          "type": "uint256"
        }
      ],
      "name": "LiquidityAdded",
      "type": "event"
    },
    {
      "anonymous": false,
      "inputs": [
        {
          "indexed": false,
          "internalType": "uint256",
          "name": "currentLiquidity",
          "type": "uint256"
        },
        {
          "indexed": false,
          "internalType": "uint256",
          "name": "requiredMinimum",
          "type": "uint256"
        }
      ],
      "name": "LiquidityBelowMinimum",
      "type": "event"
    },
    {
      "anonymous": false,
      "inputs": [
        {
          "indexed": true,
          "internalType": "address",
          "name": "provider",
          "type": "address"
        },
        {
          "indexed": false,
          "internalType": "uint256",
          "name": "amount0",
          "type": "uint256"
        },
        {
          "indexed": false,
          "internalType": "uint256",
          "name": "amount1",
          "type": "uint256"
        },
        {
          "indexed": false,
          "internalType": "uint256",
          "name": "liquidity",
          "type": "uint256"
        }
      ],
      "name": "LiquidityRemoved",
      "type": "event"
    },
    {
      "anonymous": false,
      "inputs": [
        {
          "indexed": true,
          "internalType": "address",
          "name": "previousOwner",
          "type": "address"
        },
        {
          "indexed": true,
          "internalType": "address",
          "name": "newOwner",
          "type": "address"
        }
      ],
      "name": "OwnershipTransferred",
      "type": "event"
    },
    {
      "anonymous": false,
      "inputs": [
        {
          "indexed": false,
          "internalType": "address",
          "name": "account",
          "type": "address"
        }
      ],
      "name": "Paused",
      "type": "event"
    },
    {
      "anonymous": false,
      "inputs": [
        {
          "indexed": true,
          "internalType": "address",
          "name": "token0",
          "type": "address"
        },
        {
          "indexed": true,
          "internalType": "address",
          "name": "token1",
          "type": "address"
        },
        {
          "indexed": false,
          "internalType": "uint256",
          "name": "amount0",
          "type": "uint256"
        },
        {
          "indexed": false,
          "internalType": "uint256",
          "name": "amount1",
          "type": "uint256"
        }
      ],
      "name": "PoolInitialized",
      "type": "event"
    },
    {
      "anonymous": false,
      "inputs": [
        {
          "indexed": true,
          "internalType": "address",
          "name": "pool",
          "type": "address"
        }
      ],
      "name": "PoolSet",
      "type": "event"
    },
    {
      "anonymous": false,
      "inputs": [
        {
          "indexed": true,
          "internalType": "address",
          "name": "token",
          "type": "address"
        },
        {
          "indexed": false,
          "internalType": "uint256",
          "name": "amount",
          "type": "uint256"
        },
        {
          "indexed": false,
          "internalType": "uint256",
          "name": "impact",
          "type": "uint256"
        }
      ],
      "name": "PriceImpactExceeded",
      "type": "event"
    },
    {
      "anonymous": false,
      "inputs": [
        {
          "indexed": true,
          "internalType": "address",
          "name": "sender",
          "type": "address"
        },
        {
          "indexed": true,
          "internalType": "address",
          "name": "tokenIn",
          "type": "address"
        },
        {
          "indexed": true,
          "internalType": "address",
          "name": "tokenOut",
          "type": "address"
        },
        {
          "indexed": false,
          "internalType": "uint256",
          "name": "amountIn",
          "type": "uint256"
        },
        {
          "indexed": false,
          "internalType": "uint256",
          "name": "amountOut",
          "type": "uint256"
        }
      ],
      "name": "Swap",
      "type": "event"
    },
    {
      "anonymous": false,
      "inputs": [
        {
          "indexed": true,
          "internalType": "address",
          "name": "tokenIn",
          "type": "address"
        },
        {
          "indexed": true,
          "internalType": "address",
          "name": "tokenOut",
          "type": "address"
        },
        {
          "indexed": false,
          "internalType": "uint256",
          "name": "amountIn",
          "type": "uint256"
        },
        {
          "indexed": false,
          "internalType": "uint256",
          "name": "amountOut",
          "type": "uint256"
        },
        {
          "indexed": false,
          "internalType": "uint256",
          "name": "fee",
          "type": "uint256"
        }
      ],
      "name": "Swapped",
      "type": "event"
    },
    {
      "anonymous": false,
      "inputs": [
        {
          "indexed": true,
          "internalType": "address",
          "name": "from",
          "type": "address"
        },
        {
          "indexed": false,
          "internalType": "uint256",
          "name": "amount",
          "type": "uint256"
        }
      ],
      "name": "TokenBurned",
      "type": "event"
    },
    {
      "anonymous": false,
      "inputs": [
        {
          "indexed": true,
          "internalType": "address",
          "name": "to",
          "type": "address"
        },
        {
          "indexed": false,
          "internalType": "uint256",
          "name": "amount",
          "type": "uint256"
        }
      ],
      "name": "TokenMinted",
      "type": "event"
    },
    {
      "anonymous": false,
      "inputs": [
        {
          "indexed": true,
          "internalType": "address",
          "name": "from",
          "type": "address"
        },
        {
          "indexed": true,
          "internalType": "address",
          "name": "to",
          "type": "address"
        },
        {
          "indexed": false,
          "internalType": "uint256",
          "name": "value",
          "type": "uint256"
        }
      ],
      "name": "Transfer",
      "type": "event"
    },
    {
      "anonymous": false,
      "inputs": [
        {
          "indexed": true,
          "internalType": "address",
          "name": "from",
          "type": "address"
        },
        {
          "indexed": true,
          "internalType": "address",
          "name": "to",
          "type": "address"
        },
        {
          "indexed": false,
          "internalType": "uint256",
          "name": "amount",
          "type": "uint256"
        }
      ],
      "name": "TransferRestricted",
      "type": "event"
    },
    {
      "anonymous": false,
      "inputs": [
        {
          "indexed": false,
          "internalType": "address",
          "name": "account",
          "type": "address"
        }
      ],
      "name": "Unpaused",
      "type": "event"
    },
    {
      "inputs": [],
      "name": "MAX_PRICE_IMPACT",
      "outputs": [
        {
          "internalType": "uint256",
          "name": "",
          "type": "uint256"
        }
      ],
      "stateMutability": "view",
      "type": "function"
    },
    {
      "inputs": [],
      "name": "MAX_SUPPLY",
      "outputs": [
        {
          "internalType": "uint256",
          "name": "",
          "type": "uint256"
        }
      ],
      "stateMutability": "view",
      "type": "function"
    },
    {
      "inputs": [],
      "name": "MINIMUM_TRANSFER_AMOUNT",
      "outputs": [
        {
          "internalType": "uint256",
          "name": "",
          "type": "uint256"
        }
      ],
      "stateMutability": "view",
      "type": "function"
    },
    {
      "inputs": [],
      "name": "MIN_LIQUIDITY",
      "outputs": [
        {
          "internalType": "uint256",
          "name": "",
          "type": "uint256"
        }
      ],
      "stateMutability": "view",
      "type": "function"
    },
    {
      "inputs": [
        {
          "internalType": "uint256",
          "name": "amount0",
          "type": "uint256"
        }
      ],
      "name": "addLiquidity",
      "outputs": [
        {
          "internalType": "uint256",
          "name": "",
          "type": "uint256"
        }
      ],
      "stateMutability": "nonpayable",
      "type": "function"
    },
    {
      "inputs": [
        {
          "internalType": "address",
          "name": "owner",
          "type": "address"
        },
        {
          "internalType": "address",
          "name": "spender",
          "type": "address"
        }
      ],
      "name": "allowance",
      "outputs": [
        {
          "internalType": "uint256",
          "name": "",
          "type": "uint256"
        }
      ],
      "stateMutability": "view",
      "type": "function"
    },
    {
      "inputs": [
        {
          "internalType": "address",
          "name": "spender",
          "type": "address"
        },
        {
          "internalType": "uint256",
          "name": "value",
          "type": "uint256"
        }
      ],
      "name": "approve",
      "outputs": [
        {
          "internalType": "bool",
          "name": "",
          "type": "bool"
        }
      ],
      "stateMutability": "nonpayable",
      "type": "function"
    },
    {
      "inputs": [
        {
          "internalType": "address",
          "name": "account",
          "type": "address"
        }
      ],
      "name": "balanceOf",
      "outputs": [
        {
          "internalType": "uint256",
          "name": "",
          "type": "uint256"
        }
      ],
      "stateMutability": "view",
      "type": "function"
    },
    {
      "inputs": [
        {
          "internalType": "address",
          "name": "from",
          "type": "address"
        },
        {
          "internalType": "uint256",
          "name": "amount",
          "type": "uint256"
        }
      ],
      "name": "burn",
      "outputs": [],
      "stateMutability": "nonpayable",
      "type": "function"
    },
    {
      "inputs": [],
      "name": "decimals",
      "outputs": [
        {
          "internalType": "uint8",
          "name": "",
          "type": "uint8"
        }
      ],
      "stateMutability": "view",
      "type": "function"
    },
    {
      "inputs": [
        {
          "internalType": "address",
          "name": "tokenIn",
          "type": "address"
        },
        {
          "internalType": "uint256",
          "name": "amountIn",
          "type": "uint256"
        },
        {
          "internalType": "address",
          "name": "tokenOut",
          "type": "address"
        }
      ],
      "name": "getAmountOut",
      "outputs": [
        {
          "internalType": "uint256",
          "name": "",
          "type": "uint256"
        }
      ],
      "stateMutability": "view",
      "type": "function"
    },
    {
      "inputs": [
        {
          "internalType": "uint256",
          "name": "amount0",
          "type": "uint256"
        }
      ],
      "name": "getRequiredAmount1",
      "outputs": [
        {
          "internalType": "uint256",
          "name": "",
          "type": "uint256"
        }
      ],
      "stateMutability": "view",
      "type": "function"
    },
    {
      "inputs": [],
      "name": "getReserves",
      "outputs": [
        {
          "internalType": "uint256",
          "name": "",
          "type": "uint256"
        },
        {
          "internalType": "uint256",
          "name": "",
          "type": "uint256"
        }
      ],
      "stateMutability": "view",
      "type": "function"
    },
    {
      "inputs": [
        {
          "internalType": "address",
          "name": "pool_",
          "type": "address"
        }
      ],
      "name": "initialize",
      "outputs": [],
      "stateMutability": "nonpayable",
      "type": "function"
    },
    {
      "inputs": [
        {
          "internalType": "uint256",
          "name": "amount0",
          "type": "uint256"
        }
      ],
      "name": "initialize",
      "outputs": [],
      "stateMutability": "nonpayable",
      "type": "function"
    },
    {
      "inputs": [],
      "name": "initialized",
      "outputs": [
        {
          "internalType": "bool",
          "name": "",
          "type": "bool"
        }
      ],
      "stateMutability": "view",
      "type": "function"
    },
    {
      "inputs": [],
      "name": "isInitialized",
      "outputs": [
        {
          "internalType": "bool",
          "name": "",
          "type": "bool"
        }
      ],
      "stateMutability": "view",
      "type": "function"
    },
    {
      "inputs": [],
      "name": "minTransferAmount",
      "outputs": [
        {
          "internalType": "uint256",
          "name": "",
          "type": "uint256"
        }
      ],
      "stateMutability": "pure",
      "type": "function"
    },
    {
      "inputs": [
        {
          "internalType": "address",
          "name": "to",
          "type": "address"
        },
        {
          "internalType": "uint256",
          "name": "amount",
          "type": "uint256"
        }
      ],
      "name": "mint",
      "outputs": [],
      "stateMutability": "nonpayable",
      "type": "function"
    },
    {
      "inputs": [],
      "name": "name",
      "outputs": [
        {
          "internalType": "string",
          "name": "",
          "type": "string"
        }
      ],
      "stateMutability": "view",
      "type": "function"
    },
    {
      "inputs": [],
      "name": "owner",
      "outputs": [
        {
          "internalType": "address",
          "name": "",
          "type": "address"
        }
      ],
      "stateMutability": "view",
      "type": "function"
    },
    {
      "inputs": [],
      "name": "pause",
      "outputs": [],
      "stateMutability": "nonpayable",
      "type": "function"
    },
    {
      "inputs": [],
      "name": "paused",
      "outputs": [
        {
          "internalType": "bool",
          "name": "",
          "type": "bool"
        }
      ],
      "stateMutability": "view",
      "type": "function"
    },
    {
      "inputs": [],
      "name": "pool",
      "outputs": [
        {
          "internalType": "address",
          "name": "",
          "type": "address"
        }
      ],
      "stateMutability": "view",
      "type": "function"
    },
    {
      "inputs": [
        {
          "internalType": "uint256",
          "name": "lpAmount",
          "type": "uint256"
        }
      ],
      "name": "removeLiquidity",
      "outputs": [
        {
          "internalType": "uint256",
          "name": "",
          "type": "uint256"
        },
        {
          "internalType": "uint256",
          "name": "",
          "type": "uint256"
        }
      ],
      "stateMutability": "nonpayable",
      "type": "function"
    },
    {
      "inputs": [],
      "name": "renounceOwnership",
      "outputs": [],
      "stateMutability": "nonpayable",
      "type": "function"
    },
    {
      "inputs": [
        {
          "internalType": "address",
          "name": "tokenIn",
          "type": "address"
        },
        {
          "internalType": "uint256",
          "name": "amountIn",
          "type": "uint256"
        },
        {
          "internalType": "address",
          "name": "tokenOut",
          "type": "address"
        }
      ],
      "name": "swap",
      "outputs": [
        {
          "internalType": "uint256",
          "name": "",
          "type": "uint256"
        }
      ],
      "stateMutability": "nonpayable",
      "type": "function"
    },
    {
      "inputs": [],
      "name": "symbol",
      "outputs": [
        {
          "internalType": "string",
          "name": "",
          "type": "string"
        }
      ],
      "stateMutability": "view",
      "type": "function"
    },
    {
      "inputs": [],
      "name": "token0",
      "outputs": [
        {
          "internalType": "address",
          "name": "",
          "type": "address"
        }
      ],
      "stateMutability": "view",
      "type": "function"
    },
    {
      "inputs": [],
      "name": "token1",
      "outputs": [
        {
          "internalType": "address",
          "name": "",
          "type": "address"
        }
      ],
      "stateMutability": "view",
      "type": "function"
    },
    {
      "inputs": [],
      "name": "totalSupply",
      "outputs": [
        {
          "internalType": "uint256",
          "name": "",
          "type": "uint256"
        }
      ],
      "stateMutability": "view",
      "type": "function"
    },
    {
      "inputs": [
        {
          "internalType": "address",
          "name": "to",
          "type": "address"
        },
        {
          "internalType": "uint256",
          "name": "amount",
          "type": "uint256"
        }
      ],
      "name": "transfer",
      "outputs": [
        {
          "internalType": "bool",
          "name": "",
          "type": "bool"
        }
      ],
      "stateMutability": "nonpayable",
      "type": "function"
    },
    {
      "inputs": [
        {
          "internalType": "address",
          "name": "from",
          "type": "address"
        },
        {
          "internalType": "address",
          "name": "to",
          "type": "address"
        },
        {
          "internalType": "uint256",
          "name": "amount",
          "type": "uint256"
        }
      ],
      "name": "transferFrom",
      "outputs": [
        {
          "internalType": "bool",
          "name": "",
          "type": "bool"
        }
      ],
      "stateMutability": "nonpayable",
      "type": "function"
    },
    {
      "inputs": [
        {
          "internalType": "address",
          "name": "newOwner",
          "type": "address"
        }
      ],
      "name": "transferOwnership",
      "outputs": [],
      "stateMutability": "nonpayable",
      "type": "function"
    },
    {
      "inputs": [],
      "name": "unpause",
      "outputs": [],
      "stateMutability": "nonpayable",
      "type": "function"
    }
  ],
  "bytecode": "0x60c06040523480156200001157600080fd5b5060405162002b9e38038062002b9e83398101604081905262000034916200028e565b818133604051806040016040528060088152602001672628102a37b5b2b760c11b8152506040518060400160405280600281526020016104c560f41b81525081600390816200008491906200036b565b5060046200009382826200036b565b50506005805460ff19169055506001600160a01b038116620000d057604051631e4fbdf760e01b8152600060048201526024015b60405180910390fd5b620000db8162000217565b506005805460ff60a81b191690556001600160a01b038216620001415760405162461bcd60e51b815260206004820152601660248201527f42617365506f6f6c3a205a45524f5f41444452455353000000000000000000006044820152606401620000c7565b6001600160a01b038116620001995760405162461bcd60e51b815260206004820152601660248201527f42617365506f6f6c3a205a45524f5f41444452455353000000000000000000006044820152606401620000c7565b806001600160a01b0316826001600160a01b031603620001fc5760405162461bcd60e51b815260206004820152601d60248201527f42617365506f6f6c3a204944454e544943414c5f4144445245535345530000006044820152606401620000c7565b6001600160a01b039182166080521660a05250620004379050565b600580546001600160a01b03838116610100818102610100600160a81b031985161790945560405193909204169182907f8be0079c531659141344cd1fd0a4f28419497f9722a3daafe3b4186f6b6457e090600090a35050565b80516001600160a01b03811681146200028957600080fd5b919050565b60008060408385031215620002a257600080fd5b620002ad8362000271565b9150620002bd6020840162000271565b90509250929050565b634e487b7160e01b600052604160045260246000fd5b600181811c90821680620002f157607f821691505b6020821081036200031257634e487b7160e01b600052602260045260246000fd5b50919050565b601f8211156200036657600081815260208120601f850160051c81016020861015620003415750805b601f850160051c820191505b8181101562000362578281556001016200034d565b5050505b505050565b81516001600160401b03811115620003875762000387620002c6565b6200039f81620003988454620002dc565b8462000318565b602080601f831160018114620003d75760008415620003be5750858301515b600019600386901b1c1916600185901b17855562000362565b600085815260208120601f198616915b828110156200040857888601518255948401946001909101908401620003e7565b5085821015620004275787850151600019600388901b60f8161c191681555b5050505050600190811b01905550565b60805160a05161267d620005216000396000818161043f015281816105a40152818161092801528181610a1701528181610fa801528181611150015281816112960152818161138c015281816118b30152818161198a015281816119be01528181611b0c0152611bbf0152600081816102760152818161057101528181610879015281816109ca01528181610a6401528181610dde01528181610f75015281816110fd01528181611249015281816112da0152818161180401528181611955015281816119e801528181611ad101528181611b8401528181611c900152611cd8015261267d6000f3fe608060405234801561001057600080fd5b50600436106102115760003560e01c806368841431116101255780639dc29fac116100ad578063d21220a71161007c578063d21220a71461043d578063dd62ed3e14610463578063f2fde38b1461049c578063fe4b84df146104af578063ff9c8ac6146104c257600080fd5b80639dc29fac146103fc578063a9059cbb1461040f578063abba535d14610422578063c4d66de81461042a57600080fd5b80638456cb59116100f45780638456cb59146103b05780638da5cb5b146103b8578063929f8c75146103ce57806395d89b41146103e15780639c8f9f23146103e957600080fd5b806368841431146103655780636d069a671461036c57806370a082311461037f578063715018a6146103a857600080fd5b806323b872dd116101a85780633f4ba83a116101775780633f4ba83a1461032257806340c10f191461032c57806351c6590a1461033f5780635c975abb146103525780636839b5fa1461035d57600080fd5b806323b872dd146102ec578063313ce567146102ff57806332cb6b0c1461030e578063392e53cd1461031757600080fd5b8063158ef93e116101e4578063158ef93e146102ae57806316f0115b146102c057806318160ddd146102d157806321b77d63146102e357600080fd5b806306fdde03146102165780630902f1ac14610234578063095ea7b3146102515780630dfe168114610274575b600080fd5b61021e6104d5565b60405161022b919061232c565b60405180910390f35b61023c610567565b6040805192835260208301919091520161022b565b61026461025f366004612396565b6105cf565b604051901515815260200161022b565b7f00000000000000000000000000000000000000000000000000000000000000005b6040516001600160a01b03909116815260200161022b565b600554600160a81b900460ff16610264565b6006546001600160a01b0316610296565b6002545b60405190815260200161022b565b6102d56103e881565b6102646102fa3660046123c0565b6105e9565b6040516012815260200161022b565b6102d560001981565b60095460ff16610264565b61032a610675565b005b61032a61033a366004612396565b610687565b6102d561034d3660046123fc565b6107f2565b60055460ff16610264565b6102d5600a81565b60016102d5565b6102d561037a366004612415565b610abd565b6102d561038d366004612451565b6001600160a01b031660009081526020819052604090205490565b61032a610f33565b61032a610f45565b60055461010090046001600160a01b0316610296565b6102d56103dc3660046123fc565b610f55565b61021e61102f565b61023c6103f73660046123fc565b61103e565b61032a61040a366004612396565b611499565b61026461041d366004612396565b6115f7565b6102d5600181565b61032a610438366004612451565b611651565b7f0000000000000000000000000000000000000000000000000000000000000000610296565b6102d561047136600461246c565b6001600160a01b03918216600090815260016020908152604080832093909416825291909152205490565b61032a6104aa366004612451565b611708565b61032a6104bd3660046123fc565b611746565b6102d56104d0366004612415565b611a56565b6060600380546104e49061249f565b80601f01602080910402602001604051908101604052809291908181526020018280546105109061249f565b801561055d5780601f106105325761010080835404028352916020019161055d565b820191906000526020600020905b81548152906001019060200180831161054057829003601f168201915b5050505050905090565b6001600160a01b037f000000000000000000000000000000000000000000000000000000000000000081166000908152600a6020526040808220547f000000000000000000000000000000000000000000000000000000000000000090931682529020549091565b6000336105dd818585611e3d565b60019150505b92915050565b60006105f3611e4f565b600182101561066257826001600160a01b0316846001600160a01b03167f11fa32abca54cea9e42543564c8e59c2f3a9746185b0ec8862fd61fc7488ee068460405161064191815260200190565b60405180910390a36040516315834dd160e11b815260040160405180910390fd5b61066d848484611e73565b949350505050565b61067d611e97565b610685611eca565b565b60095460ff166106b25760405162461bcd60e51b81526004016106a9906124d9565b60405180910390fd5b6006546001600160a01b031633146106dd5760405163e921159760e01b815260040160405180910390fd5b6001600160a01b0382166107275760405162461bcd60e51b8152602060048201526011602482015270125b9d985b1a59081c9958da5c1a595b9d607a1b60448201526064016106a9565b600081116107475760405162461bcd60e51b81526004016106a990612507565b6000198161075460025490565b61075e9190612542565b11156107a15760405162461bcd60e51b815260206004820152601260248201527145786365656473206d617820737570706c7960701b60448201526064016106a9565b6107ab8282611f1c565b816001600160a01b03167fb9144c96c86541f6fa89c9f2f02495cccf4b08cd6643e26d34ee00aa586558a8826040516107e691815260200190565b60405180910390a25050565b60008082116108135760405162461bcd60e51b81526004016106a990612507565b600061081e83610f55565b9050600081116108625760405162461bcd60e51b815260206004820152600f60248201526e496e76616c696420616d6f756e743160881b60448201526064016106a9565b6040516323b872dd60e01b81526001600160a01b037f000000000000000000000000000000000000000000000000000000000000000016906323b872dd906108b290339030908890600401612555565b6020604051808303816000875af11580156108d1573d6000803e3d6000fd5b505050506040513d601f19601f820116820180604052508101906108f59190612579565b6109115760405162461bcd60e51b81526004016106a99061259b565b6040516323b872dd60e01b81526001600160a01b037f000000000000000000000000000000000000000000000000000000000000000016906323b872dd9061096190339030908690600401612555565b6020604051808303816000875af1158015610980573d6000803e3d6000fd5b505050506040513d601f19601f820116820180604052508101906109a49190612579565b6109c05760405162461bcd60e51b81526004016106a9906125cb565b6001600160a01b037f0000000000000000000000000000000000000000000000000000000000000000166000908152600a602052604081208054859290610a08908490612542565b90915550506001600160a01b037f0000000000000000000000000000000000000000000000000000000000000000166000908152600a602052604081208054839290610a55908490612542565b90915550506001600160a01b037f0000000000000000000000000000000000000000000000000000000000000000166000908152600a6020526040812054600254610aa090866125fb565b610aaa9190612612565b9050610ab63382611f1c565b9392505050565b6000610acb60095460ff1690565b610ae75760405162461bcd60e51b81526004016106a9906124d9565b6000610af4858585611a56565b90506000610b03606483612612565b9050610b0f8183612634565b9150610b1b8183612542565b6001600160a01b0385166000908152600a60205260409020541015610b825760405162461bcd60e51b815260206004820152601960248201527f496e73756666696369656e7420706f6f6c2062616c616e63650000000000000060448201526064016106a9565b6040516323b872dd60e01b81526001600160a01b038716906323b872dd90610bb290339030908a90600401612555565b6020604051808303816000875af1158015610bd1573d6000803e3d6000fd5b505050506040513d601f19601f82011682018060405250810190610bf59190612579565b610c365760405162461bcd60e51b8152602060048201526012602482015271151c985b9cd9995c881a5b8819985a5b195960721b60448201526064016106a9565b60405163a9059cbb60e01b8152336004820152602481018390526001600160a01b0385169063a9059cbb906044016020604051808303816000875af1158015610c83573d6000803e3d6000fd5b505050506040513d601f19601f82011682018060405250810190610ca79190612579565b610ce95760405162461bcd60e51b8152602060048201526013602482015272151c985b9cd9995c881bdd5d0819985a5b1959606a1b60448201526064016106a9565b6001600160a01b0386166000908152600a602052604081208054879290610d11908490612542565b90915550506001600160a01b0384166000908152600a602052604081208054849290610d3e908490612634565b90915550508015610d77576001600160a01b0384166000908152600a602052604081208054839290610d71908490612634565b90915550505b60408051868152602081018490529081018290526001600160a01b0380861691908816907fa54201e99d8e1488291e015a3af88c7a169bcf4932617ecd9536e1f1ad4351109060600160405180910390a3600080610dd3610567565b915091506000610e007f000000000000000000000000000000000000000000000000000000000000000090565b6001600160a01b0316896001600160a01b031614610e1e5781610e20565b825b9050600083610e3784670de0b6b3a76400006125fb565b610e419190612612565b90506000610e4f8a86612542565b610e598886612634565b610e6b90670de0b6b3a76400006125fb565b610e759190612612565b9050600082821115610ea85782610e8c8184612634565b610e979060646125fb565b610ea19190612612565b9050610ecb565b82610eb38382612634565b610ebe9060646125fb565b610ec89190612612565b90505b610ed76002600a612612565b811115610f2357604080518c8152602081018390526001600160a01b038e16917fcf644c132ff7a0b4125c51675bbc7dc920e35c70bb518c73a75adf2e32013469910160405180910390a25b50959a9950505050505050505050565b610f3b611e97565b6106856000611f56565b610f4d611e97565b610685611fb0565b6000610f6360095460ff1690565b610f6b575090565b6001600160a01b037f000000000000000000000000000000000000000000000000000000000000000081166000908152600a6020526040808220547f000000000000000000000000000000000000000000000000000000000000000090931682529020548115801590610fde5750600081115b61101a5760405162461bcd60e51b815260206004820152600d60248201526c506f6f6c20697320656d70747960981b60448201526064016106a9565b8161102582866125fb565b61066d9190612612565b6060600480546104e49061249f565b60008061104d60095460ff1690565b6110695760405162461bcd60e51b81526004016106a9906124d9565b600083116110895760405162461bcd60e51b81526004016106a990612507565b336000908152602081905260409020548311156110e85760405162461bcd60e51b815260206004820152601760248201527f496e73756666696369656e74204c502062616c616e636500000000000000000060448201526064016106a9565b60006110f360025490565b6001600160a01b037f0000000000000000000000000000000000000000000000000000000000000000166000908152600a602052604081205491925090829061113c90876125fb565b6111469190612612565b6001600160a01b037f0000000000000000000000000000000000000000000000000000000000000000166000908152600a602052604081205491925090839061118f90886125fb565b6111999190612612565b905060006111a78785612634565b90506103e881101561123557604080518281526103e860208201527fb41fddac6e70f1288fbc603704be9e507b032c80c8a8d11182feb12a2f3c6bdd910160405180910390a160405162461bcd60e51b815260206004820152601d60248201527f576f756c6420627265616b206d696e696d756d206c697175696469747900000060448201526064016106a9565b61123f3388611fed565b6001600160a01b037f0000000000000000000000000000000000000000000000000000000000000000166000908152600a602052604081208054859290611287908490612634565b90915550506001600160a01b037f0000000000000000000000000000000000000000000000000000000000000000166000908152600a6020526040812080548492906112d4908490612634565b909155507f0000000000000000000000000000000000000000000000000000000000000000905060405163a9059cbb60e01b8152336004820152602481018590526001600160a01b03919091169063a9059cbb906044016020604051808303816000875af115801561134a573d6000803e3d6000fd5b505050506040513d601f19601f8201168201806040525081019061136e9190612579565b61138a5760405162461bcd60e51b81526004016106a99061259b565b7f000000000000000000000000000000000000000000000000000000000000000060405163a9059cbb60e01b8152336004820152602481018490526001600160a01b03919091169063a9059cbb906044016020604051808303816000875af11580156113fa573d6000803e3d6000fd5b505050506040513d601f19601f8201168201806040525081019061141e9190612579565b61143a5760405162461bcd60e51b81526004016106a9906125cb565b509093509150506103e861144d60025490565b10156114945760405162461bcd60e51b8152602060048201526016602482015275496e73756666696369656e74206c697175696469747960501b60448201526064016106a9565b915091565b60095460ff166114bb5760405162461bcd60e51b81526004016106a9906124d9565b6006546001600160a01b031633146114e65760405163e921159760e01b815260040160405180910390fd5b6001600160a01b03821661152d5760405162461bcd60e51b815260206004820152600e60248201526d24b73b30b634b21039b2b73232b960911b60448201526064016106a9565b6000811161154d5760405162461bcd60e51b81526004016106a990612507565b8061156d836001600160a01b031660009081526020819052604090205490565b10156115b25760405162461bcd60e51b8152602060048201526014602482015273496e73756666696369656e742062616c616e636560601b60448201526064016106a9565b6115bc8282611fed565b816001600160a01b03167f1af5163f80e79b5e554f61e1d052084d3a3fe1166e42a265798c4e2ddce8ffa2826040516107e691815260200190565b6000611601611e4f565b6001821015611647576040518281526001600160a01b0384169033907f11fa32abca54cea9e42543564c8e59c2f3a9746185b0ec8862fd61fc7488ee0690602001610641565b610ab68383612023565b611659611e97565b600554600160a81b900460ff16156116835760405162dc149f60e41b815260040160405180910390fd5b6001600160a01b0381166116aa5760405163d92e233d60e01b815260040160405180910390fd5b600680546001600160a01b0383166001600160a01b031990911681179091556005805460ff60a81b1916600160a81b1790556040517f025f89b99c8ce32af8da7624f4575b920a86ebf07870d85a9fb545fee349ddce90600090a250565b611710611e97565b6001600160a01b03811661173a57604051631e4fbdf760e01b8152600060048201526024016106a9565b61174381611f56565b50565b60095460ff16156117995760405162461bcd60e51b815260206004820152601860248201527f506f6f6c20616c726561647920696e697469616c697a6564000000000000000060448201526064016106a9565b6103e88110156117eb5760405162461bcd60e51b815260206004820152601960248201527f496e697469616c206c697175696469747920746f6f206c6f770000000000000060448201526064016106a9565b6040516323b872dd60e01b815281906001600160a01b037f000000000000000000000000000000000000000000000000000000000000000016906323b872dd9061183d90339030908690600401612555565b6020604051808303816000875af115801561185c573d6000803e3d6000fd5b505050506040513d601f19601f820116820180604052508101906118809190612579565b61189c5760405162461bcd60e51b81526004016106a99061259b565b6040516323b872dd60e01b81526001600160a01b037f000000000000000000000000000000000000000000000000000000000000000016906323b872dd906118ec90339030908690600401612555565b6020604051808303816000875af115801561190b573d6000803e3d6000fd5b505050506040513d601f19601f8201168201806040525081019061192f9190612579565b61194b5760405162461bcd60e51b81526004016106a9906125cb565b6001600160a01b037f000000000000000000000000000000000000000000000000000000000000000081166000908152600a60205260408082208590557f00000000000000000000000000000000000000000000000000000000000000009092168152208190556119bc3383611f1c565b7f00000000000000000000000000000000000000000000000000000000000000006001600160a01b03167f00000000000000000000000000000000000000000000000000000000000000006001600160a01b03167f9ff2050ac7faae9dc192e1cc9abe73b18a9b849f9b43f509914d80fa104d59038484604051611a4a929190918252602082015260400190565b60405180910390a35050565b6000611a6460095460ff1690565b611a805760405162461bcd60e51b81526004016106a9906124d9565b816001600160a01b0316846001600160a01b031603611acf5760405162461bcd60e51b815260206004820152600b60248201526a53616d6520746f6b656e7360a81b60448201526064016106a9565b7f00000000000000000000000000000000000000000000000000000000000000006001600160a01b0316846001600160a01b03161480611b4057507f00000000000000000000000000000000000000000000000000000000000000006001600160a01b0316846001600160a01b0316145b611b825760405162461bcd60e51b815260206004820152601360248201527224b73b30b634b21034b7383aba103a37b5b2b760691b60448201526064016106a9565b7f00000000000000000000000000000000000000000000000000000000000000006001600160a01b0316826001600160a01b03161480611bf357507f00000000000000000000000000000000000000000000000000000000000000006001600160a01b0316826001600160a01b0316145b611c365760405162461bcd60e51b815260206004820152601460248201527324b73b30b634b21037baba383aba103a37b5b2b760611b60448201526064016106a9565b60008311611c7a5760405162461bcd60e51b815260206004820152601160248201527016995c9bc81a5b9c1d5d08185b5bdd5b9d607a1b60448201526064016106a9565b600080611c85610567565b915091506000611cb27f000000000000000000000000000000000000000000000000000000000000000090565b6001600160a01b0316876001600160a01b031614611cd05781611cd2565b825b905060007f00000000000000000000000000000000000000000000000000000000000000006001600160a01b0316886001600160a01b031614611d155783611d17565b825b90506000611d258884612542565b611d2f838a6125fb565b611d399190612612565b9050600083611d5084670de0b6b3a76400006125fb565b611d5a9190612612565b90506000611d688a86612542565b611d728486612634565b611d8490670de0b6b3a76400006125fb565b611d8e9190612612565b9050600082821115611dc15782611da58184612634565b611db09060646125fb565b611dba9190612612565b9050611de4565b82611dcc8382612634565b611dd79060646125fb565b611de19190612612565b90505b600a811115611e2d5760405162461bcd60e51b81526020600482015260156024820152740a0e4d2c6ca40d2dae0c2c6e840e8dede40d0d2ced605b1b60448201526064016106a9565b50919a9950505050505050505050565b611e4a8383836001612031565b505050565b60055460ff16156106855760405163d93c066560e01b815260040160405180910390fd5b600033611e81858285612107565b611e8c858585612180565b506001949350505050565b6005546001600160a01b036101009091041633146106855760405163118cdaa760e01b81523360048201526024016106a9565b611ed26121df565b6005805460ff191690557f5db9ee0a495bf2e6ff9c91a7834c1ba4fdd244a5e8aa4e537bd38aeae4b073aa335b6040516001600160a01b03909116815260200160405180910390a1565b6001600160a01b038216611f465760405163ec442f0560e01b8152600060048201526024016106a9565b611f5260008383612202565b5050565b600580546001600160a01b03838116610100818102610100600160a81b031985161790945560405193909204169182907f8be0079c531659141344cd1fd0a4f28419497f9722a3daafe3b4186f6b6457e090600090a35050565b611fb8611e4f565b6005805460ff191660011790557f62e78cea01bee320cd4e420270b5ea74000d11b0c9f74754ebdbfc544b05a258611eff3390565b6001600160a01b03821661201757604051634b637e8f60e11b8152600060048201526024016106a9565b611f5282600083612202565b6000336105dd818585612180565b6001600160a01b03841661205b5760405163e602df0560e01b8152600060048201526024016106a9565b6001600160a01b03831661208557604051634a1406b160e11b8152600060048201526024016106a9565b6001600160a01b038085166000908152600160209081526040808320938716835292905220829055801561210157826001600160a01b0316846001600160a01b03167f8c5be1e5ebec7d5bd14f71427d1e84f3dd0314c0f7b2291e5b200ac8c7c3b925846040516120f891815260200190565b60405180910390a35b50505050565b6001600160a01b03838116600090815260016020908152604080832093861683529290522054600019811015612101578181101561217157604051637dc7a0d960e11b81526001600160a01b038416600482015260248101829052604481018390526064016106a9565b61210184848484036000612031565b6001600160a01b0383166121aa57604051634b637e8f60e11b8152600060048201526024016106a9565b6001600160a01b0382166121d45760405163ec442f0560e01b8152600060048201526024016106a9565b611e4a838383612202565b60055460ff1661068557604051638dfc202b60e01b815260040160405180910390fd5b6001600160a01b03831661222d5780600260008282546122229190612542565b9091555061229f9050565b6001600160a01b038316600090815260208190526040902054818110156122805760405163391434e360e21b81526001600160a01b038516600482015260248101829052604481018390526064016106a9565b6001600160a01b03841660009081526020819052604090209082900390555b6001600160a01b0382166122bb576002805482900390556122da565b6001600160a01b03821660009081526020819052604090208054820190555b816001600160a01b0316836001600160a01b03167fddf252ad1be2c89b69c2b068fc378daa952ba7f163c4a11628f55a4df523b3ef8360405161231f91815260200190565b60405180910390a3505050565b600060208083528351808285015260005b818110156123595785810183015185820160400152820161233d565b506000604082860101526040601f19601f8301168501019250505092915050565b80356001600160a01b038116811461239157600080fd5b919050565b600080604083850312156123a957600080fd5b6123b28361237a565b946020939093013593505050565b6000806000606084860312156123d557600080fd5b6123de8461237a565b92506123ec6020850161237a565b9150604084013590509250925092565b60006020828403121561240e57600080fd5b5035919050565b60008060006060848603121561242a57600080fd5b6124338461237a565b9250602084013591506124486040850161237a565b90509250925092565b60006020828403121561246357600080fd5b610ab68261237a565b6000806040838503121561247f57600080fd5b6124888361237a565b91506124966020840161237a565b90509250929050565b600181811c908216806124b357607f821691505b6020821081036124d357634e487b7160e01b600052602260045260246000fd5b50919050565b602080825260149082015273141bdbdb081b9bdd081a5b9a5d1a585b1a5e995960621b604082015260600190565b6020808252600b908201526a16995c9bc8185b5bdd5b9d60aa1b604082015260600190565b634e487b7160e01b600052601160045260246000fd5b808201808211156105e3576105e361252c565b6001600160a01b039384168152919092166020820152604081019190915260600190565b60006020828403121561258b57600080fd5b81518015158114610ab657600080fd5b602080825260169082015275151c985b9cd9995c881d1bdad95b8c0819985a5b195960521b604082015260600190565b602080825260169082015275151c985b9cd9995c881d1bdad95b8c4819985a5b195960521b604082015260600190565b80820281158282048414176105e3576105e361252c565b60008261262f57634e487b7160e01b600052601260045260246000fd5b500490565b818103818111156105e3576105e361252c56fea2646970667358221220a4b69d3946dd41d753a5d55a0d71100b2224dbcdc62b08b83a116aaa4082695c64736f6c63430008140033",
  "linkReferences": {},
  "deployedLinkReferences": {}
}